:100000000C94F0020C9418030C9418030C9418032D
:100010000C9418030C9418030C9418030C941803F4
:100020000C9418030C9418030C949F0B0C94110C53
:100030000C9418030C9418030C9418030C941803D4
:100040000C9418030C9418030C9418030C941803C4
:100050000C9418030C947C080C9418030C94FB0E5D
:100060000C9418030C9418030C9418030C941803A4
:100070000C9418030C94B2080C9418030C941803F5
:100080000C9418030C9418030C9418030C94180384
:100090000C94450F0C9418030C94F1080C9418035D
:1000A0000C9418030C9418030C941803740A770A20
:1000B000660A6A0A700A980A980A980A7B0A7F0AEE
:1000C000830A890A8D0A980A930A07060504010023
:1000D000080A0B0C0D090000000076A90800512D3C
:1000E000090004B90900054D0A00D3E90A00F48F9C
:1000F0000B00F63F0C0070FA0C0000C00D004F9191
:100100000E00116F0F00025A1000EC521100A35A9A
:100110001200087213000A9A1400A6D31500E91FF2
:100120001700ED7F1800E0F4190000801B009E22EC
:100130001D0022DE1E0004B42000D8A5220046B512
:10014000240010E42600153429004DA72B00D23FCF
:100150002E00DAFF3000C0E93300FFFF36003D45D6
:100160003A0044BC3D0008684100AF4B45008C6A32
:10017000490020C84D002A6852009C4E5700A47FB9
:100180005C00B4FF610080D36700FFFF6D007B8AD5
:10019000740089787B0011D082005F978A0018D59F
:1001A000920041909B0053D0A400339DAE0046FFC7
:1001B000B80069FFC30000A7CF00FDFFDB00F41407
:1001C000E9000BF1F60020A00501BE2E150130AAB2
:1001D000250182203701A6A04901663A5D018CFE07
:1001E0007101D2FE8701004E9F01FAFFB701F2298B
:1001F000D20120E2ED0140400B027C5D2A024C540A
:100200004B0204416E024C419302CC74BA0228FDA9
:10021000E302A4FD0F03009C3E03F4FF6F03E453CD
:10022000A40340C4DB0380801604F8BA540498A8E1
:1002300096040882DC049882260598E9740530FA51
:10024000C70548FB1F0600387D06E8FFDF06C8A784
:1002500048078088B70700012D08F075A9083051BC
:100260002D091004B90930054D0AA0D3E90AA0F4FC
:100270008F0B00F63F0CC06FFA0C70FFBF0D804E65
:10028000910EB0106F0FA0015A10E0EB521160A256
:100290005A1220087213600A9A1440A7D31540E836
:1002A0001F1700EC7F1880DFF419E0FE7F1B009D14
:1002B000221D6021DE1E4003B420C0D7A522C04409
:1002C000B5244010E426C0143429804EA72B80D2D8
:1002D0003F2E00D8FF3000000000240027002A0035
:1002E0002D00300000000000250028002B002E000B
:1002F0003100000000002300260029002C002F0000
:1003000004040404040304050202020204030202BA
:10031000020206060606060604040202020404049B
:1003200008020110408040102040804080080204F4
:100330000180402010020110801020404020000069
:10034000000200090F0000030401000C000000007F
:1003500000000000000000000000000000080B008A
:10036000020202010009040000010202000005244B
:1003700000100105240101010424020605240600E1
:10038000010705810310004009040100020A000072
:100390000007050202400000070583024000000438
:1003A00003090412010002EF0201404123368000DC
:1003B000010102030141726475696E6F204C4C4368
:1003C0000041726475696E6F204C656F6E61726476
:1003D0006F000100000200000300040005174466DE
:1003E00077786F645C5B5F656A6A66615D5C5E61BD
:1003F0006464615E5B5A5B5D5F5F5D5B5958585A30
:100400005B5B5A575655555657575654525252538E
:10041000535352514F4E4E4F50504F4D4C4B4B4CEF
:100420004C4C4B4A4948484849484847454544454B
:100430004545444342414141424241403F3E3E3EA8
:100440003E3E3E3D3C3B3A3B3B3B3A393837373703
:10045000373737363534343434343333323131315D
:100460003131302F2F2E2D2D2D2D2D2C2B2B2A2AB7
:100470002A2A2A292827272727272626252424230E
:1004800023232322222120202020201F1F1E1D1D68
:100490001D1D1D1C1B1B1A1A1A1A1A1918171717BB
:1004A0001717161615141414131313131211111011
:1004B000101010100F0E0E0D0D0D0D0D0C0B0B0A64
:1004C0000A0A0A0A090808070707070606050504B5
:1004D00004040403030202010101010000FFFFFE06
:1004E000FEFEFEFDFDFCFCFBFBFBFBFBFAF9F9F855
:1004F000F8F8F8F8F7F6F6F5F5F5F5F5F4F3F3F2A4
:10050000F2F2F2F2F1F1F0EFEFEFEFEFEEEEEDEDF0
:10051000ECECECECECEBEAEAEAE9E9E9E9E8E7E73C
:10052000E7E7E7E6E6E5E5E4E4E4E4E4E3E2E2E184
:10053000E1E1E1E1E0E0DFDFDEDEDEDEDEDDDCDCCE
:10054000DCDBDCDBDBDADAD9D9D9D9D9D8D8D7D614
:10055000D6D6D6D6D6D5D4D4D3D3D3D3D3D2D2D15C
:10056000D1D1D1D1D0D0CFCECECECECECECDCCCC9F
:10057000CBCBCBCCCBCBCAC9C9C9C9C9C9C8C7C7E2
:10058000C6C6C6C6C6C6C5C4C4C3C4C4C4C3C2C125
:10059000C1C1C1C1C1C1C0BFBEBEBFBFBFBEBDBC66
:1005A000BCBCBCBDBDBCBBBAB9B9BABABABAB9B7A2
:1005B000B7B7B7B8B8B8B6B5B4B4B5B6B6B5B4B2DF
:1005C000B1B1B2B3B4B4B2B0AEAEB0B2B3B2B0AC1B
:1005D000AAAAADB1B4B3AEA7A1A1ADC5EA008F146C
:1005E00011241FBECFEFDAE0DEBFCDBF11E0A0E0E7
:1005F000B1E0E6E5FEE202C005900D92AA3BB1072C
:10060000D9F728E0AAEBB1E001C01D92A83EB207DD
:10061000E1F712E0C0EFD2E004C02197FE010E9492
:100620001C17CF3ED107C9F70E94EF100C94291771
:100630000C940000880F991F880F991FFC01EA5243
:10064000FF4F65917591859194910895CF93DF93B4
:100650001F92CDB7DEB78091D6029091D7028F3F1F
:100660004FEF940761F0FC01E653FD4F4081498351
:1006700001979093D7028093D602898101C08FEFB2
:1006800080930001809100018F3FD1F080910001A3
:1006900090917B0083FB222720F930E045E0220F78
:1006A000331F4A95E1F79F7D292B20937B008770AC
:1006B000806480937C0080917A00806480937A00CB
:1006C0000F90DF91CF91089508952F923F924F920E
:1006D0005F926F927F928F929F92AF92BF92CF92D2
:1006E000DF92EF92FF920F931F93CF93DF9300D08F
:1006F00000D0CDB7DEB7ECECF0E0E4918091D6020B
:100700009091D7028B3091054CF401969093D702CB
:100710008093D602DC01A653BD4FEC93F0E0EE0FC0
:10072000FF1FED53FE4FA081B181EBECF0E024916F
:100730008091D6029091D7028B3091054CF40196AE
:100740009093D7028093D60286539D4FFC0120835D
:10075000E22FF0E0EE0FFF1FED53FE4F408051807F
:1007600080910E0190910F018130910509F475C0BF
:100770008230910509F4D7C0892B09F053C125E0D7
:1007800030E00E9422172FEF33E040E050E00E945B
:100790001B157901EE0CFF1CF701EC56FE4F808112
:1007A00091810C970E941A039C838B8380E390E0D5
:1007B0000E941A03BC01990F880B990B0E94231603
:1007C0002DEC3CEC4CE45EE30E947F150E94EB159F
:1007D0008B01F701E857FE4F808191810C970E94B1
:1007E0001A035C018FE290E00E941A03BC01990F8A
:1007F000880B990B0E9423162DEC3CEC4CE45EE335
:100800000E947F150E94EB154B01F701E458FE4F43
:10081000808191810C970E941A036C018DE290E017
:100820000E941A03BC01990F880B990B0E94231692
:100830002DEC3CEC4CE45EE30E947F150E94EB152E
:100840001B01F701E059FE4F808191810C970E94B6
:100850001A037C0180E390E0D3C025E030E00E94E1
:1008600022172FEF33E040E050E00E941B15790182
:10087000EE0CFF1CF701EC59FE4F808191810C9723
:100880000E941A039C838B8380E390E00E941A03EA
:10089000BC01990F880B990B0E9423162DEC3CECA0
:1008A0004CE45EE30E947F150E94EB158B01F7017B
:1008B000E85AFE4F808191810C970E941A035C01D7
:1008C00087E290E00E941A03BC01990F880B990BF4
:1008D0000E9423162DEC3CEC4CE45EE30E947F1555
:1008E0000E94EB154B01F701E45BFE4F8081918183
:1008F0000C970E941A036C018BE290E00E941A038D
:10090000BC01990F880B990B0E9423162DEC3CEC2F
:100910004CE45EE30E947F150E94EB151B01F7017A
:10092000E05CFE4F65C025E030E00E9422172FEF0B
:1009300033E040E050E00E941B157901EE0CFF1CF3
:10094000F701EC5CFE4F808191810C970E941A03A5
:100950009C838B8382E390E00E941A03BC01990F71
:10096000880B990B0E9423162DEC3CEC4CE45EE3C3
:100970000E947F150E94EB158B01F701E85DFE4F89
:10098000808191810C970E941A035C0180E390E0C2
:100990000E941A03BC01990F880B990B0E94231621
:1009A0002DEC3CEC4CE45EE30E947F150E94EB15BD
:1009B0004B01F701E45EFE4F808191810C970E940C
:1009C0001A036C018DE290E00E941A03BC01990F9A
:1009D000880B990B0E9423162DEC3CEC4CE45EE353
:1009E0000E947F150E94EB151B01F701E05FFE4F8F
:1009F000808191810C970E941A037C018EE290E025
:100A00000E941A03BC01990F880B990B0E942316B0
:100A10002DEC3CEC4CE45EE30E947F150E94EB154C
:100A20007A8369832091D8048091DC049091DD045D
:100A3000A091DE04B091DF04BA2FA92F982F882748
:100A4000820F911DA11DB11D4091180550911905EE
:100A500060911A0570911B0584179507A607B707C3
:100A600008F4ADC28FEF8093ED048093F50480937A
:100A7000FD0481E08093050510920D051092E304BA
:100A80001092E2048091E7049091E8049093E504C9
:100A90008093E404209110053091110540911205D6
:100AA0005091130580E090E0AFEFB0E0BC01CD01C4
:100AB000621B730B840B950B2091E9043091EA04BF
:100AC0004091EB045091EC040E941B1520931405F7
:100AD00030931505409316055093170586EE94E064
:100AE00090930F0580930E0557FE03C0F3E04F0E61
:100AF000511C559447945594479424E1420E511C3F
:100B00005092C2014092C1015092C0014092BF0177
:100B10005092BE014092BD015092BC014092BB0177
:100B2000612C712CF4E07694679457944794FA956D
:100B3000D1F75092E8044092E704E091E004F0918C
:100B4000E104DF01A30192010E943A156093E904D8
:100B50007093EA048093EB049093EC045092F004B9
:100B60004092EF046093F1047093F2048093F304D5
:100B70009093F4045092F8044092F7046093F904BF
:100B80007093FA048093FB049093FC045092000548
:100B90004092FF0460930105709302058093030562
:100BA000909304058FEF9FE09093080580930705CD
:100BB0009F01AFEFBFE00E946F156093090570932E
:100BC0000A0580930B0590930C0586E00E94410E68
:100BD000892B71F480910E0190910F01009719F407
:100BE00082E090E001C0019790930F0180930E0185
:100BF00087E00E94410E892B89F480910E0190912B
:100C00000F018230910529F410920F0110920E010C
:100C100005C0019690930F0180930E0182E00E941F
:100C2000410E892B09F09EC04B815C81CA01052EC3
:100C3000000CAA0BBB0B62E1880F991FAA1FBB1FF8
:100C40006A95D1F78093510290935202A093530278
:100C5000B0935402012E000C220B330B72E1000FF3
:100C6000111F221F331F7A95D1F700934902109369
:100C70004A0220934B0230934C022FB7F8948B8199
:100C80009C8157FF02C0CA0103969595879595955B
:100C90008795092E000CAA0BBB0B31E1880F991F19
:100CA000AA1FBB1F3A95D1F746E0B695A795979531
:100CB00087954A95D1F78093320590933305A09399
:100CC0003405B09335052FBF1FB7F8946B817C8135
:100CD00077FF02C06F5F7F4F75956795072E000CF9
:100CE000880B990B0E94231620E030E040E050E48E
:100CF0000E947F1520E030E040E054E40E94AF16EF
:100D000020E030E040E858E30E94AF1620E030E0F9
:100D100040E857E40E94AF160E94F2156093280540
:100D20007093290580932A0590932B051FBF20916E
:100D3000BF013091C0018091C1019091C201820F29
:100D4000931F2091BB013091BC01820F931F209112
:100D5000BD013091BE0136952795820F931F0E94E9
:100D6000E90F26C0109251021092520210925302C3
:100D7000109254021092490210924A0210924B02B1
:100D800010924C028FB7F8941092320510923305EE
:100D900010923405109235058FBF8FB7F8941092DA
:100DA00028051092290510922A0510922B058FBF55
:100DB00083E00E94410E892B09F041C0C501BB0CA4
:100DC000AA0BBB0BE2E1880F991FAA1FBB1FEA9574
:100DD000D1F78093410290934202A0934302B093D3
:100DE0004402092C000CAA08BB08F2E1880C991CEB
:100DF000AA1CBB1CFA95D1F78092390290923A0254
:100E0000A0923B02B0923C022091BF013091C00100
:100E10008091C1019091C201820F931F2091BB016B
:100E20003091BC01820F931F2091BD013091BE0112
:100E300036952795820F931F0E94E90F10C01092DC
:100E40004102109242021092430210924402109208
:100E5000390210923A0210923B0210923C0284E056
:100E60000E94410E892B09F041C0C601DD0CAA0B7E
:100E7000BB0B52E1880F991FAA1FBB1F5A95D1F7D0
:100E80008093310290933202A0933302B0933402E4
:100E9000C101330CAA0BBB0B62E1880F991FAA1F7B
:100EA000BB1F6A95D1F78093290290932A02A093E1
:100EB0002B02B0932C022091BF013091C001809190
:100EC000C1019091C201820F931F2091BB0130910B
:100ED000BC01820F931F2091BD013091BE01369558
:100EE0002795820F931F0E94E90F10C010923102C4
:100EF00010923202109233021092340210922902A0
:100F000010922A0210922B0210922C0285E00E946D
:100F1000410E892B09F043C0C701FF0CAA0BBB0B84
:100F200022E1880F991FAA1FBB1F2A95D1F7809332
:100F3000210290932202A0932302B0932402E9811C
:100F4000FA81CF01FF0FAA0BBB0B32E1880F991F6B
:100F5000AA1FBB1F3A95D1F78093190290931A02EA
:100F6000A0931B02B0931C022091BF013091C001DD
:100F70008091C1019091C201820F931F2091BB010A
:100F80003091BC01820F931F2091BD013091BE01B1
:100F900036952795820F931F0E94E90F10C010927B
:100FA0002102109222021092230210922402109227
:100FB000190210921A0210921B0210921C02E09168
:100FC0000E05F0910F058081813059F038F08230A4
:100FD00059F0833069F486E095E008C08EEE94E025
:100FE00005C086EF94E002C08EEF94E00E944B10A3
:100FF0002FB7F8948091140590911505A0911605CE
:10100000B09117054091100550911105609112059E
:1010100070911305840F951FA61FB71F80931005AD
:1010200090931105A0931205B09313052FBF8091E3
:10103000100590911105A0911205B0911305A09390
:10104000BA01809100018F3F29F40E94260381E0BC
:10105000809301010F900F900F900F90DF91CF912F
:101060001F910F91FF90EF90DF90CF90BF90AF90C6
:101070009F908F907F906F905F904F903F902F90B8
:10108000089584E08093DC018FEF8093DD0110925E
:10109000FF011092FE011092000285EE8093BC00C9
:1010A000089582E08093DC018FEF8093DD01109240
:1010B000FF018093FE0181E08093000285EE809322
:1010C000BC00089585ED8093BC008091BC0084FD38
:1010D000FCCF8091DC018093DB011092DC018091D8
:1010E000DB01833011F40C9441088091DB018130E5
:1010F00011F40C945108089578941F920F920FB632
:101100000F9211242F933F934F935F936F937F938D
:101110008F939F93AF93BF93EF93FF9310926E00C3
:10112000E0911302F09114020995F8948091120253
:10113000882311F016BCA99A80916E00826080937A
:101140006E00FF91EF91BF91AF919F918F917F9131
:101150006F915F914F913F912F910F900FBE0F9024
:101160001F9018951F920F920FB60F9211242F9374
:101170003F934F935F936F937F938F939F93AF931F
:10118000BF93EF93FF9380910101882341F08091F9
:101190007A00806480937A001092010111C0E0917E
:1011A00000018091780090917900EE0FFF0BED53D4
:1011B000FE4F918380830E94260381E0809301018A
:1011C000FF91EF91BF91AF919F918F917F916F911F
:1011D0005F914F913F912F910F900FBE0F901F90F5
:1011E00018951F920F920FB60F9211242F933F93D1
:1011F0008F939F93AF93BF93EF93FF938091D80406
:10120000E82FF0E0EE0FFF1FE852FD4F2081318103
:101210008F5F8093D804811119C09091DA0481E026
:1012200089278093DA048091DC049091DD04A091F9
:10123000DE04B091DF040196A11DB11D8093DC0492
:101240009093DD04A093DE04B093DF04C901880FFE
:10125000892F881F990B9195809388002F77209371
:101260008A00FF91EF91BF91AF919F918F913F9134
:101270002F910F900FBE0F901F901895FC012FB764
:10128000F89484819581A681B781408151816281E2
:101290007381840F951FA61FB71F80839183A2833C
:1012A000B3832FBF608171818281938108954091C2
:1012B0000C0250910D0220910A0230910B0242174C
:1012C0005307B4F49091E8009570E1F39091E80031
:1012D00092FD19C08093F10080910C0290910D0253
:1012E00001968F739927892B19F48EEF8093E8006C
:1012F00080910C0290910D02019690930D028093C3
:101300000C0281E0089580E00895CF92DF92EF9281
:10131000FF920F931F93CF93DF931F92CDB7DEB74A
:10132000182F062FE42E862F880F8E5F99830E9438
:10133000570983E00E945709F12EC12E9981D92EB9
:101340008C2D8F19801798F4F601E7FE02C0849166
:1013500001C080810E945709182F80E00E94570920
:101360008123FFEFCF1ADF0A8111EACF01C081E0AC
:101370000F90DF91CF911F910F91FF90EF90DF9031
:10138000CF900895DF92EF92FF920F931F93CF9328
:10139000DF93D82E8A017B01E40EF51EEB01CE15FA
:1013A000DF0571F0D7FE03C0FE01849101C0888182
:1013B0000E94570921968111F2CF8FEF9FEF01C054
:1013C000C801DF91CF911F910F91FF90EF90DF90B7
:1013D0000895615030F02091F100FC0120830196C6
:1013E000F8CF289884E6809378020895CF92DF9210
:1013F000EF92FF920F931F93CF93DF936C017A01CB
:101400008B01C0E0D0E0CE15DF0589F0D8016D91E9
:101410008D01D601ED91FC910190F081E02DC60186
:101420000995892B11F47E0102C02196ECCFC701EA
:10143000DF91CF911F910F91FF90EF90DF90CF90B0
:101440000895CF93DF931F92CDB7DEB76983DC0198
:10145000ED91FC910280F381E02D41E050E0BE016E
:101460006F5F7F4F09950F90DF91CF91089583E0D3
:101470008093E9008091F200882319F08AE3809339
:10148000E8000895FC018485958597FD0BC09FB702
:10149000F89482E08093E9008091F2009FBF90E091
:1014A000019608959FB7F89482E08093E9008091B7
:1014B000F2009FBF90E0089590E0FC013197EF307B
:1014C000F105B0F5EA5AFF4F0C941C17809180008B
:1014D0008F7703C0809180008F7D80938000089576
:1014E00080918000877FF9CF84B58F7702C084B563
:1014F0008F7D84BD0895809190008F7707C0809183
:1015000090008F7D03C080919000877F8093900032
:1015100008958091C0008F7703C08091C0008F7DB7
:101520008093C00008958091C200877F8093C2009D
:1015300008950F931F93CF93DF931F92CDB7DEB71C
:1015400082E0898342E450E06DE573E080E80E9428
:10155000C2090E94DB10DC0112960D911C911397B9
:101560000115110569F0D801ED91FC910280F3811C
:10157000E02DBE016F5F7F4FC801099597FF07C03F
:1015800089810F90DF91CF911F910F910895F801FC
:1015900000851185E5CF7F928F929F92AF92BF9287
:1015A000CF92DF92EF92FF920F931F93CF93DF932F
:1015B0006C015B017A0180910D01882309F466C0FA
:1015C00080917902882309F461C08091100280FF24
:1015D00005C08091E00082608093E000E70110E0A8
:1015E0000AEF83E0982E90E4792E2AE3822E20974A
:1015F00009F443C08FB7F8949092E9009091E80005
:1016000095FF06C09091F200272D291B922F01C053
:1016100090E08FBF911105C00150C1F10E94971059
:10162000E6CF292F30E0C217D3070CF49C2F8FB7D9
:10163000F8949092E9002091E80025FF1CC0292F22
:1016400030E0C21BD30BF501915020F04191409343
:10165000F100FACFA20EB31E112319F08092E80018
:1016600009C09091E80095FD06C08092E80011E065
:10167000209709F010E08FBFBACF1111BBCF5D9852
:1016800084E680930E021E141F0444F081E090E073
:10169000F6019383828380E090E001C0C701DF916F
:1016A000CF911F910F91FF90EF90DF90CF90BF905F
:1016B000AF909F908F907F900895CF93DF931F926C
:1016C000CDB7DEB7FC018485958597FD05C02FEF6A
:1016D0003FEF358724870BC0CE0101960E94B110E1
:1016E000019719F4898190E002C08FEF9FEF0F906E
:1016F000DF91CF9108950F931F93CF93DF931F92A4
:10170000CDB7DEB78C01FC018485958597FF0EC0AF
:10171000CE0101960E94B110019719F4298130E0A1
:1017200002C02FEF3FEFF80135872487F801848549
:1017300095850F90DF91CF911F910F9108951F9282
:101740000F920FB60F9211248F939F938091E10017
:101750009091E100937F9093E10083FF0FC010927E
:10176000E90091E09093EB001092EC0092E39093EB
:10177000ED001092790298E09093F00082FF20C073
:1017800093E09093E9009091F200992319F09AE385
:101790009093E80090910E02992339F090910E02F7
:1017A000915090930E02992389F190917802992398
:1017B00039F090917802915090937802992341F1F9
:1017C00084FF10C08091E2008E7E81608093E200F1
:1017D0008091E1008F7E8093E100809110028E7EE7
:1017E000806111C080FF16C08091E2008E7E806112
:1017F0008093E2008091E1008E7E8093E1008091F1
:1018000010028E7E81608093100204C05D9ACDCF5D
:10181000289AD6CF9F918F910F900FBE0F901F9057
:1018200018951F920F920FB60F921124CF92DF924C
:10183000EF92FF920F931F932F933F934F935F93DA
:101840006F937F938F939F93AF93BF93EF93FF9388
:10185000CF93DF93CDB7DEB76C97DEBFCDBF1092CD
:10186000E9008091E80083FFEDC168E0CE01459674
:101870000E94E90982EF8093E8008D8987FF05C007
:101880009091E80090FFFCCF03C09EEF9093E8009A
:10189000982F907609F0C6C09E892F89188D9111D6
:1018A0000CC0803829F4809111028093F10002C0AD
:1018B0001092F1001092F10048C1422F50E0512BDC
:1018C000913051F4811141C14130510509F03DC1C0
:1018D000809111028D7F0BC0933061F4811135C16D
:1018E0004130510509F031C180911102826080932D
:1018F00011022BC1953041F48091E80080FFFCCFAC
:1019000020682093E30021C1963009F05FC0EB8C82
:10191000FC8C1092E90010920D0210920C02123011
:1019200091F510920B0210920A020E94990A99E016
:10193000BE016F5F7F4FDB01E92F1D92EA95E9F74A
:1019400099831A8391E09E8390EA98879AEF99870A
:1019500020910C0230910D02275F3F4F3C832B8377
:101960008D831092E90010920D0210920C02F092F9
:101970000B02E0920A0249E050E080E00E94C209B6
:101980000E94990AE2C0F0920B02E0920A020E94C1
:10199000DB10DC011296ED90FC901397E114F1043A
:1019A00009F4C0C0D701ED91FC910480F581E02DD0
:1019B000BE016B5E7F4FC7010995009719F00CF0CF
:1019C000C4C0C7C0F701E084F184E8CF973009F4C0
:1019D000C0C0983021F481E08093F100B6C0993006
:1019E00009F0B3C0837009F0B4C0E1EAF1E081E02E
:1019F00021E036E39081992361F08093E900209300
:101A0000EB0091919093EC003093ED008F5F873065
:101A100089F78EE78093EA001092EA008F8980931D
:101A2000790293C08B8D9C8D1092E90010920D026B
:101A300010920C0290930B0280930A02898D8111FF
:101A400056C08E899D89913A59F4813209F081C03E
:101A500047E050E066E071E080E00E94C20975C096
:101A6000913209F076C0833289F4888D90E0982F06
:101A700088272F89822BA0E0B0E080930201909309
:101A80000301A0930401B09305015FC0803269F4A3
:101A90008091E80082FFFCCF67E086E091E00E9441
:101AA000E9098BEF8093E80006C0823209F04DC04F
:101AB0008F8980930D0180910F02882319F0EEEF3A
:101AC000FAE002C0E0E0F8E08091060190910701A1
:101AD000A0910801B0910901803B9440A105B10596
:101AE00009F07BC080910D0180FF93C076C00E94F9
:101AF000DB10DC0112960D911C9113970115110555
:101B000041F1D801ED91FC910190F081E02DBE01F1
:101B10006B5E7F4FC8010995811117C0F8010085E0
:101B20001185ECCF113009F44EC0133091F48F8938
:101B3000882309F445C0823081F440E860E181ECFB
:101B400093E00E948509882321F08EEF8093E800BE
:101B500079C081E28093EB0075C0813029F440E8C0
:101B60006BE085EB93E0EDCF833099F70E94DB10BB
:101B7000DC011296ED90FC9013978E010F5F1F4FC2
:101B80006801E114F10479F0D701ED91FC91068030
:101B9000F781E02DB801C7010995080F111DF70164
:101BA000E084F184EECFD8011C92F6010190002070
:101BB000E9F73197BF016C197D0940E0C601C1CF3B
:101BC0006FE973E002C063EA73E06115710509F221
:101BD000FB01449150E080E840CF0FB6F894A895FF
:101BE00080916000886180936000109260000FBE59
:101BF000A895EE3F2AE0F20739F08091FE0A909115
:101C0000FF0A91838083A1CF1092FF0A1092FE0AEF
:101C10009CCFEE3F8AE0F80731F08081918190936C
:101C2000FF0A8093FE0A87E797E7918380839BE012
:101C300088E10FB6F894A895809360000FBE90934A
:101C4000600083CF6C960FB6F894DEBF0FBECDBF99
:101C5000DF91CF91FF91EF91BF91AF919F918F91C4
:101C60007F916F915F914F913F912F911F910F91B4
:101C7000FF90EF90DF90CF900F900FBE0F901F90CE
:101C80001895CF93DF93282F30E0F901E25CFC4FE9
:101C90008491F901E15EFC4FD491F901E050FD4FD0
:101CA000C491CC2391F081110E945C0AEC2FF0E0EA
:101CB000EE0FFF1FEE50FD4FA591B491EC91ED2377
:101CC00081E090E021F480E002C080E090E0DF91CC
:101CD000CF9108951F93CF93DF93282F30E0F90120
:101CE000E25CFC4F8491F901E15EFC4FD491F90173
:101CF000E050FD4FC491CC23C9F0162F81110E94F2
:101D00005C0AEC2FF0E0EE0FFF1FEC51FD4FA591A8
:101D1000B4918FB7F894111105C09C91ED2FE09507
:101D2000E92302C0EC91ED2BEC938FBFDF91CF91B3
:101D30001F910895CF93DF9390E0FC01E15EFC4F8B
:101D40002491FC01E050FD4F8491882361F190E0E3
:101D5000880F991FFC01EA52FD4FC591D491FC01F7
:101D6000EC51FD4FA591B491611109C09FB7F89452
:101D70008881209582238883EC912E230BC06230CA
:101D800061F49FB7F8943881822F809583238883EC
:101D9000EC912E2B2C939FBF06C08FB7F894E8814F
:101DA0002E2B28838FBFDF91CF9108953FB7F894F2
:101DB0008091060290910702A0910802B091090259
:101DC00026B5A89B05C02F3F19F00196A11DB11D96
:101DD0003FBFBA2FA92F982F8827820F911DA11DD1
:101DE000B11DBC01CD0142E0660F771F881F991F0E
:101DF0004A95D1F708951F920F920FB60F921124B2
:101E00002F933F938F939F93AF93BF938091020241
:101E100090910302A0910402B09105023091010259
:101E200023E0230F2D3720F40196A11DB11D05C01D
:101E300026E8230F0296A11DB11D20930102809375
:101E4000020290930302A0930402B09305028091D2
:101E5000060290910702A0910802B0910902019632
:101E6000A11DB11D8093060290930702A093080262
:101E7000B0930902BF91AF919F918F913F912F91A4
:101E80000F900FBE0F901F9018951F920F920FB6D4
:101E90000F9211242F933F934F935F936F937F93F0
:101EA0008F939F93AF93BF93EF93FF938091B9006C
:101EB000887F883221F170F48031F1F030F488238A
:101EC00009F472C08830C1F073C08831C1F080322B
:101ED00051F16EC0803409F44EC028F4803319F1FA
:101EE000883321F165C08035D1F1883509F44FC0C0
:101EF000883409F05DC05AC08091000211C09091F1
:101F0000FF018091FE01981708F050C0E091FF0199
:101F100081E08E0F8093FF01F0E0E252FE4F80815E
:101F20008093BB002EC08093DD0140C08093DD0113
:101F300085EC8093BC008091DC018093DB011092E2
:101F4000DC018091DB01833019F40E94410830C02C
:101F50008091DB01813061F50E94510829C0E09138
:101F6000FF0181E08E0F8093FF018091BB00F0E0C4
:101F7000E252FE4F80839091FF018091FE019817FD
:101F800010F485EC01C085E88093BC0011C0E0919D
:101F9000FF0181E08E0F8093FF018091BB00F0E094
:101FA000E252FE4F808302C01092DD010E9462085F
:101FB000FF91EF91BF91AF919F918F917F916F9121
:101FC0005F914F913F912F910F900FBE0F901F90F7
:101FD00018958F929F92AF92BF92CF92DF92EF921D
:101FE000FF920F931F93CF93DF93C8E1D5E0BC011D
:101FF00080E090E00E942116288539854A855B851E
:102000000E94AF160E94F2156C837D838E839F839E
:102010002091D804C090DC04D090DD04E090DE0470
:10202000F090DF04FE2CED2CDC2CCC244601570173
:10203000820E911CA11CB11CDC01CB01880D991DE5
:10204000AA1DBB1D88839983AA83BB83DF91CF918F
:102050001F910F91FF90EF90DF90CF90BF90AF90C6
:102060009F908F900895BC01009791F0FC01019022
:102070000020E9F73197AF01481B590BE0917A0234
:10208000F0917B020280F381E02D8AE792E00994CF
:1020900080E090E008950F931F93CF93DF93EC01BE
:1020A0008091E2049091E30401969093E30480937D
:1020B000E2042091E4043091E5048217930790F143
:1020C0001092E3041092E20489819A819093E504CE
:1020D0008093E404009110051091110520911205E0
:1020E000309113056F81862F90E0A0E0B0E0DC0115
:1020F00099278827BC01CD01601B710B820B930BC4
:102100002B813C814D815E810E941B15209314051B
:10211000309315054093160550931705D0930F057E
:10212000C0930E05DF91CF911F910F910895CF922B
:10213000DF92EF92FF920E94D60E6B017C010E940B
:10214000D60EDC01CB018C199D09AE09BF09883E72
:102150009340A105B10598F3FF90EF90DF90CF90E9
:102160000895FC0180917902811103C08FEF9FEFE8
:1021700008959FB7F89482E08093E9002091F200DF
:1021800030E01216130614F421E030E02115310579
:1021900059F0289884E6809378028091F10080833A
:1021A0008091F200882319F09FBFC90108958BE642
:1021B0008093E800F9CF80913C0581110DC082E049
:1021C0008093380584E08093390510923B05109286
:1021D0003A0581E080933C0588E395E00895CF932C
:1021E000DF93CDB7DEB7A1970FB6F894DEBF0FBE71
:1021F000CDBF789484B5826084BD84B5816084BD90
:1022000085B5826085BD85B5816085BD80916E0094
:10221000816080936E0010928100809181008260C5
:102220008093810080918100816080938100809102
:102230008000816080938000809191008260809313
:102240009100809191008160809391008091900035
:102250008160809390008091C10084608093C10070
:102260008091C10082608093C1008091C100816033
:102270008093C1008091C30081608093C3008091EE
:10228000C00082608093C0008091C2008160809312
:10229000C20080917A00846080937A0080917A00F5
:1022A000826080937A0080917A00816080937A00C6
:1022B00080917A00806880937A001092790210925F
:1022C0001102109210028091D70081608093D70094
:1022D00080EA8093D80089B5806189BD89B5826024
:1022E00089BD09B400FEFDCF0E9497108091D800EF
:1022F0008F7C80618093D8008091E000807F809304
:10230000E0008091E1008E7E8093E1008DE080937B
:10231000E200559A209AEEEFFFE7859194918B3F6A
:102320009C4D19F481E080930F0261E085E10E94E9
:102330009A0E61E085E10E946A0E80E090E0ACEDCB
:10234000B0E08093510290935202A0935302B09355
:1023500054024DEC5CEC6CED70E0409349025093FC
:102360004A0260934B0270934C0280934102909317
:102370004202A0934302B0934402809339029093A7
:102380003A02A0933B02B0933C02809331029093B7
:102390003202A0933302B0933402809329029093C7
:1023A0002A02A0932B02B0932C02809321029093D7
:1023B0002202A0932302B0932402809319029093E7
:1023C0001A02A0931B02B0931C0220E030E048E404
:1023D00053E4609120057091210580912205909130
:1023E00023050E94AF160E94F21560931C0570939E
:1023F0001D0580931E0590931F0580917A008860CB
:1024000080937A0080917A00846080937A00809132
:102410007A008D7F80937A0080917A008E7F8093FE
:102420007A0080E090E061E070E040917E009B01E6
:10243000082E01C0220F0A94EAF7242B20937E0075
:1024400001968C30910589F784B58093770285B524
:102450008093760287B58093750280916E00809399
:10246000740285E693E09093140280931302109215
:10247000120280E090E040E950ED63E070E0FC0182
:10248000EE52FC4FE491EE2389F06A017B01082EA5
:1024900004C0F694E794D794C7940A94D2F731E035
:1024A000C316D306E104F10408F419C201968B3077
:1024B000910529F780916E00826080936E0084B54B
:1024C0008093730285B58093720287B58093710201
:1024D00080916E00809370028091800080935802FA
:1024E00080918100809357028091880090918900AB
:1024F0008093560280916F008093550261E089E0DD
:102500000E949A0E61E08AE00E949A0E10926B027D
:1025100098E190936C0282E080936D029093810029
:102520008093800080E890E0A0E0B0E021E020937C
:10253000680290936702809366029093870080936D
:10254000860089E18093810061E089E00E949A0E13
:102550009091800080916D02892B8068809380002B
:1025600010928900109288009091680280916C020C
:10257000892B8093810061E08AE00E949A0E9091FD
:10258000800080916D02892B806280938000109280
:102590008B0010928A009091680280916C02892BC6
:1025A000809381008091800080935C028091810003
:1025B00080935B02809188009091890080935A02F9
:1025C00080916F00809359028091C00080935F02D8
:1025D0008091C10080935F028091C20080935F026E
:1025E0008091C30080935F028091C40080935F025A
:1025F0008091D10080935E028091720080935D0291
:1026000019A286E388A387E38F8F89E38E8FCE019B
:102610004E960E94331087EB91E00E94331081E0C8
:1026200090E021E030E040E050E0CC24D22EE32ED8
:10263000F42E60EDC61663E0D606E104F10450F016
:10264000B82E60ED73E080E090E00E944D151FEF22
:10265000120F08C0220F331F441F551F01968131EE
:10266000910519F71092C0001092C1001092C2009B
:102670001092C3001092C4001092BF001092BE00CE
:102680001093D100B092C10080916202811180E468
:102690008093720084E693E09093610280936002DD
:1026A00080E48093720091E09093620280937200C4
:1026B0008091C000809365028091C1008093650283
:1026C0008091C200809365028091C300809365026F
:1026D0008091C400809365028091D1008093640250
:1026E000809172008093630281E090E090930F01EB
:1026F00080930E0162E082E00E949A0E62E083E025
:102700000E949A0E62E084E00E949A0E62E085E0E8
:102710000E949A0E62E086E00E949A0E62E087E0D4
:102720000E949A0E61E08DE00E949A0E61E088E0BE
:102730000E949A0E61E088E00E946A0E60E088E0E4
:102740000E946A0E61E088E00E946A0E60E088E004
:102750000E946A0E61E088E00E946A0E60E088E0F4
:102760000E946A0E61E088E00E946A0E01E040E08B
:10277000C42E40E0D42E9091D9048091D8049813AF
:1027800006C09091DB048091DA049813A1C08DE417
:1027900092E00E943E09792E85E492E00E943E0973
:1027A000192F8DE392E00E943E09992E85E392E075
:1027B0000E943E09A92E8DE292E00E943E09B92EA8
:1027C00085E292E00E943E09E92E8DE192E00E94AE
:1027D0003E09F92E85E192E00E943E09292F3FB77C
:1027E000F8948091140590911505A0911605B0916B
:1027F00017054091100550911105609112057091D7
:102800001305840F951FA61FB71F80931005909383
:102810001105A0931205B09313053FBF209010053A
:102820003090110540901205509013054091D90445
:10283000E42FF0E0EE0FFF1FE852FD4F30E8370DB8
:1028400080E8810F082E000C990B830F911D37FD36
:102850009A9530E8390D830F911D37FD9A9530E830
:102860003A0DDC01A30FB11D37FDBA9580E88B0D41
:10287000A80FB11D87FDBA9580E88E0DA80FB11D78
:1028800087FDBA9580E88F0DA80FB11D87FDBA9519
:102890002058A20FB11D27FDBA95242D30E00E94CB
:1028A0002217DC01CB0125E0B595A7959795879573
:1028B0002A95D1F7BC01705E718360834F5F4093AE
:1028C000D904411105C08091DB0480278093DB048B
:1028D000C114D10409F44FCF0E9400004CCFA1E0F5
:1028E000B0E002C0AA0FBB1F8A95E2F7A7019601CC
:1028F0000E944515DC01CB0134E0B595A79597956D
:1029000087953A95D1F790936F0280936E0210925B
:102910006E0082E084BDE5BDCA94C7BCCBCDEAE7BA
:10292000F2E01382128288EE93E0A0E0B0E08483AC
:102930009583A683B7838BEA91E0918380838FEFA1
:102940009FEF958784879093D7028093D602109249
:10295000D8041092D9041092DA041092DB048DEDA1
:1029600093E0909337058093360590932D058093DF
:102970002C05E8E5F5E085E280838FE7818382839B
:1029800085E583831092DD051092DC051092E10647
:102990001092E0061092E5081092E40885E790E0B6
:1029A0009093E3068093E2068FEF90E09093E70820
:1029B0008093E608E8E1F5E08FE692E1A3E8B1E470
:1029C00080879187A287B387148215821682178227
:1029D000E0EEF4E080E091E091838083168281E074
:1029E000868782E0868B83E0868F84E086A315A2AB
:1029F000EEE4F5E0118210828FEF93E093838283FF
:102A00001582148222E030E03783268325E030E00F
:102A100031872087E4E4F5E011821082938382837A
:102A20001582148281E090E09783868384E090E0B1
:102A3000918780870895052E97FB1EF400940E94CD
:102A4000321557FD07D00E944D1507FC03D04EF4F8
:102A50000C94321550954095309521953F4F4F4F2E
:102A60005F4F089590958095709561957F4F8F4F3A
:102A70009F4F08950E946F15A59F900DB49F900DD4
:102A8000A49F800D911D11240895B7FF0C943A1551
:102A90000E943A15821B930B0895A1E21A2EAA1BDD
:102AA000BB1BFD010DC0AA1FBB1FEE1FFF1FA217FE
:102AB000B307E407F50720F0A21BB30BE40BF50BFB
:102AC000661F771F881F991F1A9469F76095709584
:102AD000809590959B01AC01BD01CF010895A29F07
:102AE000B001B39FC001A39F700D811D1124911DE2
:102AF000B29F700D811D1124911D08955058BB2760
:102B0000AA270E9496150C9475160E94671638F035
:102B10000E946E1620F039F49F3F19F426F40C94AD
:102B200064160EF4E095E7FB0C945E16E92F0E9404
:102B3000861658F3BA17620773078407950720F0C3
:102B400079F4A6F50C94A8160EF4E0950B2EBA2F86
:102B5000A02D0B01B90190010C01CA01A0011124A3
:102B6000FF27591B99F0593F50F4503E68F11A164F
:102B7000F040A22F232F342F4427585FF3CF4695E0
:102B800037952795A795F0405395C9F77EF41F1602
:102B9000BA0B620B730B840BBAF09150A1F0FF0FCC
:102BA000BB1F661F771F881FC2F70EC0BA0F621FB8
:102BB000731F841F48F4879577956795B795F795A8
:102BC0009E3F08F0B0CF9395880F08F09927EE0F3D
:102BD0009795879508950E94F2156894B1110C9409
:102BE000A91608950E948E1688F09F5798F0B92F65
:102BF0009927B751B0F0E1F0660F771F881F991F32
:102C00001AF0BA95C9F714C0B13091F00E94A81615
:102C1000B1E008950C94A816672F782F8827B85F25
:102C200039F0B93FCCF3869577956795B395D9F789
:102C30003EF490958095709561957F4F8F4F9F4F93
:102C40000895E89409C097FB3EF49095809570959F
:102C500061957F4F8F4F9F4F9923A9F0F92F96E9E8
:102C6000BB279395F695879577956795B795F1115D
:102C7000F8CFFAF4BB0F11F460FF1BC06F5F7F4FFA
:102C80008F4F9F4F16C0882311F096E911C077230C
:102C900021F09EE8872F762F05C0662371F096E815
:102CA000862F70E060E02AF09A95660F771F881FE4
:102CB000DAF7880F9695879597F9089597F99F67A2
:102CC00080E870E060E008959FEF80EC08950024B4
:102CD0000A941616170618060906089500240A9481
:102CE00012161306140605060895092E0394000C07
:102CF00011F4882352F0BB0F40F4BF2B11F460FF96
:102D000004C06F5F7F4F8F4F9F4F089557FD9058BE
:102D1000440F551F59F05F3F71F04795880F97FB9F
:102D2000991F61F09F3F79F0879508951216130659
:102D30001406551FF2CF4695F1DF08C01616170688
:102D40001806991FF1CF86957105610508940895BD
:102D5000E894BB2766277727CB0197F908950E944F
:102D6000C2160C9475160E94671638F00E946E16F3
:102D700020F0952311F00C945E160C946416112427
:102D80000C94A9160E94861670F3959FC1F3950FB7
:102D900050E0551F629FF001729FBB27F00DB11DDF
:102DA000639FAA27F00DB11DAA1F649F6627B00D6F
:102DB000A11D661F829F2227B00DA11D621F739F58
:102DC000B00DA11D621F839FA00D611D221F749F66
:102DD0003327A00D611D231F849F600D211D822FAD
:102DE000762F6A2F11249F5750409AF0F1F08823D4
:102DF0004AF0EE0FFF1FBB1F661F771F881F915001
:102E00005040A9F79E3F510580F00C945E160C943B
:102E1000A9165F3FE4F3983ED4F3869577956795BE
:102E2000B795F795E7959F5FC1F7FE2B880F911D2A
:102E30009695879597F90895EE0FFF1F0590F491E9
:102E4000E02D09940E946F15B7FF0895821B930B24
:062E50000895F894FFCF85
:102E5600FF01FFFFFFFF00E100000000000001008E
:102E660035003A003E00410041004100340039007F
:102E76003C0040004000400037003C00400043005A
:102E86004300430039003E0041004500450045002F
:102E960046004A004D0052005200520043004600D0
:102EA6004A004D004D004D003F00410046004A00DB
:102EB6004A004A0048004B004D00520052005200A2
:102EC600450048004C0051005100510045004A00A1
:102ED6004D0051005100510047004C004F00530077
:102EE6005300530048004C004F0054005400540057
:102EF60000C1808100000000000000210ACB0A42C8
:0A2F06000A5D0B7B0B370A0D0A0071
:00000001FF
