:100000000C941A100C9442100C9442100C94421050
:100010000C9442100C9442100C9442100C94421018
:100020000C9442100C9442100C948C120C94FE12FE
:100030000C9442100C9442100C9442100C944210F8
:100040000C9442100C9442100C9442100C944210E8
:100050000C9442100C94571A0C9442100C94E8150E
:100060000C9442100C9442100C9442100C944210C8
:100070000C9442100C948D1A0C9442100C94421063
:100080000C9442100C9442100C9442100C944210A8
:100090000C9432160C9442100C94CC1A0C9442100E
:1000A0000C9442100C9442100C9442106111641193
:1000B000531157115D1185118511851168116C114E
:1000C000701176117A118511801100000000240052
:1000D00027002A002D003000000000002500280025
:1000E0002B002E0031000000000023002600290014
:1000F0002C002F000404040404030405020202027D
:1001000004030202020206060606060604040202B0
:100110000204040408020110408040102040804086
:10012000800802040180402010020110801020404D
:1001300040200000000200090F0000030401000C31
:1001400000000000000000000000000000000000AF
:1001500000080B0002020201000904000001020273
:1001600000000524001001052401010104240206F9
:100170000524060001070581031000400904010061
:10018000020A000000070502024000000705830282
:100190004000000403090412010002EF0201404183
:1001A00023368000010102030141726475696E6F9C
:1001B000204C4C430041726475696E6F204C656F32
:1001C0006E6172646F00070605040100080A0B0CDB
:1001D0000D0901000002000003000400051A34109C
:1001E000BEA1BF0A4B5C585A55555126CA9CA8BFA0
:1001F0000749FF9DA2ADD3476350542CCAA2A8A5BE
:10020000A4A7A4A5ADCA15595D42EEA0A8B1B1DA64
:10021000123949524C3D4C4E2C131D46552FF2F5C8
:10022000335D55444C575450564B4E4845413D2B39
:100230001B213A352D35292412E4BCB5A7A4B4AC52
:10024000A2ADACA0A1A0A1B8114EF59F9EA2A0A303
:10025000A6B4E510EFD50405A2A0ACA5D0305F5B35
:100260005638EFC2B1A4ACAEB0C3CCBBC1FD48554B
:10027000565E4FF6B1D1223F3A4F615841F0B32557
:10028000664E4B3F395B37D4A8ACD83B622BEDB5FB
:10029000B0F02C565844454418BCC7201DFF2E1FF3
:1002A0002856412207E61B3A16010900BEC32F2932
:1002B000BBBAD2A39FAFDC3E5A3C433F03C7ACEA74
:1002C000EDA1A6F5292B1DEAAA9FA4B9C7B6AFAF29
:1002D000A9055E4B3F5D4E464F341BF3AF9FA5AA69
:1002E000DE475A53564B49471CC5A0B5EF35594A0E
:1002F00026F7D7F92A4B4D15BD9CBA10564514ED7B
:10030000EF1E394A46220FFC1D23FCDFFE2B382945
:1003100013FD052F321C09F911F8A19DACA5A2AE61
:10032000CAC4FE01D6171AA79DA39EA3A2A4A1A288
:10033000A2A4A9C5ECF3EF08E7A7D83D572CD9B57F
:10034000B5D51E26CDA5D904301EDAFD18130BEA4B
:10035000FBEFBBE0345D625D605C5D5D5F5D5E5CDC
:10036000562CD0A0BCEC1C3A565F555633D6A2A9E9
:10037000C4EB0B00FFFD0A505D3708D6A7A1A9B555
:10038000F25054271E170AD8A6A5CCDFEBC9ABA79D
:10039000AFAEB5BABECDE7FB0C03D7C1C9CCF032C6
:1003A0005A3E31615F565728DD0628FB302EFE4548
:1003B0006438F4B5C800313C3754615D605D5D4818
:1003C0000ED6D9F01004105B60515C523D2C302EDB
:1003D0001DEAC9F724F3D9E706221AF2E7E9D2A900
:1003E0009EA6A2A3A5A5A6AFD005140B0CD3A0B3BF
:1003F000B2ADBDB9C6FE404919EAD2F1252309F1D3
:10040000D2BFC4D2EF416339D7B5DCE0FE06E5DCEC
:100410000E5A6134E5E2343F1BDCDB08485B1DB655
:10042000C7D8D0235D582220605D1CCAC7F8EEF4FF
:10043000F0C9B8E6F21A0EDFD6CEC4D7D4D3D7D7D8
:10044000E514411FDCD4E0DDE2ED1050603BEECB63
:10045000E4DEE5EAE4E8EEF2F6EFEBF1FA0C16F48E
:10046000EB00062D57595D5B3A07E6EB042B5C5B0E
:100470004621E3DBF3EAE8F3F5245A6158320A3601
:100480002E1C452F112922FE11462FD4CBD7CCE1AB
:10049000FE3B6152321CE4C0D6DBF340541FEADA63
:1004A000C5CBD9D0EE285C47FBD4CDDE0C12DCD016
:1004B00001FAD0D2DCCFD9DFE40406E3D5E6DAE0F6
:1004C000E7E0E5EAFB2B4A15DCEAF3FBFFEA053738
:1004D000443926F7CEEFECE0F3E3E7EAEAEBF3FE8C
:1004E0000E0AF10F54625E5C2DEA074C5B5612D186
:1004F000D7D5D0E0D7D8E0F10C220DE8D5D8E40666
:100500003C555A605E3DE3C2DBD0FC4943FDCFC29F
:10051000C3CBCCD2F02D5B461D1140604AFAB7AE7A
:10052000BBBEC5DBFEFFC3BCE4034B5D514B3F4587
:10053000551BC4E630423A24F9B5A3B5B0B0C702A2
:10054000505D27CAA1B5CA09463516274157501A2A
:10055000DEE5050C172F2D0CE7F0080B2621F1F036
:10056000C7A1A6A7AAD91512F2C8A4C7040D101ACC
:10057000D4A4BAEE0700E2DAFD171B242D3334169B
:10058000CDA6AAB6CAD2FB312700C0A4AAAAABC77F
:1005900001201A231EEBAFABC4FC3D503F3215DEE9
:1005A000E1F2ED0C433B303414F8F6050EFCD0AC10
:1005B000AAADBBE7E1D2F8070D32382B2F2822294C
:1005C0002420221C1810F1C5B5B8BEE201C9ABB495
:1005D000D3142B15F7E8EDDBBFEA1F06EFD6B2B058
:1005E000B5D01B2D151D1C131E1917160EF6D3C1E1
:1005F000D1CDCC0812E1DCF309191001E4CAD1C64F
:10060000B0B2B4C9152F0A0AEEE111251618180563
:10061000FADDDF0104041710090DF6CFB5C100247F
:1006200007FDD5B4CDEDF3EDF4F2091B0D00E3CADF
:10063000F91C0A0E13F9F9FAE7E20611060CF9DFC4
:10064000D4C5C9F50A0517100811FAD0B8BABDDB30
:100650001921111203E3CED4F301EDE10F25131C90
:100660001B0D06EADFEFE0C4E00E13F9E5FE1F21E3
:100670001B1F1714100A0E0F04F8DBC3D6EAF8127A
:10068000170B0BE4BDC5F2161A1E180D0406202028
:100690001C1E171014171807F2D4C3C6D4D1D3E008
:1006A000E5FC08F2F1051E220E041A2C2423250F66
:1006B000FCE5D9CBC6D1DBEF0512131907DAC8F474
:1006C0002A2E11F1E4061F2A35312B2E2B2A291D43
:1006D000F8C9C5CBD6072C04D2E9110AE3C8CFF676
:1006E00028373033332F2921242F18FF040AFBE346
:1006F000E3F3F503191C151F2C323021F8CECCD0B2
:10070000DB041909F3EEF8153233230CF9E9E60C92
:100710002A2A2D28201CF3DBE9F0E9E7D7D5F10CD4
:100720001E2E302F28100B16131F1EF3E0E0E2F8E8
:10073000F9DBDAECF80D202005F405161D1A202E41
:100740002F2E2A24282C281F1C2524160B04FDEFED
:10075000E7F2F7EDEAE2DDE5EFFF0CFEE6DFEBF8AE
:10076000111D0C0D1618292C2A2806DFF6242B2B18
:100770002A281A0B03F9F2F4F9030402FFFBF8022A
:1007800011171B0EEADDEAEF032425211C141106C4
:10079000F90517100C07031518FAE7E9F600FF0929
:1007A0001B201801FC1C242016FEF2FD0A09FFF490
:1007B000EBE8EAECF1F5F9040D0B03060E0F090A5C
:1007C0000D0900FF0605FE081309F9FE1115161F95
:1007D0001F1A1003F5ECECE9ECEFEDECF3F7F8FE83
:1007E00005020B1C1801F4F0EEF300141C140D0BA1
:1007F00001F0EEF0F300161A180DF6F0F4F1F7FC24
:10080000FF0D1903E7EDF1F42F6429B9B0F73511A5
:10081000F4E3ABD7536938BD98C622403F50F99BEB
:10082000AAF3505A1F94B84B45C9B5FF1437451267
:10083000DAE13B3CAB94D6582AFBCADC205F4FF68A
:10084000AFF4FFF42CE894EE6BD2943D6966099402
:10085000953F6B26B4A4D4E9234F064835CE9AB60B
:10086000FC6952FD95962A6B65CD95B42F604FC4F7
:10087000ACDED9D803475548F197043ED0D70F478F
:1008800036B496024F2CAEF96BF4A927CAB0F156D4
:1008900039365F9F94FE6610D92108E1222CD5AB32
:1008A000FF4DF51D2DFC94BB4F25F20EF8040FAC47
:1008B000EE603FCEBC0942249794D86B6AC6D6C47A
:1008C000B5215FF3B70F4AA3254EFCB8CE29FC1221
:1008D0006A679496DE616B0994AC5860FEBEF12F96
:1008E0001AF3F7F0080AEAE41B3700FBCE161EB233
:1008F000D35158CDB6F1063E13C7EE5F08A8B655E2
:100900000AAB3C45DFBCBCFF6B4C95A40D383FD710
:10091000ED07DCF54418E1D8C112171F0BE1020AFC
:100920000FD4D26613A7D7EB4B3CC6CB044E43A4DF
:1009300095496BF5A1D5E32C2A98F7502E33B7E8EB
:100940000CDBD3595C9DA2FE3051F8BBCB30640B5D
:100950009EDE352AF2ECEA211503BEE62C251AC7E5
:10096000E73B189FD36732FBD6CFFE2220F7DEEBA2
:10097000E43630AECE6A36A618DAC5132A2325D45B
:10098000C511201402BDD51C3826D8AA174D0FC793
:10099000F8480AB8B60B2D2A14DDD1FF2F1EC0E788
:1009A000330EEFDDE250249FC66558CDB8E306371D
:1009B0000CCF1A1EC5F636DCF734F4E8170005FB39
:1009C000C6D9373105FDF0F4EBDB274406D2B1FD83
:1009D0005A2FD5CCF5001D23F1E8E6F71B4CFDBEE0
:1009E000E8E3095214CBB93426141BAFD12518DE25
:1009F0000125071EE5BF0A2D0EECD8EFFC065C2191
:100A0000A3CB2D4B0FA6BD154D1EFAE2E7EC182C1B
:100A1000FDB5E71D1E170AEDE00C30FDDDCBF43807
:100A20002CE302F91020ADCD182B17FB1EF9C7F0EF
:100A3000160B1D16ABDC564DCFA0E94144F2D2D9BE
:100A4000EA11482BC7BA093602F908D9000F060780
:100A5000080EE6BD0F4D05D1EE0F15F4FB1FECDDC2
:100A6000F81F00FC1AF7E3051DF0D5FD4A18CEBAB1
:100A70000D491FD3CE091BFE03F2E0470DBC0F1C2E
:100A8000EF05E7E12A39E7C3130DE90C0CF0DA1999
:100A90003C16DDCDF22806FBFEECF80D0806F51736
:100AA0000FC0F720051DFEDBE21810021CE0D9057F
:100AB000170D0600FD0DFACEF43C0DDCE6FD111716
:100AC00017DC001FECCC064107DCF90901D9FF3522
:100AD00007DDFCFF1B14E4E308F10E08FD1A04E037
:100AE00005F1041DE1F224FEDE0A0B1A10D9ECF424
:100AF000F5162E02D3EF111FE80BFFDBE51A4AFEB5
:100B0000C3EC181E02E3EEFD2508E4EE160BEFFF22
:100B1000F7FC1B1CE7F1F7F623F4E5150308F3D304
:100B20001541FEDFE3010B0104FEFD030E03F3E8B4
:100B3000FE10FEFEFD1D1FDBD9FD1418EA0909DFBA
:100B40000708FD03F30A17ECEA0C15FCF501FDF0AC
:100B50000E16F7EBE10F1C170BDCD715080C09DF9D
:100B600008F70A2100DFF9F11A03FA070BEBEEF799
:100B70001219FBF205FBFE040BE9F5160FF3E9046D
:100B800016F7E801100606FFEA15FE00FAF9FEFE68
:100B90000307FCFAF1092EE9DF0B0615EBF8040256
:100BA000F2040805FE0F09EFE8FD070D08F10AF34E
:100BB000F60EFBF1FE0E13FA01FFF403FAF508003E
:100BC000031DF7D60B0619F0E7041513ECF011F42A
:100BD000010CF1FD19F5FCEFFC100404EA0212FF10
:100BE000F3F5F91410F4FA0805FCEFFFFEFA170408
:100BF000F9F7F611FDF1FD05070BF10405EE050807
:100C000006F3F10B1EF5E7FB0F0AF5FFF7FF13FCE8
:100C1000FAFDF90A05F6FBF90B0DF4FB0209EEECFF
:100C2000EEDF286FDCFF29A257467FB690571CD80D
:100C3000CE1AD4D51B5C92D77A3BAEA1902722471F
:100C40002D80F59B804A20277F7F1A9C8CEC0FFC1F
:100C5000B280BD1F7F1FCE2E214E1F7F7F24E92E25
:100C60007F7F011322AB8080A404180C7F7F523356
:100C7000FB607F6F08DEF5B4808080D9DE0F4A6CA0
:100C80007F396B7F7F524D098080808080CDB3BFDC
:100C900046327F7F7F7F6B7FD380809D9D8080A445
:100CA00080D4384A7F7A7F7F7F5C52DC8DE38280FC
:100CB00080A280147F7F627F7F5D7F54E880D78F22
:100CC0008089B480F37F417F7C7F7F557760973345
:100CD00080BCFF80F1A39A15F378785C7F0F3CD439
:100CE0002B328080CB84AA28801460C9C9303DE7AC
:100CF0007E1304FE80D6A0D0B0B91AF932EAD17FB3
:100D0000291E67E0BE2F8F8DE8E9DADA01DBF9BA38
:100D10007FEDCD4B29AA027BA3A704CD8D0A321209
:100D2000C11462390262F680E337380221A1AA5F5A
:100D3000FE47C2D7246836DC4E8008B5D334B926C6
:100D4000EDE811E10B23F44A4440CAF35180142723
:100D5000808ADD25E75A29E5240F59DE0E1EE72794
:100D6000EACD9FA201482012B6E220556A0B6B44DF
:100D70009AC6E5AEE9AEEE39DEB2FA3F671F0976F4
:100D800035F1C205C0B94CC698BE0654D72F48D518
:100D900025534405F2F50BE7A09DCC2BE424F60F78
:100DA00060C94F322E09E235E9BFD0ECDAB2002932
:100DB000F3E638541B2BDC09FC160BEBE7AB09E41C
:100DC000FC32ECFE10F4F718100E3805F42EF3DDAB
:100DD000F1C8CEED1CF83008F721E701112A23F500
:100DE000FFFDDADBF2E6F33008D9DE1B1E2B0CF533
:100DF0000D1C0C19F7CCF0D9E9E4FEF6FA161C1814
:100E00001F1414F2EFF11627F5EABAEBF50008FF0C
:100E1000061A06190EFD25F3F9040DE6DDDCF1F3E3
:100E2000071C070D0021ECF923FE0A10ECD6D50DA6
:100E300003ECF9ED1B38FF083107FEEADCFE0BE19D
:100E4000EAE00205E60F221E0C10FA0D0D06EDE495
:100E5000FCEDEDFB0FDEE4102D29EAFC2013F80C6D
:100E6000FBEAEFE1EFF0F1FC09132015FE140BECA7
:100E7000030401E7EAF8EB12F9E10F0617090F1373
:100E80000312E9FBE7FAF8EDF6FB10FC1202030986
:100E90000E01F41003EFFEFAEAEA0010040EF4FF6C
:100EA00010F11F030110EBFBE4FB01FBFAF104FD61
:100EB00016150108F6FD0BFFF6F508FDF6F2FC022B
:100EC000FE1206F9F70A10F50703F20AF2FBFFF229
:100ED00000FD010511FD0107F90800F807F4FBFA10
:100EE000FB14F2F1040BFEFE09ED1CE50BEF38DFFD
:100EF000F34F8E72C30146A0E14360DE03B6DD2CE2
:100F0000F6F0DD9DA0197F717F443C31BCC8AC84F4
:100F10008C2E4CDC3F2586BE0740340722F0395228
:100F2000F8E7B48296F82B30099888A3B6EEEAF772
:100F3000567C3AC2B30E56525E460920E1BCCCBF85
:100F400096858A8397AAC0BEEDDFBED5FCF40BDC84
:100F5000E8F4D331215847493A2431374B3E4A45CA
:100F600059646B6069776B6A785F6D734F4B3B2098
:100F700000ECEDD3D3CDCABEC3BA919795908E86BF
:100F800087878891889B94B7B2D8DAC61009021F68
:100F9000393B5E5E6F7577797779777A777A777A8A
:100FA0007779777977797779706F60524D38271430
:100FB0001408F4E7E2CCC9C6AFAF9F8E88918C903D
:100FC0008B858B8F9D88868B91939CBAC6C9DFEFEA
:100FD000F5FA0911131A1D23222828252427271C76
:100FE0002B26182019140A04F7FDEDEEE8D2D8C715
:100FF000C0B8B4A89C96918687878787868886879D
:10100000868886888687868787878788898B8B8866
:10101000929BA0AAAFADB9C0CECBD4DEE4EBE9F68B
:10102000FC06101B14242D2B484B3E5C5A5E756E3B
:101030006769666B77747570716D6C676C5F6B69EF
:101040006266545F5650524B3B48503F3B402E32F5
:101050002926251C1F19FF0509E7FEE9E9ECE3DA5B
:10106000DCE0D1D2CECEC8D4C7C3CCC2CAD0D3D391
:10107000D0D9CFD8D9DFDFE3E5E0ECE5F2F5F3FA3C
:1010800000FAFF02010B0D101A1C1D1F24272C3221
:101090002B403D413C45454254494E4E58505963C2
:1010A000555B70655E6D6B7074767376777574766C
:1010B00073727474706F6E65656B635B5F59554EC8
:1010C000534D4747423F373B312F262727171D1BDC
:1010D00014120F02020200FAF2F1EBEAE4E0DED6AB
:1010E000CFCBC4BFBDB8B0AAA9AAA1989998958B37
:1010F0008B8987898987868787878687868786877A
:1011000086878687868786878687878788878B896D
:10111000888B8E8E92919C9D97A2A3ABB6B6BBC4D2
:10112000C5CBD8DBE2E9F1EFEF01060B0F120F118F
:101130001C1F29262E3435353D4D4C54515B696EAC
:101140006C6D737378767875767571727473737469
:10115000726F706E6E6F6C6B6B6B605E64605C5414
:1011600055534A4546434044302B2C24201D140B34
:10117000080600FBFAF3EFE7E8E4E0DFD7D5D0D2CA
:10118000C9C2BAB3AFABAC9E989290918B8B898950
:10119000888687888687898787878989878B8D8CCA
:1011A0008C9094929597949A9A9D9EA1A8ABAFAE7D
:1011B000B7B8C2C5C8D1CED8E0E4E9EDF4F7FA0378
:1011C00006060E110E181C212026322E3A3A4144F2
:1011D0004D4C505F5865696D6F717476777879788A
:1011E0007978797879787978797879787878787879
:1011F0007878787878787878787978787877747675
:10120000716A6A69605F5C57534C4A4443403A34A0
:10121000312D2924252018180E0B0C070501FDF788
:10122000F4F4EFE9E3E2DED5CFCEC9C4BCB7B4B382
:10123000ABA7A7A3A3A39E939697918E8E8D8A8B1F
:101240008B8687888786878787878787878787872B
:10125000878787878787878787878787878787881D
:1012600087898B8A8B8D908F919494999A9B9C9E61
:10127000A8A5A7ACB0B1B6BBB3BEC3C2C8CFD1D1CD
:10128000DAD8DCE0E3E4E5E8ECEFF4F9F4F70000A9
:10129000000405080A1111161B1D171C23252B2AF3
:1012A0002E2C333335333D3E3F4442484B514F5350
:1012B0005657585A5A5D616566696B6C71707272E7
:1012C00073737778777878787879787978797879A6
:1012D000787978787878787878787978797879778B
:1012E0007976777675737272706C696B64665E5E20
:1012F0005A5856504F4846423E3D3B37332C332ACE
:101300002724221D191B17130F0D0C080302FCFDC7
:10131000F9FAF7F1EDEAE5DEDDDAD4D1CECAC6C3DB
:10132000C2BBB7B8B4B0AEACACA8A6A29E9F99940D
:1013300094918C8E8B898987888787878786878712
:10134000878787878787878787878787878787872D
:1013500087878687868786878687878888898A8918
:101360008E90939594999D9CA3A0A7A8A9ADAFB387
:10137000B3BABBBFC1C3C4C7C9CCCCD0D1D2DBD9EF
:10138000DADFE1E4E7E7EBEFF1F6F6F7FD00010461
:10139000080A0A101212171B1D1C222426282A2EA6
:1013A0002E3336383A3D3F4545474C4B4F50545607
:1013B00057585A5D5D5E64636569676B6C6F7070EA
:1013C00072717173747374757676777776777877D0
:1013D0007777777778777878787777777777767899
:1013E00076767776767574747271706F6E6D6D69DE
:1013F0006A6563625C5D57565450524E4848484196
:10140000403F3B393838343130302D2927232323CE
:101410001D1B1618120F0F090A0502FEFFFCF8F635
:10142000F2F1EDEBE9E6E3E2DEDCDBDBD5D3D2CDB6
:10143000CBC8C7C3C4BEBBBBBAB5B3B2AEADA9A916
:10144000A6A3A2A19D9F9C9B9897949693919590FB
:10145000908F8F8D8C8A8C8A898A898A88898888DE
:1014600089888888878888888789898889898A89F6
:10147000888A898A8A8B898B8D8A8D8B8C8D9192B3
:101480009296969A9D9FA2A2A4A8A9ACAEB1B1B51E
:10149000B7B7BABDBDBEBEC3C7C6CCCDCFD0D4D5FD
:1014A000D7DCDCDEE1E3E8EDECEDEFF3F4F7FAFC9A
:1014B000FF01000507080A0B0D0D11141317191C65
:1014C0001F212526262B2E303133383A3C3E3F4310
:1014D000464447494B4E4F51535557595A5D5C5EF0
:1014E00063636568696B6D6E6E6E7172727273752F
:1014F0007575767576777676767777777777777886
:101500007777777777777777777777767677747473
:10151000757472737373716F6F6E6B6B6A676866E5
:1015200066676562615C5C5C59575255514E4C4C24
:10153000494744423F3B3C39363334302C2A282833
:101540002322211E1C1B17161312100D090705025A
:1015500002FEFCF8F6F4F2EFECEAE7E5E2DFDFDCAE
:10156000D7D6D5D2CFCECDCBC8C7C4C2C0C0BDB8E8
:10157000B8B6B5B2B1ADACAAA7A9A6A2A2A19F9CCC
:101580009D9B979898979493959391918F8F8E8D1B
:101590008D8D8C8C8B8A8B8A8A898A898A898A8AA2
:1015A0008A8A8989898A8A8A8A8B8B8C8B8C8C8C93
:1015B0008C8D8D8D8E8F909191919393959596981A
:1015C000999A9C9C9EA19FA1A2A3A3A5A7A9A9AA01
:1015D000ACACB0B1B2B2B5B7B9BBBDBFC0C2C5C784
:1015E000C8CBCCCED2D4D6D8D9DCDEE1E2E4E7E772
:1015F000EBEDEFF1F3F6F8FAFCFD010306080B0E34
:101600000F131317191B1C20222327292B2D3031D0
:101610003335383A3B3E4041444646494B4D4E51A6
:1016200053545657595B5C5D5E60626263656668E1
:10163000686A6B6B6D6D6E706F70717172727273C0
:101640007474747474757574747574747474747457
:10165000737373727273727272717170706F6E6E77
:101660006D6C6C6B6A69686665646362615F5E5E1F
:101670005D5A5B5A58575654555352514F4F4E4E20
:101680004B4A4948474645444241403D3C3A383739
:10169000353433302F2D2B2A27252422201F1C1BC5
:1016A00019181512100F0C0A08050302FFFCFBF8AD
:1016B000F6F3F2F0EDEBEAE8E5E4E1DFDDDBD9D6C5
:1016C000D5D3D1CFCDCBC9C7C4C3C1BEBDBBBAB8BA
:1016D000B7B6B4B2B0AFAEACACAAA8A7A6A4A4A249
:1016E000A1A09F9E9C9B9A9A989796959594939368
:1016F0009292919191909090908F8F8F8F8F8F8FEA
:101700008F8F8F8F8F8F8F8F9090909191919292DA
:101710009394949595969798999A9B9B9C9D9D9F41
:10172000A0A1A1A2A4A4A5A7A7A8AAAAACACADAF4A
:10173000B0B1B2B3B4B6B7B7B9BBBBBDBDBFC0C122
:10174000C2C2C4C5C5C7C8C9CACBCDCDCFD0D1D2FE
:10175000D4D6D6D9DADBDDDFE0E2E4E6E8E9EBED8A
:10176000EEF0F2F4F6F8FAFBFEFF010405070A0CAE
:101770000D0F11131517191B1D1F21222427282AAD
:101780002B2D2F3132343638393B3D3F40424345D3
:1017900046484A4B4C4D4E4F51525354555657584C
:1017A000595A5B5C5D5E5F60616263636465666736
:1017B0006768686969696A6A6A6B6B6B6B6B6C6B8B
:1017C0006B6B6C6B6B6B6B6B6B6A6A6A6969696874
:1017D0006868676666656463636261605F5F5E5DDB
:1017E0005C5B5A5A595757565554535251504F4EA5
:1017F0004D4C4C4A494947464544434241403E3D91
:101800003C3B3A393837363533333231302F2E2D91
:101810002C2B292828262624232221201F1D1C1B8F
:10182000191817151413110F0E0C0B0907050302D5
:101830000000000001010102020303030404050586
:1018400005060607070708080909090A0A0A0B0B13
:101850000C0C0C0D0D0E0E0E0F0F1010101111129E
:10186000121213131314141515151616171717182B
:10187000181819191A1A1A1B1B1C1C1C1D1D1D1EB9
:101880001E1F1F1F20202021212222222323242447
:1018900024252525262627272728282829292A2AD6
:1018A0002A2B2B2B2C2C2C2D2D2E2E2E2F2F2F3068
:1018B00030303131323232333333343434353536FB
:1018C00036363737373838383939393A3A3A3B3B90
:1018D0003B3C3C3D3D3D3E3E3E3F3F3F4040404126
:1018E00041414242424343434444444545454646C0
:1018F000464747474848484949494A4A4A4A4B4B5C
:101900004B4C4C4C4D4D4D4E4E4E4F4F4F4F5050FB
:10191000505151515252525353535354545455559C
:101920005555565656575757575858585959595943
:101930005A5A5A5B5B5B5B5C5C5C5C5D5D5D5E5EEA
:101940005E5E5F5F5F5F6060606061616161626297
:101950006262636363636464646465656565666647
:1019600066666767676767686868686969696969FB
:101970006A6A6A6A6B6B6B6B6B6C6C6C6C6C6D6DB2
:101980006D6D6D6E6E6E6E6E6F6F6F6F6F7070706F
:10199000707071717171717172727272727373732E
:1019A00073737374747474747475757575757575F3
:1019B00076767676767677777777777777777878BB
:1019C000787878787879797979797979797A7A7A89
:1019D0007A7A7A7A7A7A7B7B7B7B7B7B7B7B7B7B5D
:1019E0007C7C7C7C7C7C7C7C7C7C7C7D7D7D7D7D32
:1019F0007D7D7D7D7D7D7D7D7E7E7E7E7E7E7E7E0F
:101A00007E7E7E7E7E7E7E7E7E7F7F7F7F7F7F7FEF
:101A10007F7F7F7F7F7F7F7F7F7F7F7F7F7F7F7FD6
:101A20007F7F7F7F7F7F7F7F7F7F7F7F7F7F7F7FC6
:101A30007F7F7F7F7F7F7F7F7F7F7F7F7F7F7F7FB6
:101A40007F7F7F7F7F7F7F7F7F7F7F7F7F7F7F7FA6
:101A50007F7F7F7F7F7F7F7F7F7F7E7E7E7E7E7E9C
:101A60007E7E7E7E7E7E7E7E7E7E7E7D7D7D7D7D9B
:101A70007D7D7D7D7D7D7D7D7C7C7C7C7C7C7C7C9E
:101A80007C7C7C7B7B7B7B7B7B7B7B7B7B7A7A7AA6
:101A90007A7A7A7A7A7A79797979797979797878B2
:101AA00078787878787777777777777776767676C5
:101AB00076767675757575757575747474747474D9
:101AC00073737373737372727272727171717171F5
:101AD0007170707070706F6F6F6F6F6E6E6E6E6E14
:101AE0006D6D6D6D6D6C6C6C6C6C6B6B6B6B6B6A38
:101AF0006A6A6A6A6969696968686868676767675E
:101B00006766666666656565656464646463636389
:101B1000636262626261616161606060605F5F5FB9
:101B20005F5E5E5E5E5D5D5D5C5C5C5C5B5B5B5BEB
:101B30005A5A5A5959595958585857575757565623
:101B4000565555555554545453535353525252515C
:101B500051515050504F4F4F4F4E4E4E4D4D4D4C9A
:101B60004C4C4B4B4B4A4A4A4A49494948484847DA
:101B7000474746464645454544444443434342421D
:101B8000424141414040403F3F3F3E3E3E3D3D3D62
:101B90003C3C3B3B3B3A3A3A3939393838383737AD
:101BA00037363636353534343433333332323231F6
:101BB000313030302F2F2F2E2E2E2D2D2C2C2C2B44
:101BC0002B2B2A2A2A292928282827272726262591
:101BD0002525242424232322222222212120201FE0
:101BE0001F1F1E1E1D1D1D1C1C1C1B1B1A1A1A1933
:101BF0001918181817171716161515151414131386
:101C00001312121211111010100F0F0E0E0E0D0DD7
:101C10000C0C0C0B0B0A0A0A09090908080707072C
:101C20000606050505040403030302020101010081
:101C300000FFFFFFFEFEFEFDFDFCFCFCFBFBFAFAD5
:101C4000FAF9F9F8F8F8F7F7F6F6F6F5F5F5F4F429
:101C5000F3F3F3F2F2F1F1F1F0F0EFEFEFEEEEED7E
:101C6000EDEDECECECEBEBEAEAEAE9E9E8E8E8E7D1
:101C7000E7E7E6E6E5E5E5E4E4E3E3E3E2E2E2E123
:101C8000E1E0E0E0DFDFDFDEDEDDDDDDDCDCDBDB75
:101C9000DBDADADAD9D9D8D8D8D7D7D7D6D6D6D5C5
:101CA000D5D4D4D4D3D3D3D2D2D1D1D1D0D0D0CF14
:101CB000CFCFCECECDCDCDCCCCCCCBCBCBCACAC961
:101CC000C9C9C8C8C8C7C7C7C6C6C6C5C5C5C4C4AC
:101CD000C4C3C3C2C2C2C1C1C1C0C0C0BFBFBFBEF6
:101CE000BEBEBDBDBDBCBCBCBBBBBBBABABAB9B93C
:101CF000B9B8B8B8B7B7B7B6B6B6B5B5B5B5B4B480
:101D0000B4B3B3B3B2B2B2B1B1B1B0B0B0B0AFAFBF
:101D1000AFAEAEAEADADADACACACACABABABAAAAFE
:101D2000AAAAA9A9A9A8A8A8A8A7A7A7A6A6A6A637
:101D3000A5A5A5A4A4A4A4A3A3A3A3A2A2A2A1A170
:101D4000A1A1A0A0A0A09F9F9F9F9E9E9E9E9D9DA3
:101D50009D9D9C9C9C9C9B9B9B9B9A9A9A9A9999D3
:101D600099999898989898979797979696969696FF
:101D70009595959594949494949393939393929228
:101D8000929292919191919190909090908F8F8F4B
:101D90008F8F8E8E8E8E8E8E8D8D8D8D8D8C8C8C6C
:101DA0008C8C8C8B8B8B8B8B8B8A8A8A8A8A8A8A87
:101DB000898989898989898888888888888887879E
:101DC00087878787878686868686868686858585B1
:101DD00085858585858584848484848484848484BD
:101DE00083838383838383838383838282828282C8
:101DF00082828282828282828181818181818181CB
:101E000081818181818181818180808080808080C9
:101E100080808080808080808080808080808080C2
:101E200080808080808080808080808080808080B2
:101E300080808080808080808080808080808080A2
:101E40008080808080808080808080808080808092
:101E5000808080808080808080808181818181817C
:101E6000818181818181818181818182828282825D
:101E7000828282828282828283838383838383833A
:101E80008383838484848484848484848485858512
:101E900085858585858586868686868686868787E6
:101EA00087878787878888888888888888898989B4
:101EB0008989898A8A8A8A8A8A8A8B8B8B8B8B8B7F
:101EC0008C8C8C8C8C8C8D8D8D8D8D8E8E8E8E8E43
:101ED0008E8F8F8F8F8F9090909090919191919104
:101EE00092929292929393939393949494949495C0
:101EF0009595959696969696979797979898989879
:101F000098999999999A9A9A9A9B9B9B9B9C9C9C2D
:101F10009C9D9D9D9D9E9E9E9E9F9F9F9FA0A0A0DD
:101F2000A0A1A1A1A1A2A2A2A3A3A3A3A4A4A4A48B
:101F3000A5A5A5A6A6A6A6A7A7A7A8A8A8A8A9A933
:101F4000A9AAAAAAAAABABABACACACACADADADAEDA
:101F5000AEAEAFAFAFB0B0B0B0B1B1B1B2B2B2B37C
:101F6000B3B3B4B4B4B5B5B5B5B6B6B6B7B7B7B81C
:101F7000B8B8B9B9B9BABABABBBBBBBCBCBCBDBDB9
:101F8000BDBEBEBEBFBFBFC0C0C0C1C1C1C2C2C254
:101F9000C3C3C4C4C4C5C5C5C6C6C6C7C7C7C8C8E9
:101FA000C8C9C9C9CACACBCBCBCCCCCCCDCDCDCE80
:101FB000CECFCFCFD0D0D0D1D1D1D2D2D3D3D3D412
:101FC000D4D4D5D5D5D6D6D7D7D7D8D8D8D9D9DAA5
:101FD000DADADBDBDBDCDCDDDDDDDEDEDEDFDFE035
:101FE000E0E0E1E1E2E2E2E3E3E3E4E4E5E5E5E6C3
:101FF000E6E7E7E7E8E8E8E9E9EAEAEAEBEBECEC50
:10200000ECEDEDEDEEEEEFEFEFF0F0F1F1F1F2F2DD
:10201000F3F3F3F4F4F5F5F5F6F6F6F7F7F8F8F868
:10202000F9F9FAFAFAFBFBFCFCFCFDFDFEFEFEFFF3
:10203000FF00F21F11241FBECFEFDAE0DEBFCDBFDD
:1020400012E0A0E0B1E0E6EEF4E402C005900D92EB
:10205000A832B107D9F725E0A8E2B2E001C01D928D
:10206000A03AB207E1F710E1CAE1D0E104C021973C
:10207000FE010E946422C931D107C9F70E94E61B04
:102080000C9471220C9400004091590250915A0214
:10209000209157023091580242175307B4F490919F
:1020A000E8009570E1F39091E80092FD19C08093EB
:1020B000F1008091590290915A0201968F739927ED
:1020C000892B19F48EEF8093E8008091590290914A
:1020D0005A02019690935A028093590281E0089522
:1020E00080E00895CF92DF92EF92FF920F931F93BB
:1020F000CF93DF931F92CDB7DEB7182F062FE42EB4
:10210000862F880F8E5F99830E94441083E00E947F
:102110004410F12EC12E9981D92E8C2D8F19801744
:1021200098F4F601E7FE02C0849101C080810E940C
:102130004410182F80E00E9444108123FFEFCF1A33
:10214000DF0A8111EACF01C081E00F90DF91CF91CA
:102150001F910F91FF90EF90DF90CF900895DF9245
:10216000EF92FF920F931F93CF93DF93D82E8A01A4
:102170007B01E40EF51EEB01CE15DF0571F0D7FEF5
:1021800003C0FE01849101C088810E944410219601
:102190008111F2CF8FEF9FEF01C0C801DF91CF9186
:1021A0001F910F91FF90EF90DF900895615030F0F4
:1021B0002091F100FC0120830196F8CF289884E655
:1021C0008093BD020895CF92DF92EF92FF920F931A
:1021D0001F93CF93DF936C017A018B01C0E0D0E0B5
:1021E000CE15DF0589F0D8016D918D01D601ED91F5
:1021F000FC910190F081E02DC6010995892B11F425
:102200007E0102C02196ECCFC701DF91CF911F91D3
:102210000F91FF90EF90DF90CF900895CF93DF93D1
:102220001F92CDB7DEB76983DC01ED91FC9102808E
:10223000F381E02D41E050E0BE016F5F7F4F0995D3
:102240000F90DF91CF91089583E08093E900809112
:10225000F200882319F08AE38093E8000895FC01D6
:102260008485958597FD0BC09FB7F89482E0809395
:10227000E9008091F2009FBF90E0019608959FB71A
:10228000F89482E08093E9008091F2009FBF90E093
:10229000089590E0FC013197EF30F105B0F5EA5A6E
:1022A000FF4F0C946422809180008F7703C080914F
:1022B00080008F7D80938000089580918000877FCB
:1022C000F9CF84B58F7702C084B58F7D84BD089522
:1022D000809190008F7707C0809190008F7D03C020
:1022E00080919000877F8093900008958091C00036
:1022F0008F7703C08091C0008F7D8093C0000895C8
:102300008091C200877F8093C20008950F931F932E
:10231000CF93DF931F92CDB7DEB782E0898342E48B
:1023200050E061E571E080E80E94AF100E94D21B8E
:10233000DC0112960D911C9113970115110569F09E
:10234000D801ED91FC910280F381E02DBE016F5F19
:102350007F4FC801099597FF07C089810F90DF91D2
:10236000CF911F910F910895F80100851185E5CF58
:102370007F928F929F92AF92BF92CF92DF92EF9215
:10238000FF920F931F93CF93DF936C015B017A0150
:1023900080910B01882309F466C08091BE028823D6
:1023A00009F461C08091950280FF05C08091E00032
:1023B00082608093E000E70110E00AEF83E0982E4E
:1023C00090E4792E2AE3822E209709F443C08FB738
:1023D000F8949092E9009091E80095FF06C09091E2
:1023E000F200272D291B922F01C090E08FBF911181
:1023F00005C00150C1F10E948E1BE6CF292F30E0AD
:10240000C217D3070CF49C2F8FB7F8949092E90071
:102410002091E80025FF1CC0292F30E0C21BD30B00
:10242000F501915020F041914093F100FACFA20EB6
:10243000B31E112319F08092E80009C09091E800C2
:1024400095FD06C08092E80011E0209709F010E0A9
:102450008FBFBACF1111BBCF5D9884E680935B022A
:102460001E141F0444F081E090E0F6019383828300
:1024700080E090E001C0C701DF91CF911F910F91E3
:10248000FF90EF90DF90CF90BF90AF909F908F9094
:102490007F900895CF93DF931F92CDB7DEB7FC01F5
:1024A0008485958597FD05C02FEF3FEF35872487FD
:1024B0000BC0CE0101960E94A81B019719F48981D7
:1024C00090E002C08FEF9FEF0F90DF91CF910895C2
:1024D0000F931F93CF93DF931F92CDB7DEB78C017D
:1024E000FC018485958597FF0EC0CE0101960E9460
:1024F000A81B019719F4298130E002C02FEF3FEFAC
:10250000F80135872487F801848595850F90DF9140
:10251000CF911F910F9108951F920F920FB60F92B6
:1025200011248F939F938091E1009091E100937F1C
:102530009093E10083FF0FC01092E90091E0909327
:10254000EB001092EC0092E39093ED001092BE022B
:1025500098E09093F00082FF20C093E09093E90010
:102560009091F200992319F09AE39093E8009091EA
:102570005B02992339F090915B02915090935B023A
:10258000992389F19091BD02992339F09091BD0270
:1025900091509093BD02992341F184FF10C0809126
:1025A000E2008E7E81608093E2008091E1008F7E68
:1025B0008093E100809195028E7E806111C080FF42
:1025C00016C08091E2008E7E80618093E20080914F
:1025D000E1008E7E8093E100809195028E7E816085
:1025E0008093950204C05D9ACDCF289AD6CF9F9153
:1025F0008F910F900FBE0F901F9018951F920F9202
:102600000FB60F921124CF92DF92EF92FF920F93A9
:102610001F932F933F934F935F936F937F938F936A
:102620009F93AF93BF93EF93FF93CF93DF93CDB778
:10263000DEB76C97DEBFCDBF1092E9008091E80055
:1026400083FFEDC168E0CE0145960E94D61082EF6F
:102650008093E8008D8987FF05C09091E80090FF86
:10266000FCCF03C09EEF9093E800982F907609F07E
:10267000C6C09E892F89188D91110CC0803829F40D
:10268000809196028093F10002C01092F1001092A6
:10269000F10048C1422F50E0512B913051F481118B
:1026A00041C14130510509F03DC1809196028D7FB5
:1026B0000BC0933061F4811135C14130510509F0EF
:1026C00031C1809196028260809396022BC1953031
:1026D00041F48091E80080FFFCCF20682093E30064
:1026E00021C1963009F05FC0EB8CFC8C1092E900A0
:1026F00010925A0210925902123091F5109258021B
:10270000109257020E94861199E0BE016F5F7F4FC1
:10271000DB01E92F1D92EA95E9F799831A8391E08D
:102720009E8390EA98879AEF998720915902309179
:102730005A02275F3F4F3C832B838D831092E90021
:1027400010925A0210925902F0925802E0925702E7
:1027500049E050E080E00E94AF100E948611E2C084
:10276000F0925802E09257020E94D21BDC011296AE
:10277000ED90FC901397E114F10409F4C0C0D70167
:10278000ED91FC910480F581E02DBE016B5E7F4FE1
:10279000C7010995009719F00CF0C4C0C7C0F70134
:1027A000E084F184E8CF973009F4C0C0983021F478
:1027B00081E08093F100B6C0993009F0B3C0837016
:1027C00009F0B4C0EFE0F1E081E021E036E3908170
:1027D000992361F08093E9002093EB00919190930D
:1027E000EC003093ED008F5F873089F78EE78093A0
:1027F000EA001092EA008F898093BE0293C08B8D0D
:102800009C8D1092E90010925A02109259029093F6
:10281000580280935702898D811156C08E899D89F7
:10282000913A59F4813209F081C047E050E064E008
:1028300071E080E00E94AF1075C0913209F076C05F
:10284000833289F4888D90E0982F88272F89822BF6
:10285000A0E0B0E08093000190930101A0930201F9
:10286000B09303015FC0803269F48091E80082FF79
:10287000FCCF67E084E091E00E94D6108BEF80935C
:10288000E80006C0823209F04DC08F8980930B01A9
:1028900080919402882319F0EEEFFAE002C0E0E0A4
:1028A000F8E08091040190910501A0910601B0919A
:1028B0000701803B9440A105B10509F07BC08091E0
:1028C0000B0180FF93C076C00E94D21BDC011296E0
:1028D0000D911C9113970115110541F1D801ED914E
:1028E000FC910190F081E02DBE016B5E7F4FC8012D
:1028F0000995811117C0F80100851185ECCF1130C1
:1029000009F44EC0133091F48F89882309F445C02F
:10291000823081F440E860E185EB91E00E94721022
:10292000882321F08EEF8093E80079C081E28093C4
:10293000EB0075C0813029F440E86BE089EA91E052
:10294000EDCF833099F70E94D21BDC011296ED90F7
:10295000FC9013978E010F5F1F4F6801E114F10483
:1029600079F0D701ED91FC910680F781E02DB80157
:10297000C7010995080F111DF701E084F184EECF1E
:10298000D8011C92F60101900020E9F73197BF01B0
:102990006C197D0940E0C601C1CF63E971E002C056
:1029A00067E971E06115710509F2FB01449150E09E
:1029B00080E840CF0FB6F894A895809160008861B8
:1029C00080936000109260000FBEA895EE3F2AE051
:1029D000F20739F08091FE0A9091FF0A918380837B
:1029E000A1CF1092FF0A1092FE0A9CCFEE3F8AE020
:1029F000F80731F0808191819093FF0A8093FE0A5D
:102A000087E797E7918380839BE088E10FB6F8948E
:102A1000A895809360000FBE9093600083CF6C9662
:102A20000FB6F894DEBF0FBECDBFDF91CF91FF91FF
:102A3000EF91BF91AF919F918F917F916F915F9136
:102A40004F913F912F911F910F91FF90EF90DF9049
:102A5000CF900F900FBE0F901F901895CF93DF93DC
:102A6000282F30E0F901EE5CFE4F8491F901ED5E14
:102A7000FE4FD491F901EC50FF4FC491CC2391F05B
:102A800081110E944911EC2FF0E0EE0FFF1FEA5177
:102A9000FF4FA591B491EC91ED2381E090E021F4FA
:102AA00080E002C080E090E0DF91CF9108951F9315
:102AB000CF93DF93282F30E0F901EE5CFE4F849135
:102AC000F901ED5EFE4FD491F901EC50FF4FC49136
:102AD000CC23C9F0162F81110E944911EC2FF0E090
:102AE000EE0FFF1FE852FF4FA591B4918FB7F894F6
:102AF000111105C09C91ED2FE095E92302C0EC91E6
:102B0000ED2BEC938FBFDF91CF911F910895CF9361
:102B1000DF9390E0FC01ED5EFE4F2491FC01EC5050
:102B2000FF4F8491882361F190E0880F991FFC0189
:102B3000E653FF4FC591D491FC01E852FF4FA59198
:102B4000B491611109C09FB7F894888120958223C0
:102B50008883EC912E230BC0623061F49FB7F89408
:102B60003881822F809583238883EC912E2B2C93A0
:102B70009FBF06C08FB7F894E8812E2B28838FBFA4
:102B8000DF91CF9108953FB7F894809153029091CF
:102B90005402A0915502B091560226B5A89B05C0DB
:102BA0002F3F19F00196A11DB11D3FBFBA2FA92FCC
:102BB000982F8827820F911DA11DB11DBC01CD0149
:102BC00042E0660F771F881F991F4A95D1F7089535
:102BD0001F920F920FB60F9211242F933F938F9352
:102BE0009F93AF93BF9380914F0290915002A09119
:102BF0005102B091520230914E0223E0230F2D3743
:102C000020F40196A11DB11D05C026E8230F0296F0
:102C1000A11DB11D20934E0280934F02909350024C
:102C2000A0935102B09352028091530290915402AA
:102C3000A0915502B09156020196A11DB11D80933D
:102C4000530290935402A0935502B0935602BF9141
:102C5000AF919F918F913F912F910F900FBE0F9049
:102C60001F9018951F920F920FB60F9211242F9359
:102C70003F934F935F936F937F938F939F93AF9304
:102C8000BF93EF93FF938091B900887F883221F141
:102C900070F48031F1F030F4882309F472C0883088
:102CA000C1F073C08831C1F0803251F16EC0803400
:102CB00009F44EC028F4803319F1883321F165C03E
:102CC0008035D1F1883509F44FC0883409F05DC0F2
:102CD0005AC080914D0211C090914C0280914B02DC
:102CE000981708F050C0E0914C0281E08E0F80935D
:102CF0004C02F0E0E55DFD4F80818093BB002EC06B
:102D000080932A0240C080932A0285EC8093BC0005
:102D10008091290280932802109229028091280232
:102D2000833019F40E941C1A30C08091280281302F
:102D300061F50E942C1A29C0E0914C0281E08E0FAF
:102D400080934C028091BB00F0E0E55DFD4F8083F5
:102D500090914C0280914B02981710F485EC01C0C1
:102D600085E88093BC0011C0E0914C0281E08E0F99
:102D700080934C028091BB00F0E0E55DFD4F8083C5
:102D800002C010922A020E943D1AFF91EF91BF915A
:102D9000AF919F918F917F916F915F914F913F91F3
:102DA0002F910F900FBE0F901F901895CF93DF9328
:102DB0001F92CDB7DEB780911B0390911C038F3F0C
:102DC0004FEF940761F0FC01E15FFC4F40814983C4
:102DD000019790931C0380931B03898101C08FEF9F
:102DE00080930C0180910C018F3FD1F080910C01F8
:102DF00090917B0083FB222720F930E045E0220FF1
:102E0000331F4A95E1F79F7D292B20937B00877024
:102E1000806480937C0080917A00806480937A0043
:102E20000F90DF91CF91089508952FB7F894FC018A
:102E3000438554856585768540835183628373839A
:102E40002FBF08950F931F93CF938C01CB01BA012D
:102E5000CFB7F89420E030E944E155E40E94F7212F
:102E600020E030E040E858E30E94F72120E030E025
:102E700040E857E40E94F7210E943A21F801648358
:102E8000758386839783CFBFCF911F910F9108954C
:102E90004F925F926F927F928F929F92AF92BF926A
:102EA000CF92DF92EF92FF920F931F93CF9386E022
:102EB0000E942E15892B21F461E08DE00E945715A8
:102EC00087E00E942E15892B21F460E08DE00E949E
:102ED0005715E8ECF1E0E49180911B0390911C03FD
:102EE0008B3091054CF4019690931C0380931B0347
:102EF000DC01A15FBC4FEC93F0E0EE0FFF1FE45844
:102F0000FD4F8081918190937B0280937A02E7EC60
:102F1000F1E0E49180911B0390911C038B309105AB
:102F20004CF4019690931C0380931B03DC01A15F7A
:102F3000BC4FEC93F0E0EE0FFF1FE458FD4FE08034
:102F4000F180F0927902E0927802F0927702E092BA
:102F500076020091740210917502C7010F2C000CCB
:102F6000AA0BBB0BBC01CD01E2E0660F771F881FE7
:102F7000991FEA95D1F788248A94F3E09F2EA12C1B
:102F8000B12CA50194010E946A20C901A5E0880F17
:102F9000991FAA95E1F7800F911FFC01EB58FE4F96
:102FA000C08123E030E0D7010E946A22A50194018C
:102FB0000E946A20F901B5E0EE0FFF1FBA95E1F714
:102FC0009F01200F311FF901EB5EFE4F10816091D0
:102FD0007A0270917B02072E000C880B990B0E94DD
:102FE0006B214B015C012EE231E94CED50E40E9473
:102FF000F72120E030E040E05BE30E94F7212DEC78
:103000003CEC4CEC5DE30E94CE202B013C01609334
:10301000700270937102809372029093730221E0A8
:1030200033E947EB51E4C501B4010E94F72120E0E8
:1030300030E040E05BE30E94F7212DEC3CEC4CECEF
:103040005DE30E94CE206B017C0160936C02709363
:103050006D0280936E0290936F0224E63CE649E78E
:1030600051E4C501B4010E94F72120E030E040E0C6
:103070005CE30E94F7212DEC3CEC4CEC5DE30E94FC
:10308000CE20609368027093690280936A029093E5
:103090006B022FED3BE846E251E4C501B4010E940A
:1030A000F72120E030E040E85BE30E94F7212DECBF
:1030B0003CEC4CEC5DE30E94CE2060936402709384
:1030C00065028093660290936702B301A2018EE5C8
:1030D00095E00E9422170FB7F89420E030E842E311
:1030E00054E4C701B6010E94F72120E030E040E837
:1030F00058E30E94F72120E030E040E857E40E94C6
:10310000F7210E943A2160934F05709350058093F8
:103110005105909352050FBF60916802709169024A
:1031200080916A0290916B020FB7F89420E030E62C
:1031300043E854E40E94F72120E030E040E858E3FF
:103140000E94F72120E030E040E857E40E94F72198
:103150000E943A2160933C0570933D0580933E05A3
:1031600090933F050FBF40916402509165026091BA
:1031700066027091670285E295E00E9422178091B5
:103180007A0290917B0297FD039695958795959588
:1031900087952FB7F894092E000CAA0BBB0B5DE0A6
:1031A000880F991FAA1FBB1F5A95D1F78827992707
:1031B0008093820590938305A0938405B093850541
:1031C0002FBF10925D0210925C0282E00E942E15C9
:1031D000892B71F480916302811117C08EE595E00F
:1031E0000E9415171092680581E0809363020DC05C
:1031F000109263028FB7F8941092820510928305A3
:1032000010928405109285058FBF409171055091F1
:103210007205609173057091740520911D05809170
:10322000210590912205A0912305B0912405BA2F84
:10323000A92F982F8827820F911DA11DB11D8417DA
:103240009507A607B707D8F180917D05811137C092
:103250008091750590917605A0917705B0917805DC
:10326000480F591F6A1F7B1F4093710550937205C9
:103270006093730570937405809174029091750248
:1032800001969093750280937402CC2351F01092B2
:103290005D0210925C0282E00E942E15892B09F4D7
:1032A000A2C0112361F082E090E090935D028093D0
:1032B0005C0284E00E942E15892B09F499C080914C
:1032C000740290917502809721F410927502109209
:1032D000740281E090E090935D0280935C0283E051
:1032E0000E942E15892BE9F48091620281111DC084
:1032F0008FB7F89440915605509157056091580545
:103300007091590540934B0550934C0560934D05C2
:1033100070934E058FBF81E08093620280935505C4
:1033200004C0109262021092550582E090E09093E2
:103330005D0280935C0284E00E942E15892BE9F4E3
:103340008091610281111BC08FB7F89440914305B1
:1033500050914405609145057091460540933805AC
:103360005093390560933A0570933B058FBF81E018
:10337000809361021092420502C01092610283E0C4
:1033800090E090935D0280935C0285E00E942E1590
:10339000892B71F48091600281110CC085E295E067
:1033A0000E94151781E08093600210922F0502C0E1
:1033B0001092600280915E0290915F02009749F046
:1033C000019790935F0280935E02892B11F48BEF3B
:1033D0008EB980910C018F3FF9F40E94D61681E0DE
:1033E00080930D0119C08EE595E00E94151759CF05
:1033F0008FB7F8944091430550914405609145057D
:1034000070914605409338055093390560933A050D
:1034100070933B058FBF53CFCF911F910F91FF90BA
:10342000EF90DF90CF90BF90AF909F908F907F9064
:103430006F905F904F90089584E0809329028FEF02
:1034400080932A0210924C0210924B0210924D026D
:1034500085EE8093BC00089582E0809329028FEF6F
:1034600080932A0210924C0280934B0281E0809359
:103470004D0285EE8093BC00089585ED8093BC00DD
:103480008091BC0084FDFCCF8091290280932802AA
:103490001092290280912802833011F40C941C1A96
:1034A00080912802813011F40C942C1A089578949C
:1034B0001F920F920FB60F9211242F933F934F93A9
:1034C0005F936F937F938F939F93AF93BF93EF938C
:1034D000FF9310926E00E0919802F0919902099585
:1034E000F89480919702882311F016BCA99A8091D4
:1034F0006E00826080936E00FF91EF91BF91AF915B
:103500009F918F917F916F915F914F913F912F91FB
:103510000F900FBE0F901F9018951F920F920FB62D
:103520000F9211242F933F934F935F936F937F9349
:103530008F939F93AF93BF93EF93FF9380910D0170
:10354000882341F080917A00806480937A00109201
:103550000D0111C0E0910C018091780090917900EB
:10356000EE0FFF0BE458FD4F918380830E94D61627
:1035700081E080930D01FF91EF91BF91AF919F91F9
:103580008F917F916F915F914F913F912F910F900C
:103590000FBE0F901F9018951F920F920FB60F92AB
:1035A00011242F933F938F939F93AF93BF93EF93E8
:1035B000FF9380911D05E82FF0E0EE0FFF1FE35E03
:1035C000FC4F208131818F5F80931D05811119C0CF
:1035D00090911F0581E0892780931F058091210527
:1035E00090912205A0912305B09124050196A11D7B
:1035F000B11D8093210590932205A0932305B093DC
:103600002405C901880F892F881F990B91958093F4
:1036100088002F7720938A00FF91EF91BF91AF919F
:103620009F918F913F912F910F900FBE0F901F9000
:103630001895CF92DF92EF92FF920F931F93DC01C8
:103640004D915D916D917C9113971F960D911D91F8
:103650002D913C9152970417150726073707E8F478
:103660001A968C911A978823C9F1CD90DD90ED9030
:10367000FC9013971B964D915D916D917C911E97D7
:103680004C0D5D1D6E1D7F1D401B510B620B730B9E
:103690004D935D936D937C9313974D915D916D91D7
:1036A0007C9113971896ED91FC911997E60FF71FEF
:1036B000849114964D915D916D917C9117970D9128
:1036C0001D912D913C911397400F511F621F731F45
:1036D0004D935D936D937C93139701C080E01F9190
:1036E0000F91FF90EF90DF90CF900895BC0100976D
:1036F00091F0FC0101900020E9F73197AF01481BE0
:10370000590BE091BF02F091C0020280F381E02DDD
:103710008FEB92E0099480E090E00895CF92DF92E1
:10372000EF92FF920E94C3156B017C010E94C315AA
:10373000DC01CB018C199D09AE09BF09883E93407D
:10374000A105B10598F3FF90EF90DF90CF90089519
:10375000FC018091BE02811103C08FEF9FEF08959D
:103760009FB7F89482E08093E9002091F20030E066
:103770001216130614F421E030E02115310559F03A
:10378000289884E68093BD028091F1008083809127
:10379000F200882319F09FBFC90108958BE680933A
:1037A000E800F9CF80918C0581110DC082E08093F3
:1037B000880584E08093890510928B0510928A0514
:1037C00081E080938C0588E895E00895CF93DF939E
:1037D000CDB7DEB7A1970FB6F894DEBF0FBECDBF51
:1037E000789484B5826084BD84B5816084BD85B5DC
:1037F000826085BD85B5816085BD80916E008160E8
:1038000080936E001092810080918100826080938D
:10381000810080918100816080938100809180008F
:1038200081608093800080919100826080939100FC
:1038300080919100816080939100809190008160DF
:10384000809390008091C10084608093C10080913A
:10385000C10082608093C1008091C100816080932B
:10386000C1008091C30081608093C3008091C0003B
:1038700082608093C0008091C20081608093C2000A
:1038800080917A00846080937A0080917A008260CF
:1038900080937A0080917A00816080937A00809191
:1038A0007A00806880937A001092BE02109296028D
:1038B000109295028091D70081608093D70080EAB2
:1038C0008093D80089B5806189BD89B5826089BD42
:1038D00009B400FEFDCF0E948E1B8091D8008F7C22
:1038E00080618093D8008091E000807F8093E00029
:1038F0008091E1008E7E8093E1008DE08093E20074
:10390000559A209AEEEFFFE7859194918B3F9C4D5D
:1039100019F481E08093940261E085E10E948715AB
:1039200061E085E10E9457158FB7F89410928205E7
:103930001092830510928405109285058FBF8091A7
:103940007A00886080937A0080917A008460809306
:103950007A0080917A008D7F80937A0080917A003E
:103960008E7F80937A0080E090E061E070E040918B
:103970007E009B01082E01C0220F0A94EAF7242B37
:1039800020937E0001968C30910589F784B5809351
:10399000BC0285B58093BB0287B58093BA02809143
:1039A0006E008093B90288E497E190939902809326
:1039B00098021092970280E090E040E950ED63E0B9
:1039C00070E0FC01EE52FE4FE491EE2389F06A01B3
:1039D0007B01082E04C0F694E794D794C7940A9408
:1039E000D2F731E0C316D306E104F10408F49CC217
:1039F00001968B30910529F780916E00826080934B
:103A00006E0084B58093B80285B58093B70287B500
:103A10008093B60280916E008093B5028091800001
:103A200080939D028091810080939C028091880008
:103A30009091890080939B0280916F0080939A02FD
:103A400061E089E00E94871561E08AE00E948715A5
:103A50001092B00298E19093B10282E08093B2029A
:103A6000909381008093800080E890E0A0E0B0E037
:103A700021E02093AD029093AC028093AB0290932F
:103A800087008093860089E18093810061E089E06E
:103A90000E948715909180008091B202892B8068E6
:103AA0008093800010928900109288009091AD025E
:103AB0008091B102892B8093810061E08AE00E94AD
:103AC0008715909180008091B202892B806280934B
:103AD000800010928B0010928A009091AD0280912C
:103AE000B102892B80938100809180008093A10294
:103AF000809181008093A00280918800909189003C
:103B000080939F0280916F0080939E028091C000FD
:103B10008093A4028091C1008093A4028091C2008E
:103B20008093A4028091C3008093A4028091C4007A
:103B30008093A4028091D1008093A30280917200AF
:103B40008093A20219A286E388A387E38F8F89E37B
:103B50008E8FCE014E960E94761B85E292E00E94E7
:103B6000761B81E090E021E030E040E050E0CC24A2
:103B7000D22EE32EF42E60EDC61663E0D606E104E5
:103B8000F10450F0082F60ED73E080E090E00E94B7
:103B90009C201FEF120F08C0220F331F441F551F18
:103BA00001968131910519F71092C0001092C10061
:103BB0001092C2001092C3001092C4001092BF0075
:103BC0001092BE001093D1000093C1008091A70213
:103BD000811180E48093720084E197E19093A602C2
:103BE0008093A50280E48093720091E09093A702F5
:103BF000809372008091C0008093AA028091C100DE
:103C00008093AA028091C2008093AA028091C3008F
:103C10008093AA028091C4008093AA028091D1006F
:103C20008093A902809172008093A8028BB18C6F5F
:103C30008BB962E082E00E94871562E083E00E9417
:103C4000871562E084E00E94871562E085E00E94AB
:103C5000871562E086E00E94871562E087E00E9497
:103C6000871561E08DE00E94871561E088E00E9481
:103C7000871561E088E00E94571560E088E00E94A7
:103C8000571561E088E00E94571560E088E00E94C7
:103C9000571561E088E00E94571560E088E00E94B7
:103CA000571561E088E00E94571520E030E04CE5B0
:103CB00052E46091790570917A0580917B0590912D
:103CC0007C050E94F7210E943A216093750570934C
:103CD00076058093770590937805CC24C39456E0BD
:103CE000D52E6AE1B62E70E0E72E70E0F72E9091A7
:103CF0001E0580911D05981306C0909120058091A6
:103D00001F0598130AC18EE595E00E94191B40918A
:103D10004B0550914C0560914D0570914E050091F9
:103D20005A0510915B0520915C0530915D050417E3
:103D300015072607370728F590915505992309F4AB
:103D400013C140904B0550904C0560904D0570900C
:103D50004E05409156055091570560915805709158
:103D60005905440D551D661D771D401B510B620BF7
:103D7000730B40934B0550934C0560934D05709326
:103D80004E0540914B0550914C0560914D05709149
:103D90004E05E0915305F0915405E60FF71F04918D
:103DA00040914F0550915005609151057091520519
:103DB00040904B0550904C0560904D0570904E051D
:103DC000440D551D661D771D40934B0550934C05C2
:103DD00060934D0570934E05002E000C110B080FDB
:103DE000111D87FD1A958091380590913905A09194
:103DF0003A05B0913B0540914705509148056091C7
:103E0000490570914A05481759076A077B0708F466
:103E1000ADC08091380590913905A0913A05B091D7
:103E20003B05E0914005F0914105EA0FFB1FE4914D
:103E300080913C0590913D05A0913E05B0913F05D4
:103E4000409138055091390560913A0570913B05D4
:103E5000840F951FA61FB71F8093380590933905CF
:103E6000A0933A05B0933B050E0F111DE7FD1A957F
:103E700085E295E00E94191B4090820550908305D1
:103E8000609084057090850540917E0550917F0576
:103E90006091800570918105440D551D661D771D4B
:103EA00040937E0550937F05609380057093810554
:103EB0009B013770E0918605F0918705E20FF31FB3
:103EC000E4919801280F311D87FD3A95C9018E0FA5
:103ED000911DE7FD9A95AC0142525F4F4D3B31E099
:103EE000530708F06AC0B89E9001B99E300D1124A6
:103EF00080911E05E82FF0E0EE0FFF1FE35EFC4F00
:103F0000305E318320838F5F80931E05811105C051
:103F1000809120058C2580932005E114F10409F49B
:103F2000E6CE0E940000E3CEA1E0B0E002C0AA0FFE
:103F3000BB1F8A95E2F7A70196010E949420DC013D
:103F4000CB0124E0B595A795979587952A95D1F74C
:103F50009093B4028093B30210926E0082E084BD0D
:103F6000E5BDCA94C7BC48CD00E036CF809142057C
:103F7000882309F1409038055090390560903A0542
:103F800070903B058091430590914405A0914505B3
:103F9000B0914605840D951DA61DB71D841B950B7C
:103FA000A60BB70B8093380590933905A0933A057B
:103FB000B0933B052ECFE0E057CF8F3D910554F0F5
:103FC0008E5D9109D89E9001D99E300D11242B59F8
:103FD000394E8ECFD49E9001D59E300D112425569A
:103FE000364186CFEFEBF2E01382128288EE93E047
:103FF000A0E0B0E084839583A683B78389E192E053
:10400000918380838FEF9FEF9587848790931C0324
:1040100080931B0310921D0510921E0510921F0520
:104020001092200581E398E190938705809386059F
:10403000E1E7F5E08FE692E1A3E8B1E480879187BC
:10404000A287B38714821582168217821486E4E948
:10405000F5E080879187A287B38714821582168244
:104060001782EEE5F5E088EE9EE09187808780E09C
:1040700090E0A9E4B9E08787908BA18BB28B128680
:10408000EBE4F5E02EE13CE03187208740E050E0B2
:104090006AEC72E04787508B618B728B1286E8E383
:1040A000F5E023E038E03187208740E050E06BE125
:1040B00074E04787508B618B728B1286E5E2F5E0E6
:1040C0002DED31E0318720878787908BA18BB28BD4
:1040D00012860895052E97FB1EF400940E948120FD
:1040E00057FD07D00E949C2007FC03D04EF40C948F
:1040F000812050954095309521953F4F4F4F5F4F10
:10410000089590958095709561957F4F8F4F9F4F43
:1041100008950E94BE20A59F900DB49F900DA49F6E
:10412000800D911D11240895B7FF0C9489200E94E1
:104130008920821B930B0895A1E21A2EAA1BBB1B98
:10414000FD010DC0AA1FBB1FEE1FFF1FA217B30763
:10415000E407F50720F0A21BB30BE40BF50B661F79
:10416000771F881F991F1A9469F76095709580953D
:1041700090959B01AC01BD01CF010895A29FB001B4
:10418000B39FC001A39F700D811D1124911DB29F8B
:10419000700D811D1124911D08955058BB27AA2729
:1041A0000E94E5200C94BD210E94AF2138F00E94AE
:1041B000B62120F039F49F3F19F426F40C94AC2179
:1041C0000EF4E095E7FB0C94A621E92F0E94CE2186
:1041D00058F3BA17620773078407950720F079F43C
:1041E000A6F50C94F0210EF4E0950B2EBA2FA02D1D
:1041F0000B01B90190010C01CA01A0011124FF2794
:10420000591B99F0593F50F4503E68F11A16F0408E
:10421000A22F232F342F4427585FF3CF469537958D
:104220002795A795F0405395C9F77EF41F16BA0B52
:10423000620B730B840BBAF09150A1F0FF0FBB1F00
:10424000661F771F881FC2F70EC0BA0F621F731F49
:10425000841F48F4879577956795B795F7959E3FA6
:1042600008F0B0CF9395880F08F09927EE0F979537
:10427000879508950E94D62188F09F5798F0B92F0E
:104280009927B751B0F0E1F0660F771F881F991F8B
:104290001AF0BA95C9F714C0B13091F00E94F0211C
:1042A000B1E008950C94F021672F782F8827B85F2C
:1042B00039F0B93FCCF3869577956795B395D9F7E3
:1042C0003EF490958095709561957F4F8F4F9F4FED
:1042D0000895E89409C097FB3EF4909580957095F9
:1042E00061957F4F8F4F9F4F9923A9F0F92F96E942
:1042F000BB279395F695879577956795B795F111B7
:10430000F8CFFAF4BB0F11F460FF1BC06F5F7F4F53
:104310008F4F9F4F16C0882311F096E911C0772365
:1043200021F09EE8872F762F05C0662371F096E86E
:10433000862F70E060E02AF09A95660F771F881F3D
:10434000DAF7880F9695879597F9089597F99F67FB
:1043500080E870E060E008959FEF80EC089500240D
:104360000A941616170618060906089500240A94DA
:1043700012161306140605060895092E0394000C60
:1043800011F4882352F0BB0F40F4BF2B11F460FFEF
:1043900004C06F5F7F4F8F4F9F4F089557FD905818
:1043A000440F551F59F05F3F71F04795880F97FBF9
:1043B000991F61F09F3F79F08795089512161306B3
:1043C0001406551FF2CF4695F1DF08C016161706E2
:1043D0001806991FF1CF8695710561050894089517
:1043E000E894BB2766277727CB0197F908950E94A9
:1043F0000A220C94BD210E94AF2138F00E94B62100
:1044000020F0952311F00C94A6210C94AC211124DA
:104410000C94F1210E94CE2170F3959FC1F3950F6A
:1044200050E0551F629FF001729FBB27F00DB11D38
:10443000639FAA27F00DB11DAA1F649F6627B00DC8
:10444000A11D661F829F2227B00DA11D621F739FB1
:10445000B00DA11D621F839FA00D611D221F749FBF
:104460003327A00D611D231F849F600D211D822F06
:10447000762F6A2F11249F5750409AF0F1F088232D
:104480004AF0EE0FFF1FBB1F661F771F881F91505A
:104490005040A9F79E3F510580F00C94A6210C9442
:1044A000F1215F3FE4F3983ED4F3869577956795C5
:1044B000B795F795E7959F5FC1F7FE2B880F911D84
:1044C0009695879597F90895EE0FFF1F0590F49143
:1044D000E02D09940E94BE20B7FF0895821B930B24
:0644E0000895F894FFCFDF
:1044E600FFFFFFFF00E1000000000000FF0100C128
:1044F60080810000000100010001000100010001AF
:10450600000100010001000100010001000100019D
:104516000001000100010101010101010101010188
:104526000101010101010101010101010101010175
:10453600010101010101000000010000000100006D
:104546000001000000010000000100000001000061
:104556000001000000010000000000000001000052
:104566000000000000010000000000000001000043
:104576000000000000010000000100000001000032
:104586000001000000010000000100000001000021
:104596000001000000010000000000000000000013
:1045A6000000000000000000000100000000000004
:1045B60000000000000100000000000000000000F4
:1045C60000000000000000000001000000000000E4
:1045D60000000000000100000000000000000000D4
:1045E60000000000000000000001000000000000C4
:1045F6000000000000000000000E11B8112F114A43
:0846060012681224110D0A00D4
:00000001FF
