:100000000C94A8230C94D0230C94D0230C94D023CC
:100010000C94D0230C94D0230C94D0230C94D02394
:100020000C94D0230C94D0230C94882C0C94FA2C90
:100030000C94D0230C94D0230C94D0230C94D02374
:100040000C94D0230C94D0230C94D0230C94D02364
:100050000C94D0230C94AA2B0C94D0230C94BC2A7F
:100060000C94D0230C94D0230C94D0230C94D02344
:100070000C94D0230C94E02B0C94D0230C94D0231C
:100080000C94D0230C94D0230C94D0230C94D02324
:100090000C94062B0C94D0230C941F2C0C94D0237E
:1000A0000C94D0230C94D0230C94D0237E24812450
:1000B000702474247A24A224A224A22485248924CE
:1000C0008D2493249724A2249D240706050401006F
:1000D000080A0B0C0D0900000000240027002A006C
:1000E0002D00300000000000250028002B002E000D
:1000F0003100000000002300260029002C002F0002
:1001000004040404040304050202020204030202BC
:10011000020206060606060604040202020404049D
:1001200008020110408040102040804080080204F6
:10013000018040201002011080102040402000006B
:10014000000200090F0000030401000C0000000081
:1001500000000000000000000000000000080B008C
:10016000020202010009040000010202000005244D
:1001700000100105240101010424020605240600E3
:10018000010705810310004009040100020A000074
:10019000000705020240000007058302400000043A
:1001A00003090412010002EF0201404123368000DE
:1001B000010102030141726475696E6F204C4C436A
:1001C0000041726475696E6F204C656F6E61726478
:1001D0006F000100000200000300040005F2EBEED6
:1001E000EBECEAE7E4E7E6E7E7EBF0F3FC0201FF1C
:1001F000FF0004080B090C10161A18161514141316
:10020000100E0B0C0D0C0C0D0A0703FE000202FD74
:10021000FEFFFFFFFBF7F3EBEAEBEAEBEDEFEDEBB5
:10022000EDEEEBE7E3DEDBE3ECF6FAF7FBFE0008CE
:100230000B04010303060F171B1B1B2023221F1790
:100240001212151C1F20201F202020180F0F0A0A31
:100250000B0A0B080401FCFEFEF6F3EEF2F7F8F7CA
:10026000F4F5F2F2F3F3F1F5F3EEF2FBFCF8F4F14E
:10027000F1F2EFEDEFE7E8EEEBEDF1F1E8E7EFEDAE
:10028000ECEDEDEEF1FC030407090A09060D181167
:10029000090F0E11151008101A1617171F14161033
:1002A00012160A0B1221FC0F2711FF08150C05046A
:1002B0000902F9EA0BF0DBFBFAF0D9FE00CFEC07FC
:1002C00005F6011803040B0B05F1EFFAEEE9000245
:1002D000F5F3FAF0D7ECFDE7E1DCE2DCD9E7E8E39F
:1002E000E4E4DFE3DEDCD1D4D8D9C7D9F4DBDDED3B
:1002F000FFEADEF2FB010B0D0B0909070C21293186
:100300002520342F242A2B2B2B393A282B3439340F
:100310002C282428272B3D403E382B242E210B034C
:10032000F8F4EAE3E5E6EEEDE0DFDFE1DFE5EAE65B
:10033000E4E8E5E1EEF6F4F1070A01FF0003F1F667
:10034000FCF2E9F0F3EEEFF9F2E0DCDED9DBF1FAF2
:10035000F2ECF6FDFCF4F3F1D8D3E1E3E1E4F0EBE9
:10036000E7FAF6E4E0E3D5CDDCE8EDE4DAEDF6EA31
:10037000E2E5E6E0E6F0EFECF3F7FCFA020D10152B
:1003800018272A2424272C35404F4F48453E38371C
:100390003C3D3A3C444B4B46403328261E0F080E4A
:1003A0000D040705FDFAF7F5F2EADECFC8C2B9BEC3
:1003B000CACDC8C4C1C1BDB4B3B8B4B2BDC3CDDB2E
:1003C000DFDFE0EAEFEFF5FD030301080E0C131E7B
:1003D0002220242B27252424282C323C3B3634345D
:1003E0003940443C2C2C373B3936363128231D17F5
:1003F0000F02EFDEDADADADDD9D8D7CEC2BEC1B865
:10040000B7BDBDB7B7C0C2C0CAD3D4D5D9E3E7E73B
:10041000EDEDEAEBF1F2F7081211131C1D17151E92
:1004200026282E2F292732372D211B11080A1613B3
:10043000080C171C1A1917100B0801FEFF0404FD05
:10044000FEFDF8EEE4E2DEDDDFDCD9DCDFE4EAF33A
:10045000F7F90308050101010103090F110C0B1144
:10046000130E06000209111B262A2014161E1F1740
:10047000110B05050B0F0D0C0E0E0A07F9EADFD361
:10048000C7BFC7CAC8C9CCCAC4C5C3BABBC4C8D110
:10049000DCE4E4E5ECEFEDF3FE01FBFA0002030718
:1004A0000C1112181F232A2D271D1D282D2D2D2A32
:1004B0002A2C323432312F29272C322F2726282D6F
:1004C0002B271F130900F9F6F4F7FBFDFDF9F6F1F0
:1004D000E9E7E4E2E1DDDADBDBD8D6D9DEE2E6E823
:1004E000EDF5F8F5F3F5F8FB00060C151A191515DE
:1004F000140F0F1517121015181412110A00FAF71D
:10050000F1F3F8F9F5F1F6F9F7F4EDE1D7D5D5D334
:10051000D5D8D3D1D1CECAC8C7C3C0C7CECDCAD211
:10052000E0E8F1000A0F121112171B1A181C212300
:100530001F1D22231B131212162430302C2B2C3398
:100540003A3E362C241E1D202625222427241A0D4F
:10055000FEEDE1DBD7D8DAD8D9DEE1DAD0CAC9C7F7
:10056000C8D0D6D2D1D6D9DBE0E5E5E4E5E7E8EAC4
:10057000EFF3F3F702090D151D2021252420242E69
:1005800033302C3034383A37322C2C2A2523221F92
:1005900020242826231E130B0904FEFCFF02050756
:1005A00004FBF6F2EDE5E2E5DFD6D5D7D6D2D0D61C
:1005B000DDE2E5E9EAE8E6E5E4E4E2E1E2E6EDF1E0
:1005C000F5F1EAE4E1E6ECEEEEECEDF3FD00FDF82A
:1005D000F3EFF1F7FAFB01080A0D131715110800E4
:1005E000FDFEFDF7F7FBFBF4F1F3EFE9EAF0F2F4BF
:1005F000F7FB02101D262C303536363738363331AE
:100600002E2A2A2925201D1A15111113181C19121A
:100610000F1418150F08FFF6EDE9E7E9EDF0F3F315
:10062000F1EADFD5CAC1BDBDBFC3CAD1D4D6D9D6C0
:10063000D0D1D8DFE2E5E7E8E9ECF1F4F4F2F0F04C
:10064000F2F4F3F3F801080F141A202A31322F2E96
:100650002D2D2F33322E2C2C2D2F2F2C25201E19F3
:100660001415191A1A1C1C17120AFDF1EEECE8E811
:10067000EFF3EFEBEAE8E2DDDADAD9D9DBDAD8DA60
:10068000DDDFE5EEF800060807090D12120E0B0A71
:100690000E161B190F04FEFCFEFFFAF5F6FC02070E
:1006A0000C0C07030101040605050B12161817139D
:1006B0000A01FDF7F0ECEAEAEAECEBE5DFDEDEDD6D
:1006C000DAD7D4D5DCE5EEF6FE0303050C100D09F0
:1006D0000A0B0C0C090401030504050705050A12A1
:1006E000141315181D242722180E03F8F2EFF1F544
:1006F000F8FAF9F7F3E9DDD7D5D2D2DAE2E8EEF489
:10070000F5F5F4F6F8F9F9F9FAFCFEFFFDFF02053C
:10071000040200FCF9FB01080C0D0D0C0F1720253D
:10072000211A1515181714110F0D0F141819171277
:100730000D0A0A0A0C131C21222628231C160F0757
:1007400004070603000100F9F4EFE8E2E1E2E3E563
:10075000E8E7E6EBF5FE050B0F1215191B1B191444
:100760000E0907080A0A0901F6EFEAE7E4E2DFDF0B
:10077000E3E6E6E6E5E2DCD6D4D2D1D2D4D6DBE4B9
:10078000E8E5E3E2DDD8D5D6D4D3D6DBE3E9EEEE77
:10079000ECEDEFF0F1F5FE0710191E23262A2D2EA1
:1007A0002E2C29282C2E2C26201D222D33312D2CA9
:1007B0002D303233303033373A3A32231307FFF8D3
:1007C000F4F4F3F4F8FCF9F2E7DBCEC7C6C8C8C806
:1007D000CBCED1D3D5D4D2D2D1D0D3D8DADBDEE4CC
:1007E000E9EBEEF1F2F3F3F4FB050E111315191F0B
:1007F0002830312C26221F1E1A110A070A0E121643
:1008000017151415131113181B212A2F2F2D292307
:100810001B130B040000FFFEFDFCF7F0EAE7E5E325
:10082000E2E1DFDDDCDDDEE1E7EBEFF3F7F9FAFD36
:10083000FEFCF8F3EEEEF5FBFCF9F6F1EDECEBEA7D
:10084000E9EBF0F4FA0206060705FEF9F6F3F0F11B
:10085000F5F9FD0000FDF9F7F6F2F0EFF0F5FD0611
:100860000D100F0C0704070A0C0F13181C21252963
:100870002C2B272425272928241D1108060A0F10B0
:100880000C0601FFFDFBF8F9FBFE030604FFF7E988
:10089000DCD6D3D1D1D7DEE7EDEEE9E0D8D4D4D69B
:1008A000D9DBDADCE1E7E9EAE9E5E0DEDFDFE0E336
:1008B000E7EDF4FAFF010407090B0F141B23292BA2
:1008C0002B2D2F33363736322D272019120D0B0ED4
:1008D00013151313120E0A07040204080D11161A39
:1008E00019120A04FFF9F5F3F2F4F6F6F4F3F4F34F
:1008F000F1F1F1F1F2F4F8FBFE0001050A0F11121B
:10090000111010100C04FCF6F6FA000402FFFEFDB4
:10091000FAF8F6F3F2F7FD03090C0903FFFBF5EC17
:10092000E6E3E2E4E8EDF0F1F0EDE8E2DCD5D1D287
:10093000D8DFE3E6E7E6E2DEDBDADBDEE4EAF2F884
:10094000FC0105090C1012161C2325201912111781
:1009500021282927251F1A1814100D0F12151614F7
:100960000E06FEF6EFEBEDF2FA030C10100D090483
:1009700000FDF9F6F5F5F6F8FBFDFEFCF6F1EDEA03
:10098000E9EAEDF2F6F6F6F9FAF9F7F6F4F5F9FF19
:100990000405050403060C0F11110F0B0600FAF7EE
:1009A000F9FD01050A0F1215171615131314171B5D
:1009B0001E2022211B110700FCFAFAFAFAFCFF03A1
:1009C000080B0A06030407080A0B0A0706060709AC
:1009D0000C0C0A0808080702FBF2ECECEEEFF0F052
:1009E000ECE6E1DCD7D1CECCCDD1D8DDE0E0DFDB69
:1009F000D7D4D1CCC9CBD2DCE8F3F8FAFAFAF6F4C2
:100A0000F4F7FC020A101314110C0701FCFAFC02A3
:100A1000080D1215181D242C3135383C41423D3447
:100A20002E2E313435332E29231D150F0B08070ABE
:100A30000E0E0A03FBF1E9E1DCD8D8DBDFE4E7E7DF
:100A4000E2DCD8D4D0CDCBCACBCED3D7DBDFE0DF4E
:100A5000DEDEDDDFE4EAF1F6FBFE02060807040352
:100A600005080C0E0B080506090E121313141412B8
:100A70000D0908090D12171B2024252422201E1BF6
:100A80001A1A1C1F2325231E171009040301FFFD3A
:100A9000FCFDFEFFFFFCF8F4F1F0F2F3F3F1EEEDF4
:100AA000EFF3F6F8F9FBFC00050602FDF9F7F9FD96
:100AB000010305060502FDF7EFE8E6E7E9EBEDEED9
:100AC000EEEDEBE7E3DFDCD9DCE4F1FD070D0F0E23
:100AD0000C0805040506080C1012110E0700F9F5A4
:100AE000F5F6FBFF02020304070B10131416181788
:100AF000120B050100020506060400FBF6F1EDEA03
:100B0000ECF1F7FC00FFFBF6F3F0EDECEBECEFF6AD
:100B1000FC0000FDF7F0EBE5E2DFDDDDE1E8F0F5FC
:100B2000F9FCFEFDFDFE02070E14181B1D1F1F1F02
:100B30001D18161618191816120F0F12141516155F
:100B4000110D0903FCF7F4F4F6FAFDFF01030403A9
:100B500001FFFCFAFBFF050A0F100F0C080402034B
:100B60000405070A0E11141614110D09040201FEE2
:100B7000F9F5F2F1F4F8FAFBFE03090C0C0B07058A
:100B80000507090B0C0D0D0C07FFF3E9E2DEDEE0B3
:100B9000E2E3E3E4E4E3DFD9D0C8C5C9D1DAE3EAAC
:100BA000EFF0EEEAE6E4E2E3E6EAEEF1F4F6F5F180
:100BB000EEEBEBEEF4FA0005070A121C252B30349D
:100BC000383A383229231F1C1B1A191714120F0B1D
:100BD000060302050C13181B1C1B1814100D080427
:100BE0000303040608090702FBF2EAE5E2E0E0E29B
:100BF000E5E8ECEFEFEEEAE6E4E5E7E9EDF0F2F345
:100C0000F4F4F1EEECECEDF0F3F2F1F2F5F9FE02B2
:100C100005080B0E0E0C0907050303030507090A57
:100C20000908060402010002060C131B2021201FE4
:100C30001F1E1E1E1F202224252524211D17130FD1
:100C40000A0603FFFAF6F5F6F6F7F8FAFCFFFFFCE2
:100C5000F8F4EFECEAECEDEEEFF0EEE9E1D8CFC915
:100C6000C8C9CDD2D8DDE2E6E8E6E4DDDDDBDDEBC8
:100C7000F602090E110F0D04FEFCF7FAFDFE010449
:100C8000070707050505070E1618171C1A2A2E2335
:100C900033373B343A332C341B2218020F1209002D
:100CA0000CFFFF02FC02F1F1F5FDF4F3F5E5EBE8D2
:100CB000E9E4DAD9D7D9D6E6EADAE3DED2D3D3C982
:100CC000D3D8D6E6E5EFF5F9FCFAF8F3F8F9FEFF2C
:100CD00001100704030305F60508090A0F16111D84
:100CE000222016122328252AFFFAFAFCFBF9FAFE25
:100CF000FEFFFDFCFBFAFCF8F4F7F5F7F4F5FBF367
:100D0000F3F4F2F2F0EFEFEDEEEEF7F3EBF0EDE9E6
:100D1000E4E8EAEFF8EFE8EDE8EBEBE4EDE8E3EA2E
:100D2000EDEEF0FAFAE9E3E8F1F00211FFFCFB0561
:100D3000FFFB130FFA00070B1B28241A0A06121ACE
:100D40001E1B1C10040403F6101EFDFDF7E9F3F34F
:100D5000F4FDEAD9CFCEE7FBF8F8EEDEDEDDF114E4
:100D60001F1F1606091B211E25110E0F142E252DDF
:100D70002200F3F2F9060B090803FA02FCFD0E1437
:100D80001408090D101D2518100F0D0A151D130844
:100D90001013091B27251C11080700000812141343
:100DA0000A001A111109F4F8EEF5FEE7DEDAD2E7CF
:100DB000EFECF0F6FAFCF7F2ECF3F6EBF3F3E8C93C
:100DC000D5F8E3CBC3C4D1C8D1D9CBD6DBD1C5D7F5
:100DD000F3F2FCF7F0EAE5FEF0EAF40A09E9F90CAF
:100DE0000C0C0FF0D2D9E6DFE30B312A161C1801E8
:100DF0000D1B08F6F402101A2D392A1E1609FC09DB
:100E00002214020B01F102112633332C180A13228B
:100E10002F3127221A1A252223231B1500FEFEFC40
:100E2000F6EAECE3DAE1F203090400F8EEE9E9F3AB
:100E300008131C2427251A0C09FEE9F6FDF9FEFE0D
:100E4000FAFE0809F6F2FDE9D4D9DDDDDADAE8E8E0
:100E5000EEF9FC00F3E6E7DFE2EAE3E8E5DED5D40D
:100E6000E8F2FB04FD0A0DFB050F1C251E1E10FDFC
:100E7000FC0301EBDBD8DAE5F6FC020D0D04010BF7
:100E800004FB0E201F1C21232840503A2328291838
:100E90001425261710FDEBEBF60B0C050B06F5F9E8
:100EA000FFFAF1F603F5EE06170CFFF6E8D9D2D2F9
:100EB000D8E4F3FDE6CDD8E9ECEDF1EAE4ED041079
:100EC0000D151C1B13060306090B06FEF9F8F7F6B1
:100ED000F9F4E0CBC0BEC2C7DAE5E7E8E6DBD5E669
:100EE000E9E8F1FAFCF5F8F9E8F201F2F6FEFDFEA8
:100EF000F9FE00FAFBFF02010B160D070C0C0E1693
:100F000029393B40413C343036372E251A141B22F8
:100F10002631393C404447474441372D25191B238E
:100F2000211F1607F2E0DFE1DCD9D9D6D4D6D8D21A
:100F3000D2DFEAE5E1E5E3EAF3F2F4ECE3EAF1F02B
:100F4000F2F5F4EAD3BDBCCBDCE7F2FC010102030D
:100F500004FBE9E1DEE3F6070C10120C01F3ECE60A
:100F6000E7E9E4D8CBCFE2F0F1EEEDEAE2E2E7EE3A
:100F7000FBF9F1F3FC0300020B07FCF4F0EEECF0DC
:100F8000F3E0D3DADEE2EBF5FAFCFEFBF3F300105C
:100F900018202F383C41423E3733302E343C39360E
:100FA0003F45423934352B201B140F0C0B0E111703
:100FB0001E20241D0E050606FFF8F4F8F8F1EFF2E6
:100FC000F7FBFEFCF7F8F9F8F8030F0C03060E0D1B
:100FD0000A08FCEAE3E7E9EBE9E9F2F8F4EDE6E612
:100FE000F1FBFF000003070E171B19150C00F4F3AB
:100FF000F9FEFEF2E4DDD7D5D5D5D8D9D8D6D5DAE5
:10100000DBD2C5C0C6C8CBD8E2E8E9E3D3C5CBDCA8
:10101000E4E1DEE0E2E2E7EDECEAE8EBF3FB03110A
:101020001A1E21232624272E2B28241E1F262E2A73
:101030001F180E01F5ECF0F8FAFD020603FEF8F3B6
:10104000F600080E13181814171C19181F241D1762
:101050001B201A0D070D171A1A1D1F1C1206040E4D
:10106000192631393E3B393D3D3830281F181414BC
:10107000171D222624201F1E21241A09FDFE080DFB
:101080000802FFFCF0DECFCACCCAC3BFBBB5B7BCF9
:10109000C0C2C4C5C4C1C2C5CBD1D2CEC9CCD6DEB4
:1010A000E4E9E8DFCEBFBAC2D1D9DDE6EEF6FDFF56
:1010B000FBEFE7E4DFDDE4F60C161610090C141361
:1010C0000B02F9F3F6FD00060A090600FC01080E02
:1010D00012100D0E18222A31332F28232525201B0C
:1010E00016110800FDFE030709080502FEFCFD03BA
:1010F0000C1726353E403C343030343533373D3ED6
:101100003E3C3B372F261E16110F0AFEF4EFF0F877
:10111000FE00030300FCF7F1EDEAE6DFDBD8D6D6EC
:10112000D8DFE5E0D4CCCDD6DDDEDBDBE2EAEDEFE7
:10113000EBE6E4E4E2DFDCE1E6E9EAE6E3E0DBDA81
:10114000DDE4ECEDEEF60108111817130D030106AE
:101150000F15110904FEF9FAF7EEEBF1F4F0EEF4D5
:10116000FAF7ECE3E1E1E5F30105FFF4F0F6FD0148
:10117000010002070B0A080500FF02080C0F1723E5
:101180002826222026303638373534333436363365
:101190002E261603F1E9EBEDE9EBF2F2EBE5E1DAED
:1011A000D8DDE3E8ECF0F1F1F7FEFDFD03090C09F1
:1011B0000705FEF7F1F0F4F8FD030704F6E8E4E8AC
:1011C000F0FB08141C21272B2B261F1A150F080AC9
:1011D0001419181310131A1C170E06030200000628
:1011E0000D110E06FAF1EFEDE9E3DDD9D1C8C8D350
:1011F000DEE1DDDCDEE0E3E4E6E9E9E7E2E5F20496
:10120000101006FCF0E7E6E8EDF2F5FAFF060E1521
:10121000161003F3E8EAF3FD070D0C0B0D12141181
:101220000B0703FEFBFC01050602FCF8F7FAF9F8D0
:10123000FBFAF5F3FC0C171C1F1F1E1B18181614C5
:101240000E0902F6ECEDF4F9F6EDE4E1E2E0DFE39D
:10125000EAF1F6000D13151819161313161F2B3289
:101260003535322B20161518140E0901F7F0EDED67
:10127000ECECF2F8FAFBFE0203FFF9F3EFEFF1F307
:10128000F4F4F0ECECEEEFEDECECEFF1F5FD04072F
:1012900001F9F8FE0200010810130E05FEFBFBFC2D
:1012A000FBFAFAFBFF060D1620251D110E1116196B
:1012B00018191918160D050201FCF3EDEEF1F5F8F9
:1012C000F8F4E8DFDBDDE1E5E7E6E2E1E3E5E7E9C5
:1012D000EBEDF2F8F9FAF8F3EDE8E9F0F7FF060BB9
:1012E0000A070302060C1013161A1F2223272C2AA2
:1012F00022160AFEF2E6DDD7D6D9DCDCD9D5D2CE6D
:10130000C8C4C7CDD1D4DAE3E9EDF0F3FA040E1482
:101310001515120B0401050C151B1C180D02FBF80A
:10132000FC050F1B252D36404848403731302F2E05
:101330002E2E30353836302C28221B17130F0F1263
:1013400015161717120B040100FCF3EAE4E1DFDEC7
:10135000E1E4E3E0E1E5E9EBEAE7E2DBD9DDE6F44D
:10136000FF0401F9EDE4E1E2E3E5E5E6E9EFF5FB91
:10137000FEF8ECE0DADADDDEE0E5ECEDE8E5E7E901
:10138000EAE9E6E1E0E6EBECEBEAE9E7E7EAEBE9DC
:10139000E6E1DEE0E6EEF6FF0B141717181A1B1B4A
:1013A0001915110B0503050705FEF8F5F1EDEFF52D
:1013B000FBFF02060B11181F22201D1D2127303BA9
:1013C000464B493F36302F2E2B2826221B110C0C62
:1013D0000B0600FDFD0108101414100C070405078E
:1013E000090700FBFAFAFBF8F3F1F4F7F8FAFBFA55
:1013F000F8F5F0EDEFF4FB01040603FDFAF8F4EF65
:10140000EDEAE5E2E6F1FC020300FAF4F0EFF2F8AF
:10141000FE0100FBFAFBFBF8F1E8E1DBDCE0E5EACA
:10142000ECE8E0D9D7D9DCDDDDDCD9D5D4D4D6DA07
:10143000E0E7EFF2F2F2F3F2F0EDECF400090F1353
:10144000131312110F1014181B1E222930383E3F9F
:101450003A332C23160A0300FBF4F3F4F2EEEAE825
:10146000E7E2DDDADBE2E8EDF1F3F4F7FD07101572
:10147000181C1C181310101620272923170D0705F8
:1014800003010208141D252E383D39312B29292747
:101490002524262A2D2D2924201A11080200FEFEBB
:1014A000FEFEFCFAF8F6F6F6F4EDE3DCDAD9D7D670
:1014B000D5D4D2D2D3D6DADEE1DFDAD2CDD1DBE7B2
:1014C000EEF0EFECE9E8E8E8E6E3E2E4E9F1FAFF60
:1014D000FFFAF2E9E4E3E5E9EDF2F5F2EDEBEBEA30
:1014E000E9E9EAEAEAEBEEF3F6F6F6F8FCFE0000CC
:1014F000FEFBF9F7F6F8FD040E181D20242A303201
:101500002F2B28262523211E19130B05FFFCFD0276
:10151000070704050A11141515130F0E111A2631A9
:10152000393C3B362F2825282A282118120F0F0C6A
:1015300006FEF8F2EDEBEDF4FAFCFBF9F9FCFFFF27
:10154000FDFBF7F3F1F0EEECE8E7E8EAECEDEDEDAA
:10155000EAE6DFD9DAE3EEF6F9F9F7F6F6F5F2EFB7
:10156000ECE8E2DFE2EEFC050703FDF5EDEDF2F756
:10157000F9F8F9FE060C0E0C05FBF1EBECF2F8FCA9
:10158000FCF9F4F2F2F5F7F6F5F3F0EDE8E5E3E354
:10159000E7EDF5FD0202FFFCF6F0F1FB09151C205A
:1015A0002324221E1A191818191B20272F363B3DF9
:1015B0003A36322D251B1006FFFAF6F2EEE9E5E188
:1015C000DBD4CFCDCFD3D5D4D4D5D9DEE4E9EFF673
:1015D000FE0402FCF6F7FE08101516140F0900FAB7
:1015E000F8F7F6F7FB020A131B2125252523201EF9
:1015F00021262829292A2824201D1B160E07040528
:10160000060500FCFCFDFDFCFBFAF7F5F0EAE6E65A
:10161000E8E8E7E4E4E8EFF6F6F1EAE6E5EAF2F90D
:10162000FCFCFDFDFBF9FBFEFFFDF9F8FB01080CDE
:101630000D0B06FCF2EEF0F5F9FCFCFBF7F2EBE625
:10164000E4E2E1E1E2E3E3E3E2E2E5E7EBEFF3F634
:10165000F8F9F6F1EDEDF1F6FAFF03060B11171AA2
:101660001C1F2021211F1C1A160F04FAF3F1F2F59A
:10167000F8F8F7FAFE0000000100FBF6F5FD0B1B81
:10168000282E2D251D191A1D21221F1B1714121279
:10169000100901F9F5F4F5F8FAFBFBFBFD030A0E5E
:1016A0000F0F0E0B0601FFFF000001FFFE010405F6
:1016B000FFF6EEEBECF0F801080C0C080505040150
:1016C000FAF3EEECEFF90610120D05FEFBFBFBFA48
:1016D000F7F5F4F6FD060E110E04F8F0EDF0F5F84E
:1016E000F8F7F4F0F0F2F4F6F7F5EFE9E3E0DDDC1B
:1016F000DBDBDEE5ECF0EDE7E1DCDADDE5F1000D6A
:1017000014151312110F0A0504070D141B23292C9D
:101710002B282624201B160F06FCF4F0F1F1ECE434
:10172000DAD1CDCCCDCDCDCED1D4D5D4D7DFEAF55D
:10173000FC00FFFAF7F7FE060F181F211E19141000
:101740000C0908090E14191C1E20242728292B2EE9
:1017500032363B3C3B3A3835322D272322211E19A5
:1017600015120F0D0A070403030300FCF8F6F6F543
:10177000F2ECE6E3E6ECF2F5F3EEEAE8E8E9EDF2A6
:10178000F4F4F1F0F0F1F3F4F4F3F2F3F4F6F9FD1C
:10179000FFFEF8F0EAE7E8E9ECEEEFEEEAE5E0DA82
:1017A000D4D0CED0D0D0D0D0CFCDCFCBCCD1D7E12C
:1017B000E7EAEBE9E6E8ECEDF0F7FCFF01070B0DDB
:1017C00012181B1F252A2F2F271D120D0B0A050388
:1017D00007050A0A0502080F0C0604FE030D15236F
:1017E0002D3A3C352E272A2D282B2D272828242139
:1017F000211B0B00FDF9F9FDFDF9F9FBFE020913B0
:10180000191918170F090A0D0A0406090910120DF3
:1018100006FDF6ECE3E6F0F900040605090D0C05FB
:10182000FDF3E7E1E5EFF8FDFFFAF3EEECE7E5E4C1
:10183000E0DAD7D9E0EAF5FBFCF7EEE9E8E8E5E421
:10184000E4E5E5E4E4E6E9ECEFF0EDE9E5E2E1DF2B
:10185000DCDDE1E8EDF2F5F4F3EFE9E9F0F8FE04A0
:101860000B1014140F0904FFFBFB00070D13171DC9
:101870002226292B2F33302921191410100C05FD95
:10188000F8F2EDE8E4E1E1E4E6E7E6E5E5EBF806A9
:101890000F1417171514151A1D2123221E1B1711BB
:1018A0000903000003060A0E1214130F0D0F14187B
:1018B0001E252B31322F2B26211B171513100E0C32
:1018C00009070400FEFDFBFCFEFDFBFBFDFF010024
:1018D000FAF1E8E1DDDCDBD8D4D0CECCCBCDD2D769
:1018E000D8D7D6D5D7DBDFE4EAF0F4F4F6FB000571
:1018F000060401FCF8F4F3F7FC02050604FFFAF70E
:10190000F3EFEDEDEDEFF2F4F6F6F4EFEBEAEAECDF
:10191000EFF1F0EEECECEDF0F4F8FE020507080A4A
:101920000D0F141D27313538342B261B1108090BD8
:101930000D0F0B0707070B0E0E0A03FCF9FD08132A
:101940001D262927231C181714110C090606070742
:101950000700F8F0E8E3E5E9EAE8E7E7E6E8EEF5AE
:10196000FD050A0B0B0B0908070707070A0F1315DC
:10197000140D02FBF8FD060A0D1215151B1F211D83
:10198000140D00FBF9FA010506FFFAF3EDF2F1EF91
:10199000EAE4DEDBE1E4F1F4EAE9E8E4DDE0E0E0FA
:1019A000E9E9E6E6E5E9EEF2F2F2F4EFEDEEECE974
:1019B000EDEEF1EFF2FAF8FBF1EAE9E9EDF2F9FE0A
:1019C000031118161713120A070E10151C211D18E3
:1019D000191E1E2122221F1C21170E0D0A070005A9
:1019E00005FCFCF6F2E9E1E2E3E7E5E6E6DBDFE849
:1019F000E8F3FAFBF7F1F8FCF8F9F8FAFD01090B46
:101A000005040802FBFE030A08101A161611100836
:101A10001222262E302C2D2E2E2A21170F10181CA4
:101A20001E1A0F0C0B0B080704FFFDF9F6F8FAF865
:101A3000F5F2F4F1EDECEFEFEAEFF1EEF4F4F2ECA5
:101A4000E8E6DEDADEE0FEFFFE0104FFFAFEFEF964
:101A5000F4F1F1F2F6F5F9FAF3F3FB0402F8F2F31C
:101A6000F5F3ECE6E9ECE6EAE7DFE2DCD6D9D0D242
:101A7000DCDADCE1EDE9E3E6EBFAF7F3F6F4FD039B
:101A80000505FF0D0C071A2222171928261C222BE8
:101A900028232D332A2F35413426393D2D2C292A50
:101AA000221F1B0E130F120B0201F6ECE3E4ECF203
:101AB000F1E9F0F3EDF0DDCFD8D7D6E70701EBF988
:101AC0000002090D02F7F2F3FFFCF90000F8F5F649
:101AD000F2EAE8E5DBDEE9ECE4DAD4E1EBE9F2F99D
:101AE000FBF3F5FBF4F3F9F9ECDCEEF8F906FDE1B4
:101AF000FB19121E140C0E1915030D101626243294
:101B0000303035293027190E04FCF1E3E7ECEDEB1A
:101B1000E2DFE5EAE5EBEBDFD7E9F1EBF5FFE7D153
:101B2000E8FCF8FC140CF1FF1B110322230D152512
:101B3000242143463C3D3038423635402F1D1C1889
:101B4000130BF8EADCEAFAEFE6E0D8D0CED8E2DB15
:101B5000EE05F9F0FCF9DAD6D6D0E1EBEDE6EFF5DB
:101B6000E2D3D1D8CDD3E1DEDBDCE0D6D3CCC0D319
:101B7000DDDDE1E7EEE8F1E9E0F2030C0C0F06FA37
:101B8000FF040C0C0F1610192B31291E18161927DB
:101B90002E2C2E291B171F252A2D2721333A363E9E
:101BA0004D493231342A1E2217080A06020708F26C
:101BB000ECF2E4D2CDCDD0DAE7E6E1E5E6E7EDFF01
:101BC00003010811150A03FDF5FA04090A02FE0DC6
:101BD0000CFFFC030A0703FF030605F8EBF5FDF015
:101BE000E2EFFCEEE7F0E8DAE6F7F0F2F3ECEEF421
:101BF000F5E9E7E2DCDEDDE7F5030C0E1415181F4E
:101C00001B0DFBF5F3EDF500FFF6EFEEEFF4F5ED50
:101C1000E5E5DBCECBCCD2CFCECCCED0D0D4CED19E
:101C2000D7CFCFE3EAE8F0F5EEEEF908161F1E1D58
:101C30001F1C1C212C2D2D323435353D494A453E83
:101C400042545E5143463F373D4544403B3C3B3662
:101C50002D21160E0906090E0F01F0E9E5E1E0E07D
:101C6000E1E5E1DADDE3E3EEF1E7E4EBF7FF03FDC5
:101C7000F7F7F2ECEDF3F6F0E7E6E2DAD7DBD8D5EA
:101C8000D8D9DFEAF1F1F0EAE0E4EBEFF4F9F8FAA1
:101C9000FDF7F5F8FEFEFCFD00050601F3E2D8D2E3
:101CA000C7C1CCD8D8DBE0DCD7DAD7CCC7C5C9CC24
:101CB000C9C9CACCD1D7DADEE7F0F5F4F1F0F6FE07
:101CC00008100D0F1A24292E32302E363D41444380
:101CD00047525B60696E6C665F5C5E5B5757524B48
:101CE0004641362F2B241F1C1813110D03F4E3D883
:101CF000D5D4D6DDE0E0E0DDD6CFCCD0D4D0CED088
:101D0000CFCED6DAD5D5D9DEE9F5F9F6F3F2F1EE94
:101D1000EEF3FC0103080C0A0804FAEFE9E9EDEE22
:101D2000EAECEEEBE9EBEDF0F3F3F4F6F3F1EFE9C7
:101D3000DED7D9E2EAF0F6FF00FAF2E8E0DEDAD424
:101D4000D4D6DCE8F0EFE9E8E4E8F2F4F1EBE3DE26
:101D5000DFE4E7EAF3FB00080E0D0A0701FCFC04D0
:101D60000A0F18222320242B343D3D3C3C39383BBC
:101D7000404645403E4448484A494744403A38373F
:101D8000332E24191A21242521160D0E0E070403C3
:101D9000FFFE010301FCF8F4EEEBEEF0F0EDE3DB07
:101DA000DEE3E2E4EDF2F2EFEFF5F7F0E7E3E1E294
:101DB000E7EBEBEAE4DEDCD9D3CFCCCBCDCAC6C5AA
:101DC000C6C7C9CBC4BDC0C9D1D6D7D7D9DBDFE719
:101DD000F0F3F4FB000100FCF9F4EEE9E5E6EFF3C3
:101DE000F1F4F8F4EEEEF0F0F0ECE5E1E1E3EAEF27
:101DF000F1F4FB050F151311110D0D1017202527F8
:101E0000282723272E312F2E32383D41434A525660
:101E10005F6C726D6865605A56565452504A44421F
:101E20003F3429241D140E0904FCF1E6DDD8D7DB6C
:101E3000DFDEDCD8D2CDCCCBCACAC8C5C4C6CACFB7
:101E4000D2D3D1C8C7D1DADAD2C8C0C2CBD3DADE96
:101E5000E0E2EAF3F6F1EBE5DEDADADCDEE5EDEF1F
:101E6000F1F5F6F5F7F8F6F3F1F1F3F1EDEAE7E75E
:101E7000EBF3F9FEFFFBF9F8F6F2EEEEF1F6FC02F9
:101E800007070503FDF4F1F1EEEAE3DEE0E7EDF329
:101E9000FB02070D14181713110F0E11181E232C17
:101EA000333A43494B4F524D46423F41454A4E50CB
:101EB0004B45403E3F3F3C3A39373635322C251EA4
:101EC00018131013140F05FAF1EAEAEEECE8E9E949
:101ED000EAEAE5DED7D6D8D9D8DBDCD9D9DCDDDF34
:101EE000E4E8ECF4FEFEF7EFE9E7E4E1E0E1E4E743
:101EF000E9E4DED6CCC4C2C0BEBCBDC2C7C7C4C440
:101F0000C1BFC1C3C6CDD5DADAD8D6D8E2E9ECEE86
:101F1000F0F1F3F6F5F2ECEAEEF3FD0A1216161004
:101F200009080C0D0D0D0C0B0B0E13161616161CB6
:101F3000262E302C261E17171D2327282B3133322F
:101F4000343839383632343C444A4F505257595657
:101F5000514B423B3B3D3F3C39383736342E251FF1
:101F60001A100801FAF2ECEAECEEEDECEBE9E5DD33
:101F7000D3CCC8C5C6C7C5BFBBBDC1C4C4C3C3C419
:101F8000C6CACBC8C3BDB5B1B6BEC7D1D5D3D4D6EA
:101F9000D6D2CDC7BFB9BAC1C9D1D8DCDEE5EDF222
:101FA000F7FCFAF7F8FBFBFAFB02090C0F14191CFB
:101FB0001D1914110F0F13181C1F2021211F1A188F
:101FC00016100A03FBF6F8F9F6F5F7FC07131615D9
:101FD00013100900FCFCFAF9FF0710181F252E3812
:101FE0003F43464743403E3E3E41495255534F4A88
:101FF0004644413E3A36343739352E21150F0B070A
:102000000300F9F2EEEBE9EBEFEEEBE5E0E0E0DB0D
:10201000D2C9C4C1BCBABCBCBBBCBEC0C6CED5DB79
:10202000E1E2E1DFDFDEDDDDDFE1E0E2E6E8E9E796
:10203000E1D9D2CECBCBCBCCCDD0D3D6D6D1CFD08D
:10204000CFD1D8DFE2E6E9EAEEF6FE0204030101B1
:10205000040502000001060F1615110D09070808F6
:10206000050404050C141C212224282A2C2F3232AA
:10207000302F2E2D2E303537353334373D413E3914
:1020800036322F3033363E484E4F4E4D4A433C3465
:102090003031333333332F261C1309FEF6EDE4DFE2
:1020A000DCD8D5D5D7DBDEE1E2E2DFDBD3C9C0BBCC
:1020B000BBBEC3C9CFD4D5D4D2D0CFCDCACCD0D05B
:1020C000C9C2BCB8B8BABEC7D2D9D9D7D6D6D4D06F
:1020D000C9C0BEC5CFD7DFE5E6E6E8E9EAEDEDEC3D
:1020E000EEF2F5F7FAFE040A111920242628272516
:1020F0002220242D39444B4B47423D3830241711C0
:102100000E0D0E0D0B080704040C1417130B02FC24
:10211000F8F7F6F4F8FE030C171F232628282827C3
:10212000211C1A1A1D232B3234323132323233340D
:1021300033302C2B2B2B2A26211C160F0B0903F8CE
:10214000F2F2F6FBFDFAF6F2EBE1D7D0CCC7C1BB59
:10215000B7BAC1C5C2BDBEC2C7CFD7DDDFDDD7D3D9
:10216000D0CDCACACDD1D4D6D8DBDDDDDBD7D3D034
:10217000D1D4D9DBDBDADADBDEE4E9EDEFF2F8FD2E
:10218000FCFAFC01070F15181A1A17120D0C0D0F87
:102190001214181E24231D1915100C090605050616
:1021A000080C100F0B0A0E12141516161311121626
:1021B0001C23292C2E2E2E2D2D2E33383A38333435
:1021C000393C3F43484C4C4A46413E3B342C262543
:1021D000272A2920140C03F9F0E9E3DDDAD8D8DC4A
:1021E000DFDFDEDCDAD6CFC7C0B7B0ABA9ACB4BF97
:1021F000CAD1D4D6D9DBDCDBD9D6D2CFCED1D4D498
:10220000D4D9E0E6E9E9E8EAEEEFEAE4DFDCD8D7A2
:10221000D8DDE5EDEFECEBEFF3F6F8F9FAFBFD00B6
:1022200004090D10121518181816141213151A2275
:102230002C353C3F40403E3730271C120B080C1316
:1022400017161517191B1A17110A03FBF7F7FBFDD1
:10225000FBF8F7FA030C1215181B1A171412100FBB
:1022600013192024242120201E1A16120F0E0F0FDE
:102270000F0E0B080706050505030200FEFCFBFB1D
:10228000FF05080703FFF9F1E5D9D1D0D3D6D9DC92
:10229000DDDCDBD9D6D9DEE2E3E2E1DEDCDBDADB72
:1022A000DDDEDFE1E6EBECE9E4DFD8D2CFCECFD064
:1022B000D1D1CECBCDD3DAE2E8EEF4FB01040606B1
:1022C00006080F19212528282725221F1F24282A20
:1022D0002C2D2D2A23170A01FDFBFCFF0305060602
:1022E00006070808080A0B09040203080C0D0C0A6B
:1022F0000A090A0C0D0E111315191B1F252C343C4D
:1023000041403A37383B3C3B3A3A3B3C38332E2944
:102310001F150D0702FFF8EDE4E0E0E1E4E6E8E771
:10232000E4DFD9D3CCC1B7B3B4BAC2CBD4DADCDBE7
:10233000DAD9D7D4D1CDC9C6C5C6C8CCD1D8E0E783
:10234000EEF5F9F9F5F1EDEBEAEBEDF2F9FDFEFB57
:10235000F9F6F6F9FCFF050B0D0A0604040507095A
:102360000C0F13141514120F10151D242C32383CA9
:102370003B373026190D03FCF7F4F3F5F9FD0105A1
:10238000090C0F100C01F5EDEBEEF2F6F9FD030868
:102390000A0D1012161918181A1D1C1916151616E2
:1023A00015161717151211100F0D0C0E100F0B0824
:1023B0000707060400FBF8F5F3F4F6F8FAFBFCFE59
:1023C00000FFFBF4EFECEAE7E5E6E8EAECEEF2F812
:1023D000FDFFFEFDFBF9F9F5F1F1F4F8F9F8F5F37D
:1023E000F3F2F0EDE8E3DDD9D7D6D5D4D2D1CECB18
:1023F000CBCED3D9DFE5E8EAEBE9E9EAEAECF0F89D
:10240000010A101213141A2023242524242526221D
:102410001F1D17110B070402030607080B101212E9
:10242000100601FAF8FAFBFE000406040503020692
:10243000070B0D0E0F0F1114161B1F1F24282B291D
:10244000262624272C2D2E2D3339352F261E150D0B
:102450000B080100FDFDFDFE01FEFAF8F8F6F3F4AD
:10246000EFE3DCD4CFCBCDD5DCDFE1E4E2E4E5E2A1
:10247000DCDADCD8D6D4D1CFCFD4DADFE5E8EDEFA3
:10248000F0F0EBE4DEDBD8D8DDE1E3E4E4E2E1E127
:10249000E4E7EAF0F6FC0104090B0B0D0F13191E1B
:1024A0002020201F201F1E1F23272B2E302F2B23E1
:1024B000180B01F9F3EEEDEFF2F6F9FD010203025C
:1024C000FFFDF9F6F5F5F5F5F5F6FA000A12191D16
:1024D0001F22221F1C191616181916171919181859
:1024E000181717181919191B1A18181A1B1D1E1F4F
:1024F0001C18161211121416130F09060402FDF609
:10250000EEEAE7E6E7E7E6E3E2E0DEE0E2E3E5E67F
:10251000E7E5E3E1DDD9D5D4D4D6DBE0E4E7E8E8CC
:10252000E5E0DDDAD5D4D5D4D6D7D5D6DADFE6ECFA
:10253000F1F5F8F8F6F4F4F3F5FA0209141C232780
:102540002B2B27292725231E1C1E1A1915100A08B4
:10255000040300F1E9EFF1E9F0F3F3FF0200FFFB00
:1025600002030102050808080B0F0D12120E110DCF
:10257000070906020001030605080E1112181B19AF
:102580001C1B1D1B1E21201E14141A181E1F1E1991
:1025900013110F1315130D0D0A050300F8F4EFECDA
:1025A000F1F3F6F6EFE9E9E6E4DEDEE0DBDBDDDBC6
:1025B000DAD8D8DBDCE1E6E9E8E7E8E9EBEFF0F1CF
:1025C000EEEBEDEBEBE9E4E4E4E4E4E5EAEAEDF775
:1025D000F7EEF2F9F9FF01040A10181A16191F1E76
:1025E0001612151A180C040004FDFD01F8F5F6F298
:1025F000F2F0F3F8F6F5FC05080B101B1311161892
:102600001C18161915100D080708090808050405F7
:1026100008050C0F1519181E21211614181314146F
:1026200011110C08090C11161314150F0B0701FFDB
:10263000FEFC0305080B04FCFAFCFBF6F5F8EEE5DE
:10264000E6E3DFDDDAD7D6DADDDEDCDAD8D9DCE1C5
:10265000E7EFF4F4F9FCFAFAFBFBF7F3F4F4F0EC2F
:10266000EBE9E7E4E3E8EEF3F1EEEFF8FDFDF9F571
:10267000F9FEFBF9FDFF010204080A0C0C0A060131
:102680000004040404050A0C0E1211101113121197
:1026900013141214161C1E1D1B16151514131212DA
:1026A0000F1014161716141413141715100D09060D
:1026B00007090703FFFF02040606060200020100E5
:1026C000000100FEFEFFFDFCFBF8F4F4F7F8F7F65E
:1026D000F3F0F1F4F3F4F5F2F2F1F1F0EFEEEBEAEE
:1026E000EDEEEFEFEEECEBEBEBECEEEDEBEBECEE1F
:1026F000EFEDECECEEEFF2F5F6F7F7F7F7F6F8F8AA
:10270000F5F2F1F0EFF0F1F2F3F5F8FAFDFE00006A
:10271000FDFDFDFAF9F8FAFBFAF8F6F6F5F5F6F52F
:10272000F5F4F4F5F6F6F5F6F6F5F7F6F7F7F8F949
:10273000F9FBFCFFFFFE0203020303020102010298
:102740000203050505040302050605050404060643
:102750000808040504030507080A0A0D0E0C0B0AF5
:1027600009090909080506080B0F110C070502FEE7
:10277000FDFAF9FAFCFFFFFCF9F7F5F6F9F7F2F2CA
:10278000F4F4F6FBFCF7F3F2F2F4F6F6FAFBFBFDD9
:10279000FDFCF9FBFBF8F8FBFBFAFFFDFB020C0E5E
:1027A0000D0A060708060B0A060704080807090AA7
:1027B0000C0808080602FCFCF4F5FAF7F8F4F2F34A
:1027C000F4F2F0ECE3E1E4E2E5E8EBE7E9EFF3F162
:1027D000F6FBEFEDFCFCE8ED040D020811141C13F0
:1027E0000B07030D191608000A0A0D14130902FD40
:1027F000F7FF0607090C0C09050805FEF9FCF9EEC0
:10280000F804070C1A1909141C10050D0B03FD051B
:102810000B0B191C312B12150E05100F151E3E4502
:1028200030312730230F06EEF2F7060F050400F7CC
:10283000EBEDEDDDC8BEBAB2BABCBEC9C9D2CFD1CC
:10284000CCC8C4C1CEBEBEC4BFC5C9D1E4EFEEEF93
:10285000F4F8F4E6EB0302EC06230E1D271913141B
:10286000180C1B242E48424842464A32352B161576
:102870002A2E272A28292F2F33321F151B0D081522
:102880001107F9020509080301EDEBEEF1E1D4DED1
:10289000D3CDD8D2C5D0DBD5D6CDCACAC8DCEFECF3
:1028A000E8F1E2DDE2E1EDEEFD0B111F1A24281F35
:1028B0001E211F0B060410202020282D35494D3DD8
:1028C0002B25170703040503FFFCF5F1E9E1E0DC24
:1028D000DDDCD7D7D9DDE2E4DCE0ECE8E4F3E9D2F3
:1028E000E4E9D8DAE2EBF0F3ECEEEEECF5EDF2062B
:1028F0001923181C262426322B0D101C24313A3E95
:102900002A1F2732301904F1EDEFF0F0EDF2F8F85C
:10291000F9FBF4FB04FBF9FDFCF3E7E3E8E3DADDA4
:10292000DFE6F7F2D4C6D2DDE3E3E4EBEEFD060129
:10293000FF0200F3F610222627352E263937211202
:1029400015171F2B2D2F2D2E2E292C29231E170E48
:1029500004FF050A02FBF5E5DCE8E6CCC4C4BFBE13
:10296000C5CFC4BDCBCCBEC3D1C7BDC6D3D6D8DDC1
:10297000DDDCE9FAF0E2EAEDE5DEE1EAF004212E41
:102980002F3C4D4C423C3F44464B4C45464D4B4AF8
:102990004C40342D200F03090D06080E05F8FB01ED
:1029A000FBF1E5D6CED6E5E3D6D9DEDADCDFD3C857
:1029B000C8C9C7C5C5C3C1CBE0F1F5FA020708060F
:1029C00004060D2438393B44484D4E3E281A1B233B
:1029D0002A3739271D26251B1C1702F4F0EEE8E6DE
:1029E000EDE9E1E8F1ECDFD7D8D0C5C7C1ADABB8B0
:1029F000B3B0BFC4BFC7D4D8D6DAE0DBD8E3EAE5CA
:102A0000E4F0FBF6F2F3EAE4F6121F293130323D2E
:102A100040372B25272D374140404C5857535655AA
:102A2000493C342F2B2B27190F141B170A0503FCC5
:102A3000FDFFF3EAF1EEE6E8EBE3E1E1DCD8D7D520
:102A4000D3CFD0D7D9D5D2D4DAD7D3D1CBD1E0ED2B
:102A5000F6F8F4F90B16161104F8F8FBFDFBF6FA7C
:102A600003060C0C04FBFB01FAF2F6F9FBFFFDF781
:102A7000F4F1ECE9E7ECF5F7F5F9FAF9FCFE0209F7
:102A80000E0CFEF3F3F0E9E8F1FF0910141D272EF8
:102A90002E23140E111B23211E2124242628221844
:102AA000111115191818181A1E1C1103FBF7EEE660
:102AB000E6ECF2F1EBE9E5E5EAE6DEE2E9E4DDDEAB
:102AC000DEDFE2E4E7EEFB0300FEFFFEFEFBFD0CB3
:102AD00016171A1D1A141004F6F2F8000405060859
:102AE0000D171F1E140903FDFC02060B101215170B
:102AF00019170D04F6E6E1E7EBE7E8ECECF0F2EB92
:102B0000E6E8F0F5F0E7E2DEDADAE0E4E9EFEEE855
:102B1000E8EBEAE7EBEFEAE8EDF0EFF2F4EBDBD617
:102B2000E0F100090E152438423F352C28241E16EA
:102B300013191E22282D2F2926271E1414120E13B6
:102B40001915101210070305090A0C0E0A040302D6
:102B5000FFFD020501FF02FCF3EEEBE9ECF2F5F7F5
:102B6000FF0809FEECDFD8DAE4EAE8E7E8EBF0F783
:102B7000F6ECEAEAE7E9EDF1F0EFF0F2F1F2FD024E
:102B8000F6F1F3EEEEF7FCFB0004FEF6F3EFEBEBF1
:102B9000F1FB030503FF020F1C1F181719120C0C81
:102BA0000A0601FFFD00090F0C04FBF0E6E4EAF25F
:102BB000F90103040B100A05060506090A0C0C0CA2
:102BC0000F0E0B141B1103FFFDFC060C080A182343
:102BD00024221E1815181A1C1E21201A1A1E1C1435
:102BE0000E0D0C0805FBEBE4E1DDD9DBE1E8EDE8D7
:102BF000D9CAC5C9D0D8E2E9EDF6010601F5E7D991
:102C0000D3D5D9DBDEE8EFEEF5050C090701F9F7BE
:102C1000FAF6F0F2FB040702F9F4F80105060706DC
:102C2000050001080A0907080B0C0B04FF030C132D
:102C30001311192A3A3A2A1302FBFC03090A0B1151
:102C400019212520160D090E110F0D10121115183E
:102C50001513120C0502FEF6EFEFF3F8F8F4F2F29A
:102C6000F3F3F0EEEDEFF2EFEEF1F0EFEEE9E5E287
:102C7000DFDCD9D7D4D1CCCAD1E2F1F3E9DED7D3A6
:102C8000D7D9D7D8E0EDFA09171C1B16181E1F1D3F
:102C9000232A2A2A2B27201E1E1A1B1F2020232D01
:102CA000353A3B37312B251F18110E0B06FEF9F56F
:102CB000F2F7FBF9F3E9E3E2E1E0DCD3C8C1C1C913
:102CC000D7DED9D1CAC8CBCDD0D2D6E2EFF7FD023C
:102CD00001F9F8F8F2F2FF0A121B23282E35352DE0
:102CE000282C34373534312D2926231B161109079A
:102CF0000A05FBF4F4F7FAFFFFFAF6F6F5F1EEED4C
:102D0000E9E8EBECECEFF3F6F3EADED6D4D6DADD65
:102D1000E2EDF8000B13110E0C02F3F2F9FF060AB4
:102D20000C0F151A170E0A0905FEF8F7F7F8F9F84F
:102D3000F7F7F5F0EFF9030502FDFE070D11100B93
:102D40000703FCF5F0EEEEF1F2EFEFF3FC060B08F3
:102D5000FEF3EDEEF2F5F8FD000E232C2E2F2B22C4
:102D60001D1E1D19191C1E252E3026170F0E1011A1
:102D700010101014170F0602FDF3E8E5E0D8D3CECB
:102D8000C9CACDD1D1D5DDE0DCD3CAC5C5C6C2BD67
:102D9000BFC9D8E9F2F4F0EAEBF0F5F9FAF6F60477
:102DA00013181C1E1D1B1C20222732383A3F464A8E
:102DB000443A332F2C271F16131A1C150E0701FB3C
:102DC000F7F7F7F4EFE7E0E0E2E5E8EBEFF4F6F22F
:102DD000EAE4E2E1DDD8D5D9E5F2FAFAF5F1F2F26A
:102DE000F5FBFD000C1A2223272A2C3133302B2827
:102DF00029292828292A271F160AFEF4EDE9E9EBDC
:102E0000EAE6E5E7E6E2DCD9DCE1E7E8E5E1DCD7A4
:102E1000D4D0CECDCFCECBCCCFD4D6D3D2D8E5F76D
:102E20000403F9F0E9E3E6EDEEF1FA06121F2C32A5
:102E3000302D29272625262525272B2F3132312DE8
:102E40002B2A292B30363A3A3A362C1F0F0502002E
:102E5000FFFDF8F5F1EFEFF0F3F7F9F6F2EDEAE840
:102E6000E4DCDADCE1EDF8FCFCF6EADFDCDDDCE0FA
:102E7000ECF7000508080809080604030300FCFF36
:102E8000070E0E08FFF7F2EEE7E2DFE0E2E6ECF015
:102E9000EFE9DFD9D7D6D6D6D7DBE0E6EDF4FF08E9
:102EA000111514120F0A01F9F2EEF3020F181D1C8E
:102EB0001A1E262824232930373A3B3A39372F2542
:102EC000201F1E18141516191D1B140C03F6E9E417
:102ED000E3E1DEDEE1E7ECEDE7E0DDDBDADBD9D8EC
:102EE000D7D6D4D3D5DBE4E8E7E8EDF3F9FAF5F289
:102EF000F6000A182425211E1C160F0B0A0D161F9A
:102F0000252625231B130F0E0E0B090B0F15191663
:102F1000110E0D0A0607090602FCF9F8F6F2E9E2BD
:102F2000E0DFDEDAD6D5D9DEE2E3E3E4E5E3E1E2B1
:102F3000E2E3E3DED8D9DEE3E9F3FAF9F5F2EEEC09
:102F4000EAE7E5E9F5020E192227241F1F23272BA4
:102F50002C2B2F36393229221F1D1B1A17110D0A4F
:102F60000B1214120D0805030200FEFE00040609F0
:102F70000F1619170F05FE010705FEF7F0ECF1FE1D
:102F800006080B0B0803FCF3ECECF3F7F8F8F9F880
:102F9000F2EAE3DEDCDBDBDEE7F2F8F6F0E8E2DCC7
:102FA000D6D3D2D3D4D7DEE8F1FA010303FFF9F286
:102FB000EDEBECEFEDEAE9EFF9050B0B0C141D1F3F
:102FC0001B150F0F151D211F1E1B17130AFFF6F6E9
:102FD000FE08131A1C1A15120F0B080402040C1613
:102FE0001D1D1B18130D0602020200FDFE01050B3C
:102FF0000D0B09060302020201FEF9F9FF07111A7F
:103000001A161617130B03FAF0EDEFF1F0EDEAE7DD
:10301000E5E1DAD3CED1D9E1E8F1FA0105050503FE
:1030200001FBF0E9E8EBF0F5FBFEFDF7EEEBEFF26C
:10303000F5F6F6F7F9FAF8F4F2EDEAE9EAEFF4F664
:10304000F5F6FB00060B0A090C0D0902FCF5F0F47D
:10305000FD070F13181E262B2924202123201C1BBB
:103060001C2023211C17140E0703040911181E1E0F
:103070001A12090300FEFCFAFD060C0D0900F8F512
:10308000F8F8F6F7F6F2ECE5DEDEE6EFF1F4F5F14E
:10309000EEEDEBE6DFDAD9DBE1E3E2DFDCDAD5D037
:1030A000CFD2D8DDE2E9EFF5F8F6F6FBFF00FEFE41
:1030B000040F202E393E3B31241C191815100D1019
:1030C000161E23252628292622201D1B170E050340
:1030D000070B0B0B0802FDFAF6F0E9E4E1E0E2E28F
:1030E000DEDAD8D8D5D2D1D1D3D8E1EAF3FAFDFBD4
:1030F000FBFDFDF9F0E7E6ECF7020D14171A1A18BC
:103100001714110E0F12171F26292B2C271F191603
:1031100014151106FDFD00030302FEFBFBFCF9F292
:10312000EAE6E5E9F2F9FE040C110D03F7EBE5E43C
:10313000E8EEF4F9F9F8F8F9FCFBF8F4F1F3F7FD2F
:1031400003070502FDF9F6F4F3F1EFEFF1F4F5F8FA
:10315000FCFEFCF7F0E9EAEFF3EFECECEEF3FAFF3C
:10316000030912191C180F04FCFB000405080C0DC0
:103170000902F9F1EEF1F6FF0B161B1D1E212323A8
:10318000222427292A2A2D30312F2A2623201C15D4
:103190000B05060B111619160F08FEF6F1EEE8DE08
:1031A000D7D4D1D0CFCDC9C8CBD1D6D7D3CCC5C336
:1031B000C5C4C5C8CDD1D3D2D1D3D8E0EBFB0C1850
:1031C0001B18161719160D070303070E1927313799
:1031D000393A3937352F2925221F1F21221F1C1567
:1031E000090201040400FBF6F3F2F1EFEDEDF1F654
:1031F000F9F8F3EDE8E8EBECEFF3F8FDFFFCF6EFA0
:10320000ECE9EAF0FA050E11121416150F0A070878
:103210000D14202B3234302B251E170D02FBF8F530
:10322000F2F0EEEEEFECE5E0E1E3E3E0DBD9DAE04B
:10323000E6EAEBEBEBEBEBE9E3DBD6D7DADDDFE15C
:10324000E5EDF3F4F1ECE7E6E6EAF0F900050B1141
:10325000171B1C1B181715151D2830343128211E6B
:103260001C1A18171415191E22292F2F2C29252056
:10327000180E03FBF6F5F7F8F8F5F3F2F2F2EFEAC1
:10328000E7E7E8E8E8E9EBEFF2F5F7F8F8F5F0F151
:10329000F5FC03090F151A1A140AFFF7F3F5FD09D7
:1032A00011191712100A05FDFCEEE5E6E3E3DBDD7C
:1032B000DBDDDFD9E0DAD6D8D8D1CAD2D3DCE4EC72
:1032C000EFEEF4F6FBFC0205060A0D131A24282380
:1032D000211A150901FC08142530323633492C23F4
:1032E00024170EFB08041A2218230B040B0D00FAF6
:1032F00002EFEFE9EFECEAEBE4F2EAEEEBE8E6E608
:10330000E7E6EEEAE6E5E5E5E9F1E9DFDBDBDFDF6D
:10331000ECF904030C0F0B100D0EFDFFFB06150E50
:10332000272B27303139251D21181E1A222E312E28
:103330002D231410160D030D0D020B14110B04F99F
:10334000E5E0E1EBE0D5D1C8C3C7D9D7D3D6DBE1FF
:10335000EBEDE7E2DEDDDADCE5E3E4ECF1F3F3F2FA
:10336000E3E4EBEDF5F2F9F90918121D180F0E0858
:103370000905121D1F2526281E17130F0C0603040E
:1033800005080E0F080C0905060301FF04040507D4
:10339000070300040D160F0603FFFE010604040CCC
:1033A000101415130C06FEFAFB00070304030306B2
:1033B0000505FAF6F2E7E6E3E5EBF0F1F2F8FAFDDF
:1033C000FAF7F5EEEBE5E5EAF0F5F1EBE7ECF1F015
:1033D000F2F0EDF0EFF3F8F9F9FA01090907070542
:1033E00003050D10131C23201D1E191005FEF9F8EE
:1033F000FC00090C0E110E151717130B0601040A19
:103400000F100F0E0C0902FEF9F3F3EFEDEBEAEEED
:10341000EEEDEDE8E3DFDFE1E3E3E5EDEFEDEFEF28
:10342000F4FD060C09080C0A0A0E101218181C21CB
:103430002423170D08040002090D121B1E19130B7B
:1034400000F4EDEBEEF4FB00030401FEF9F3F1F000
:10345000EEECEFF4F7FBFCFBF6F2F5F3EFEFEBE548
:10346000E3E9ECECEEF2F7FBFF04030202030200D7
:103470000304050507070A0B0701FCFAFC01070B0B
:1034800012161A1E201F1B140C0A0D1013141719E4
:103490001A19160E0704FFF8F0EDEDEEEFF1F3F355
:1034A000F4F4F4F1EDEBEAEEF3F2F1F2F6FB0004E2
:1034B0000401FBF9FEFDFE02040407090805FCF403
:1034C000EEE7E5E8ECF0F4FBFE000300FBF6EEEAC5
:1034D000EDF3FB0106090E110E0E0D0D0F0F0D0C75
:1034E0000E100F0D0B0601FEFEFEFCF9F7F6F3F5CC
:1034F000F6F6F8FD0202030402FDF8FAFCFE0102F2
:1035000004080D0C0800F8F4F0EFF5FCFE040B11B4
:10351000181A161008020202040910181A181209C3
:10352000030200FBF7F6F7FBFF02030302FEFBF9C1
:10353000F6F3F4F9FE01FEFCFE02060A0905FFFDA2
:10354000FAF7F5F4F1F0EFEFF0F1F2F3F4F11744DC
:1035500066777870655E5E63696D6D6A65626265E7
:10356000686B6B6966646466686A6A6866656566E6
:1035700068696968666565666869696866656566DB
:1035800068696968666666666868686866666666C9
:1035900068686868676666666868686867666667B8
:1035A00067686867676666676768686767666667AB
:1035B000676868676766666767686867676666679B
:1035C000676868676766666767686867676666678B
:1035D000676868676766666767686867676666677B
:1035E000676868676766666767686867676666676B
:1035F000676868676766666767686867676666675B
:103600006868686867666667686868686666666648
:10361000686868686666666668696968666565663A
:10362000686969686665656668696968666565662A
:10363000686A6A6866646466696B6B68656262651D
:103640006A6D6D69635E5E65707877664417EAC57A
:10365000ADA2A1A7ADB2B2AFABA8A8AAADAFAFADB6
:10366000ABA9A9ABADAEAEADABAAAAABACADADAD9F
:10367000ABAAAAABACADADACABABABABACADADAC90
:10368000ABABABABACADADACACABABABACADADAC7D
:10369000ACABABACACADADACACABABACACADADAC6A
:1036A000ACABABACACADADACACABABACACADADAC5A
:1036B000ACABABACACADADACACABABACACADACAC4B
:1036C000ACABABACACACACACACABABACACACACAC3E
:1036D000ACABABACACACACACACABABACACACACAC2E
:1036E000ACABABACACADADACACABABACACADADAC1A
:1036F000ACABABACACADADACACABABACACADADAC0A
:10370000ACABABACACADADACACABABACACADADACF9
:10371000ABABABACACADADACABABABABACADADACEC
:10372000ABABABABACADADACABAAAAABADADADACDE
:10373000ABAAAAABADAEAEADABA9A9ABADAFAFADC9
:10374000AAA8A8ABAFB2B2ADA7A1A2ADC5EA0000CE
:103750000001010102020303030404050505060636
:1037600007070708080909090A0A0A0B0B0C0C0CC1
:103770000D0D0E0E0E0F0F1010101111121212134C
:1037800013131414151515161617171718181819DA
:10379000191A1A1A1B1B1C1C1C1D1D1D1E1E1F1F67
:1037A0001F202020212122222223232424242525F6
:1037B00025262627272728282829292A2A2A2B2B85
:1037C0002B2C2C2C2D2D2E2E2E2F2F2F3030303118
:1037D00031323232333333343434353536363637AA
:1037E00037373838383939393A3A3A3B3B3B3C3C41
:1037F0003D3D3D3E3E3E3F3F3F40404041414142D6
:103800004242434343444444454545464646474770
:10381000474848484949494A4A4A4A4B4B4B4C4C0D
:103820004C4D4D4D4E4E4E4F4F4F4F5050505151AD
:10383000515252525353535354545455555555564F
:10384000565657575757585858595959595A5A5AF6
:103850005B5B5B5B5C5C5C5C5D5D5D5E5E5E5E5F9E
:103860005F5F5F606060606161616162626262634C
:1038700063636364646464656565656666666667FC
:10388000676767676868686869696969696A6A6AB1
:103890006A6B6B6B6B6B6C6C6C6C6C6D6D6D6D6D6A
:1038A0006E6E6E6E6E6F6F6F6F6F70707070707126
:1038B00071717171717272727272737373737373E7
:1038C00074747474747475757575757575767676AB
:1038D0007676767777777777777777787878787876
:1038E000787879797979797979797A7A7A7A7A7A44
:1038F0007A7A7A7B7B7B7B7B7B7B7B7B7B7C7C7C18
:103900007C7C7C7C7C7C7C7C7D7D7D7D7D7D7D7DEF
:103910007D7D7D7D7D7E7E7E7E7E7E7E7E7E7E7ECC
:103920007E7E7E7E7E7E7F7F7F7F7F7F7F7F7F7FAD
:103930007F7F7F7F7F7F7F7F7F7F7F7F7F7F7F7F97
:103940007F7F7F7F7F7F7F7F7F7F7F7F7F7F7F7F87
:103950007F7F7F7F7F7F7F7F7F7F7F7F7F7F7F7F77
:103960007F7F7F7F7F7F7F7F7F7F7F7F7F7F7F7F67
:103970007F7F7F7F7F7F7F7E7E7E7E7E7E7E7E7E60
:103980007E7E7E7E7E7E7E7E7D7D7D7D7D7D7D7D5F
:103990007D7D7D7D7D7C7C7C7C7C7C7C7C7C7C7C62
:1039A0007B7B7B7B7B7B7B7B7B7B7A7A7A7A7A7A6D
:1039B0007A7A7A7979797979797979787878787879
:1039C000787877777777777777767676767676768C
:1039D00075757575757575747474747474737373A3
:1039E00073737372727272727171717171717070BE
:1039F0007070706F6F6F6F6F6E6E6E6E6E6D6D6DDF
:103A00006D6D6C6C6C6C6C6B6B6B6B6B6A6A6A6A01
:103A10006A69696969686868686767676767666629
:103A20006666656565656464646463636363626256
:103A3000626261616161606060605F5F5F5F5E5E86
:103A40005E5E5D5D5D5C5C5C5C5B5B5B5B5A5A5AB9
:103A500059595959585858575757575656565555F2
:103A6000555554545453535353525252515151502B
:103A700050504F4F4F4F4E4E4E4D4D4D4C4C4C4B6A
:103A80004B4B4A4A4A4A49494948484847474746AA
:103A900046464545454444444343434242424141EE
:103AA000414040403F3F3F3E3E3E3D3D3D3C3C3B34
:103AB0003B3B3A3A3A39393938383837373736367E
:103AC00036353534343433333332323231313030C9
:103AD000302F2F2F2E2E2E2D2D2C2C2C2B2B2B2A16
:103AE0002A2A292928282827272726262525252464
:103AF0002424232322222222212120201F1F1F1EB3
:103B00001E1D1D1D1C1C1C1B1B1A1A1A1919181806
:103B10001817171716161515151414131313121258
:103B20001211111010100F0F0E0E0E0D0D0C0C0CAB
:103B30000B0B0A0A0A090909080807070706060500
:103B40000505040403030302020101010000FFFF55
:103B5000FFFEFEFEFDFDFCFCFCFBFBFAFAFAF9F9A8
:103B6000F8F8F8F7F7F6F6F6F5F5F5F4F4F3F3F3FD
:103B7000F2F2F1F1F1F0F0EFEFEFEEEEEDEDEDEC52
:103B8000ECECEBEBEAEAEAE9E9E8E8E8E7E7E7E6A4
:103B9000E6E5E5E5E4E4E3E3E3E2E2E2E1E1E0E0F7
:103BA000E0DFDFDFDEDEDDDDDDDCDCDBDBDBDADA48
:103BB000DAD9D9D8D8D8D7D7D7D6D6D6D5D5D4D498
:103BC000D4D3D3D3D2D2D1D1D1D0D0D0CFCFCFCEE6
:103BD000CECDCDCDCCCCCCCBCBCBCACAC9C9C9C834
:103BE000C8C8C7C7C7C6C6C6C5C5C5C4C4C4C3C37D
:103BF000C2C2C2C1C1C1C0C0C0BFBFBFBEBEBEBDC8
:103C0000BDBDBCBCBCBBBBBBBABABAB9B9B9B8B80C
:103C1000B8B7B7B7B6B6B6B5B5B5B5B4B4B4B3B34F
:103C2000B3B2B2B2B1B1B1B0B0B0B0AFAFAFAEAE8F
:103C3000AEADADADACACACACABABABAAAAAAAAA9CD
:103C4000A9A9A8A8A8A8A7A7A7A6A6A6A6A5A5A506
:103C5000A4A4A4A4A3A3A3A3A2A2A2A1A1A1A1A03E
:103C6000A0A0A09F9F9F9F9E9E9E9E9D9D9D9D9C70
:103C70009C9C9C9B9B9B9B9A9A9A9A9999999998A0
:103C800098989898979797979696969696959595CB
:103C900095949494949493939393939292929292F2
:103CA000919191919190909090908F8F8F8F8F8E16
:103CB0008E8E8E8E8E8D8D8D8D8D8C8C8C8C8C8C35
:103CC0008B8B8B8B8B8B8A8A8A8A8A8A8A89898951
:103CD0008989898988888888888888878787878765
:103CE0008787868686868686868685858585858578
:103CF0008585858484848484848484848483838384
:103D0000838383838383838382828282828282828B
:103D1000828282828281818181818181818181818E
:103D2000818181818181808080808080808080808D
:103D30008080808080808080808080808080808083
:103D40008080808080808080808080808080808073
:103D50008080808080808080808080808080808063
:103D60008080808080808080808080808080808053
:103D7000808080808080808181818181818181813A
:103D8000818181818181818182828282828282821B
:103D900082828282828383838383838383838383F8
:103DA00084848484848484848484858585858585CD
:103DB00085858586868686868686868787878787A1
:103DC000878788888888888888888989898989896F
:103DD0008A8A8A8A8A8A8A8B8B8B8B8B8B8C8C8C37
:103DE0008C8C8C8D8D8D8D8D8E8E8E8E8E8E8F8FFC
:103DF0008F8F8F90909090909191919191929292BB
:103E00009292939393939394949494949595959577
:103E1000969696969697979797989898989899992E
:103E200099999A9A9A9A9B9B9B9B9C9C9C9C9D9DE2
:103E30009D9D9E9E9E9E9F9F9F9FA0A0A0A0A1A192
:103E4000A1A1A2A2A2A3A3A3A3A4A4A4A4A5A5A53F
:103E5000A6A6A6A6A7A7A7A8A8A8A8A9A9A9AAAAE6
:103E6000AAAAABABABACACACACADADADAEAEAEAF8D
:103E7000AFAFB0B0B0B0B1B1B1B2B2B2B3B3B3B42E
:103E8000B4B4B5B5B5B5B6B6B6B7B7B7B8B8B8B9CE
:103E9000B9B9BABABABBBBBBBCBCBCBDBDBDBEBE6A
:103EA000BEBFBFBFC0C0C0C1C1C1C2C2C2C3C3C404
:103EB000C4C4C5C5C5C6C6C6C7C7C7C8C8C8C9C99A
:103EC000C9CACACBCBCBCCCCCCCDCDCDCECECFCF2F
:103ED000CFD0D0D0D1D1D1D2D2D3D3D3D4D4D4D5C2
:103EE000D5D5D6D6D7D7D7D8D8D8D9D9DADADADB54
:103EF000DBDBDCDCDDDDDDDEDEDEDFDFE0E0E0E1E4
:103F0000E1E2E2E2E3E3E3E4E4E5E5E5E6E6E7E770
:103F1000E7E8E8E8E9E9EAEAEAEBEBECECECEDEDFE
:103F2000EDEEEEEFEFEFF0F0F1F1F1F2F2F3F3F38B
:103F3000F4F4F5F5F5F6F6F6F7F7F8F8F8F9F9FA16
:103F4000FAFAFBFBFCFCFCFDFDFEFEFEFFFF8080A1
:103F50008080808080808080808080808080808061
:103F60008080808080808080808080808080808051
:103F70008080808080808081818181818181818138
:103F80008181818181818181828282828282828219
:103F900082828282828383838383838383838383F6
:103FA00084848484848484848484858585858585CB
:103FB000858585868686868686868687878787879F
:103FC000878788888888888888888989898989896D
:103FD0008A8A8A8A8A8A8A8B8B8B8B8B8B8C8C8C35
:103FE0008C8C8C8D8D8D8D8D8E8E8E8E8E8E8F8FFA
:103FF0008F8F8F90909090909191919191929292B9
:104000009292939393939394949494949595959575
:10401000969696969697979797989898989899992C
:1040200099999A9A9A9A9B9B9B9B9C9C9C9C9D9DE0
:104030009D9D9E9E9E9E9F9F9F9FA0A0A0A0A1A190
:10404000A1A1A2A2A2A3A3A3A3A4A4A4A4A5A5A53D
:10405000A6A6A6A6A7A7A7A8A8A8A8A9A9A9AAAAE4
:10406000AAAAABABABACACACACADADADAEAEAEAF8B
:10407000AFAFB0B0B0B0B1B1B1B2B2B2B3B3B3B42C
:10408000B4B4B5B5B5B5B6B6B6B7B7B7B8B8B8B9CC
:10409000B9B9BABABABBBBBBBCBCBCBDBDBDBEBE68
:1040A000BEBFBFBFC0C0C0C1C1C1C2C2C2C3C3C402
:1040B000C4C4C5C5C5C6C6C6C7C7C7C8C8C8C9C998
:1040C000C9CACACBCBCBCCCCCCCDCDCDCECECFCF2D
:1040D000CFD0D0D0D1D1D1D2D2D3D3D3D4D4D4D5C0
:1040E000D5D5D6D6D7D7D7D8D8D8D9D9DADADADB52
:1040F000DBDBDCDCDDDDDDDEDEDEDFDFE0E0E0E1E2
:10410000E1E2E2E2E3E3E3E4E4E5E5E5E6E6E7E76E
:10411000E7E8E8E8E9E9EAEAEAEBEBECECECEDEDFC
:10412000EDEEEEEFEFEFF0F0F1F1F1F2F2F3F3F389
:10413000F4F4F5F5F5F6F6F6F7F7F8F8F8F9F9FA14
:10414000FAFAFBFBFCFCFCFDFDFEFEFEFFFF00009F
:10415000000101010202030303040405050506062C
:1041600007070708080909090A0A0A0B0B0C0C0CB7
:104170000D0D0E0E0E0F0F10101011111212121342
:1041800013131414151515161617171718181819D0
:10419000191A1A1A1B1B1C1C1C1D1D1D1E1E1F1F5D
:1041A0001F202020212122222223232424242525EC
:1041B00025262627272728282829292A2A2A2B2B7B
:1041C0002B2C2C2C2D2D2E2E2E2F2F2F303030310E
:1041D00031323232333333343434353536363637A0
:1041E00037373838383939393A3A3A3B3B3B3C3C37
:1041F0003D3D3D3E3E3E3F3F3F40404041414142CC
:104200004242434343444444454545464646474766
:10421000474848484949494A4A4A4A4B4B4B4C4C03
:104220004C4D4D4D4E4E4E4F4F4F4F5050505151A3
:104230005152525253535353545454555555555645
:10424000565657575757585858595959595A5A5AEC
:104250005B5B5B5B5C5C5C5C5D5D5D5E5E5E5E5F94
:104260005F5F5F6060606061616161626262626342
:1042700063636364646464656565656666666667F2
:104280006767676768686868696969696A6A6A6AA6
:104290006A6B6B6B6B6B6C6C6C6C6C6D6D6D6D6E5F
:1042A0006E6E6E6E6E6F6F6F6F6F7070707070711C
:1042B00071717171717272727272737373737373DD
:1042C00074747474747475757575757575767676A1
:1042D000767676767777777777777778787878786D
:1042E000787879797979797979797A7A7A7A7A7A3A
:1042F0007A7A7A7B7B7B7B7B7B7B7B7B7B7C7C7C0E
:104300007C7C7C7C7C7C7C7C7D7D7D7D7D7D7D7DE5
:104310007D7D7D7D7D7E7E7E7E7E7E7E7E7E7E7EC2
:104320007E7E7E7E7E7E7F7F7F7F7F7F7F7F7F7FA3
:104330007F7F7F7F7F7F7F7F7F7F7F7F7F7F7F7F8D
:104340007F7F7F7F7F7F7F7F7F7F7F7F7F7F7F7F7D
:104350007F7F7F7F7F7F7F7F7F7F7F7F7F7F7F7F6D
:104360007F7F7F7F7F7F7F7F7F7F7F7F7F7F7F7F5D
:104370007F7F7F7F7F7F7F7F7E7E7E7E7E7E7E7E55
:104380007E7E7E7E7E7E7E7E7D7D7D7D7D7D7D7D55
:104390007D7D7D7D7D7C7C7C7C7C7C7C7C7C7C7C58
:1043A0007B7B7B7B7B7B7B7B7B7B7A7A7A7A7A7A63
:1043B0007A7A7A797979797979797978787878786F
:1043C0007878777777777777777776767676767681
:1043D0007575757575757574747474747473737399
:1043E00073737372727272727171717171717070B4
:1043F0007070706F6F6F6F6F6E6E6E6E6E6D6D6DD5
:104400006D6D6C6C6C6C6C6B6B6B6B6B6A6A6A6AF7
:104410006A6969696968686868676767676766661F
:10442000666665656565646464646363636362624C
:10443000626261616161606060605F5F5F5F5E5E7C
:104440005E5E5D5D5D5C5C5C5C5B5B5B5B5A5A5AAF
:1044500059595959585858575757575656565555E8
:104460005555545454535353535252525151515021
:1044700050504F4F4F4F4E4E4E4D4D4D4C4C4C4B60
:104480004B4B4A4A4A4A49494948484847474746A0
:1044900046464545454444444343434242424141E4
:1044A000414040403F3F3F3E3E3E3D3D3D3C3C3C29
:1044B0003B3B3A3A3A393939383838373737363674
:1044C00036353534343433333332323231313030BF
:1044D000302F2F2F2E2E2E2D2D2C2C2C2B2B2B2A0C
:1044E0002A2A29292828282727272626252525245A
:1044F0002424232322222222212120201F1F1F1EA9
:104500001E1D1D1D1C1C1C1B1B1A1A1A19191818FC
:10451000181717171616151515141413131312124E
:104520001211111010100F0F0E0E0E0D0D0C0C0CA1
:104530000B0B0A0A0A0909090808070707060605F6
:10454000050504040303030202010101000000FF4A
:10455000FFFEFEFEFDFDFCFCFCFBFBFAFAFAF9F99E
:10456000F8F8F8F7F7F6F6F6F5F5F5F4F4F3F3F3F3
:10457000F2F2F1F1F1F0F0EFEFEFEEEEEEEDEDEC47
:10458000ECECEBEBEAEAEAE9E9E8E8E8E7E7E7E69A
:10459000E6E5E5E5E4E4E3E3E3E2E2E2E1E1E0E0ED
:1045A000E0DFDFDEDEDEDDDDDDDCDCDBDBDBDADA3F
:1045B000DAD9D9D8D8D8D7D7D7D6D6D5D5D5D4D48F
:1045C000D4D3D3D3D2D2D1D1D1D0D0D0CFCFCFCEDC
:1045D000CECDCDCDCCCCCCCBCBCBCACAC9C9C9C82A
:1045E000C8C8C7C7C7C6C6C6C5C5C5C4C4C4C3C373
:1045F000C2C2C2C1C1C1C0C0C0BFBFBFBEBEBEBDBE
:10460000BDBDBCBCBCBBBBBBBABABAB9B9B9B8B802
:10461000B8B7B7B7B6B6B6B5B5B5B5B4B4B4B3B345
:10462000B3B2B2B2B1B1B1B0B0B0B0AFAFAFAEAE85
:10463000AEADADADACACACACABABABAAAAAAAAA9C3
:10464000A9A9A8A8A8A8A7A7A7A6A6A6A6A5A5A5FC
:10465000A4A4A4A4A3A3A3A3A2A2A2A1A1A1A1A034
:10466000A0A0A09F9F9F9F9E9E9E9E9D9D9D9D9C66
:104670009C9C9C9B9B9B9B9A9A9A9A999999999896
:1046800098989898979797979696969696959595C1
:1046900095949494949493939393939292929292E8
:1046A000919191919190909090908F8F8F8F8F8E0C
:1046B0008E8E8E8E8E8D8D8D8D8D8C8C8C8C8C8C2B
:1046C0008B8B8B8B8B8B8A8A8A8A8A8A8A89898947
:1046D000898989898888888888888887878787875B
:1046E000878786868686868686868585858585856E
:1046F000858585848484848484848484848383837A
:104700008383838383838383828282828282828281
:104710008282828282818181818181818181818184
:104720008181818181818080808080808080808083
:104730008080808080808080808080808080808079
:104740008080808080808080808080808080303306
:1047500011241FBECFEFDAE0DEBFCDBF13E0A0E033
:10476000B1E0E4EBFDE602C005900D92A431B10783
:10477000D9F726E0A4E1B3E001C01D92A43CB20742
:10478000E1F713E2C8EAD3E204C02197FE010E94D8
:10479000B236C73AD107C9F70E94A32F0C94D83676
:1047A0000C9400004091790350917A032091770393
:1047B0003091780342175307B4F49091E800957054
:1047C000E1F39091E80092FD19C08093F10080918F
:1047D000790390917A0301968F739927892B19F4A5
:1047E0008EEF8093E8008091790390917A0301968F
:1047F00090937A038093790381E0089580E008958F
:10480000CF92DF92EF92FF920F931F93CF93DF939C
:104810006C017A018B01C0E0D0E0CE15DF0589F094
:10482000D8016D918D01D601ED91FC910190F0813F
:10483000E02DC6010995892B11F47E0102C0219655
:10484000ECCFC701DF91CF911F910F91FF90EF90B7
:10485000DF90CF900895CF93DF931F92CDB7DEB74F
:104860006983DC01ED91FC910280F381E02D41E050
:1048700050E0BE016F5F7F4F09950F90DF91CF91A0
:10488000089583E08093E9008091F200882319F075
:104890008AE38093E8000895FC018485958597FD5F
:1048A0000BC09FB7F89482E08093E9008091F200FA
:1048B0009FBF90E0019608959FB7F89482E080939F
:1048C000E9008091F2009FBF90E0089590E0FC0124
:1048D0003197EF30F105B0F5EA5AFF4F0C94B2363C
:1048E000809180008F7703C0809180008F7D8093BE
:1048F0008000089580918000877FF9CF84B58F77FD
:1049000002C084B58F7D84BD0895809190008F771B
:1049100007C0809190008F7D03C080919000877FB9
:104920008093900008958091C0008F7703C080919C
:10493000C0008F7D8093C00008958091C200877F62
:104940008093C2000895CF93DF93282F30E0F901C0
:10495000E25CFE4F8491F901E15EFE4FD491F901D2
:10496000E050FF4FC491CC2391F081110E94662446
:10497000EC2FF0E0EE0FFF1FEE50FF4FA591B4912A
:10498000EC91ED2381E090E021F480E002C080E032
:1049900090E0DF91CF91089584E0809349038FEFF9
:1049A00080934A0310926C0310926B0310926D0374
:1049B00085EE8093BC00089582E0809349038FEFD9
:1049C00080934A0310926C0380936B0381E0809381
:1049D0006D0385EE8093BC00089585ED8093BC0047
:1049E0008091BC0084FDFCCF8091490380934803F3
:1049F0001092490380914803833011F40C94CC2425
:104A000080914803813011F40C94DC240895CF93F5
:104A1000DF931F92CDB7DEB780910D0490910E0405
:104A20008F3F4FEF940761F0FC01EF5FFB4F408138
:104A30004983019790930E0480930D04898101C0EE
:104A40008FEF80930401809104018F3FD1F080911A
:104A5000040190917B0083FB222720F930E045E0A0
:104A6000220F331F4A95E1F79F7D292B20937B006E
:104A70008770806480937C0080917A00806480934A
:104A80007A000F90DF91CF91089508950F931F93AF
:104A9000CF938C01CB01BA01CFB7F89420E030E07E
:104AA00040E054E40E94C63520E030E040E858E39E
:104AB0000E94C63520E030E040E857E40E94C63549
:104AC0000E940935F8016483758386839783CFBF7D
:104AD000CF911F910F9108950F931F93CF938C0146
:104AE000CB01BA01CFB7F89420E030EE45E555E4AC
:104AF0000E94C63520E030E040E858E30E94C63509
:104B000020E030E040E857E40E94C6350E940935B5
:104B1000F8016483758386839783CFBFCF911F91FC
:104B20000F9108957F928F929F92AF92BF92CF92F2
:104B3000DF92EF92FF920F931F93CF93DF936C015D
:104B40005B017A0180911101882309F466C080918C
:104B5000B003882309F461C080917C0380FF05C005
:104B60008091E00082608093E000E70110E00AEFAE
:104B700083E0982E90E4792E2AE3822E209709F480
:104B800043C08FB7F8949092E9009091E80095FFA8
:104B900006C09091F200272D291B922F01C090E0B2
:104BA0008FBF911105C00150C1F10E944B2FE6CF7C
:104BB000292F30E0C217D3070CF49C2F8FB7F8943D
:104BC0009092E9002091E80025FF1CC0292F30E0D9
:104BD000C21BD30BF501915020F041914093F1009D
:104BE000FACFA20EB31E112319F08092E80009C07B
:104BF0009091E80095FD06C08092E80011E02097B2
:104C000009F010E08FBFBACF1111BBCF5D9884E6D9
:104C100080937B031E141F0444F081E090E0F601B2
:104C20009383828380E090E001C0C701DF91CF9140
:104C30001F910F91FF90EF90DF90CF90BF90AF90BA
:104C40009F908F907F900895CF93DF931F92CDB761
:104C5000DEB7FC018485958597FD05C02FEF3FEFFA
:104C6000358724870BC0CE0101960E94652F0197DE
:104C700019F4898190E002C08FEF9FEF0F90DF91D0
:104C8000CF9108950F931F93CF93DF931F92CDB7CA
:104C9000DEB78C01FC018485958597FF0EC0CE019F
:104CA00001960E94652F019719F4298130E002C016
:104CB0002FEF3FEFF80135872487F801848595852C
:104CC0000F90DF91CF911F910F910895CF92DF92B6
:104CD000EF92FF920F931F93CF93DF931F92CDB765
:104CE000DEB7182F062FE42E862F880F8E5F99834C
:104CF0000E94D22383E00E94D223F12EC12E9981FB
:104D0000D92E8C2D8F19801798F4F601E7FE02C07A
:104D1000849101C080810E94D223182F80E00E94DC
:104D2000D2238123FFEFCF1ADF0A8111EACF01C01E
:104D300081E00F90DF91CF911F910F91FF90EF9045
:104D4000DF90CF900895DF92EF92FF920F931F9321
:104D5000CF93DF93D82E8A017B01E40EF51EEB0181
:104D6000CE15DF0571F0D7FE03C0FE01849101C0AE
:104D700088810E94D22321968111F2CF8FEF9FEF7D
:104D800001C0C801DF91CF911F910F91FF90EF906B
:104D9000DF9008950F931F93CF93DF931F92CDB7AA
:104DA000DEB782E0898342E450E06DE571E080E89F
:104DB0000E94A3260E948F2FDC0112960D911C9158
:104DC00013970115110569F0D801ED91FC9102804E
:104DD000F381E02DBE016F5F7F4FC801099597FFFA
:104DE00007C089810F90DF91CF911F910F91089596
:104DF000F80100851185E5CF615030F02091F10078
:104E0000FC0120830196F8CF289884E68093AF03B5
:104E100008951F93CF93DF93282F30E0F901E25CD0
:104E2000FE4F8491F901E15EFE4FD491F901E0500B
:104E3000FF4FC491CC23C9F0162F81110E94662424
:104E4000EC2FF0E0EE0FFF1FEC51FF4FA591B49156
:104E50008FB7F894111105C09C91ED2FE095E923CF
:104E600002C0EC91ED2BEC938FBFDF91CF911F919E
:104E700008958F929F92AF92BF92CF92DF92EF925E
:104E8000FF92CF93DF93E0912E03F0912F03DF0188
:104E9000AC59BF4FAA0FBB1F2FE738E446E050E0E4
:104EA0000E94DF33DC01CB01DEE0B695A795979534
:104EB0008795DA95D1F78093860390938703A09323
:104EC0008803B0938903CF0165E070E00E949E36AD
:104ED0006E5C6093840370E0762F662780E090E03C
:104EE0000E9438350E9439360E9409356093850347
:104EF00086E00E94A324892B21F461E08DE00E94CA
:104F0000092787E00E94A324892B21F460E08DE02B
:104F10000E940927ECECF0E0E49180910D0490915F
:104F20000E048B3091054CF4019690930E048093FF
:104F30000D04DC01AF5FBB4FEC93F0E0EE0FFF1F01
:104F4000E05DFC4F8081918190932D0380932C0331
:104F5000EBECF0E0E49180910D0490910E048B3025
:104F600091054CF4019690930E0480930D04DC019E
:104F7000AF5FBB4FEC93F0E0EE0FFF1FE05DFC4F27
:104F80008081918190932F0380932E0390932B0324
:104F900080932A03C0912C03D0912D036E010D2E16
:104FA000000CEE08FF08C701B60123E0660F771F6B
:104FB000881F991F2A95D1F788248A9433E0932E6D
:104FC000A12CB12CA50194010E94C033C901880F06
:104FD000991F880F991FFC01EE52FD4F20E030E031
:104FE00048E852E460817181828193810E94C635D4
:104FF0000E940235072E000C880B990B0E943A354F
:105000009B01AC0160E070E68AE697E40E94903470
:105010000E94093580E090E00E94383520916B06AF
:1050200030916C0640916D0650916E060E94C63517
:105030000E9409356093670670936806809369063D
:1050400090936A0626E030E0DE010E94B836A501A2
:1050500094010E94C033F90155E0EE0FFF1F5A95ED
:10506000E1F78091280390912903E80FF91FEE0FD3
:10507000FF1FEE5EFE4FC081D181C701B6010E94C5
:105080003A356B017C0123E53CEC4FE850E40E948B
:10509000C63520E030E040E05BE30E94C6352DECF1
:1050A0003CEC4CEC5DE30E9424344B015C016093CA
:1050B000240370932503809326039093270328E00D
:1050C00033E240EA50E4C701B6010E94C63520E051
:1050D00030E040E05BE30E94C6352DEC3CEC4CEC4C
:1050E0005DE30E9424346093200370932103809336
:1050F00022039093230323E036E349E950E4C701F8
:10510000B6010E94C63520E030E040E05BE30E943B
:10511000C6352DEC3CEC4CEC5DE30E9424346093EE
:105120001C0370931D0380931E0390931F036093D1
:1051300018037093190380931A0390931B03FFB60F
:10514000F89420E030EE43E655E4C501B4010E9436
:10515000C63520E030E040E858E30E94C63520E044
:1051600030E040E857E40E94C6350E94093560935C
:105170005406709355068093560690935706FFBECB
:105180006091200370912103809122039091230369
:10519000FFB6F89420E030EA4CE455E40E94C635AE
:1051A00020E030E040E858E30E94C63520E030E0DF
:1051B00040E857E40E94C6350E94093560934106D5
:1051C000709342068093430690934406FFBE40913D
:1051D0001C0350911D0360911E0370911F038AE20E
:1051E00096E00E946C25409118035091190360913C
:1051F0001A0370911B0387E196E00E946C25C09012
:105200000001D0900101E0900201F0900301409173
:105210006306509164066091650670916606209160
:105220000F068091130690911406A0911506B09177
:105230001606BA2FA92F982F8827820F911DA11D1E
:10524000B11D84179507A607B70708F407C1809119
:105250006F06811103C18091670690916806A09145
:105260006906B0916A06480F591F6A1F7B1F409359
:10527000630650936406609365067093660680919A
:105280002803909129030196909329038093280382
:10529000109215031092140382E00E94A324892B1C
:1052A00021F526E933E44BEC5FE3C701B6010E9428
:1052B000C63520E030E040E05FE30E94C6354B0198
:1052C0005C01BE010D2E000C880B990B0E943A3533
:1052D0009B01AC01C501B4010E94C635AB01BC0104
:1052E0008EE896E00E94462504C08EE896E00E9473
:1052F000422F81E090E0909315038093140383E0A4
:105300000E94A324892B21F52CE032E04BEA5FE3D5
:10531000C701B6010E94C63520E030E040E05FE3FF
:105320000E94C6354B015C01BE010D2E000C880B9E
:10533000990B0E943A359B01AC01C501B4010E9452
:10534000C635AB01BC0184E896E00E94462504C046
:1053500084E896E00E94422F82E090E0909315034B
:105360008093140384E00E94A324892B21F52CEE62
:1053700031E548E95FE3C701B6010E94C63520E088
:1053800030E040E05FE30E94C6354B015C01BE01A6
:105390000D2E000C880B990B0E943A359B01AC0135
:1053A000C501B4010E94C635AB01BC018AE796E095
:1053B0000E94462504C08AE796E00E94422F83E0BF
:1053C00090E0909315038093140385E00E94A3243A
:1053D000892BE9F420E030E040E05FE3C701B6014B
:1053E0000E94C6356B017C01BE01DD0F880B990B55
:1053F0000E943A359B01AC01C701B6010E94C63537
:10540000AB01BC0180E796E00E94462504C080E71E
:1054100096E00E94422F84E090E0909315038093E1
:10542000140386E00E94A324892BC1F460912C030D
:1054300070912D03072E000C880B990B0E943A35B2
:10544000AB01BC0140930001509301016093020144
:105450007093030180E796E00E944625809128031F
:1054600090912903809721F4109229031092280328
:105470008091160390911703009749F0019790933C
:10548000170380931603892B11F48BEF8EB980914B
:1054900004018F3F29F40E94072581E080930501D4
:1054A000DF91CF91FF90EF90DF90CF90BF90AF90C2
:1054B0009F908F900895CF93DF9390E0FC01E15E81
:1054C000FE4F2491FC01E050FF4F8491882361F14D
:1054D00090E0880F991FFC01EA52FF4FC591D491CB
:1054E000FC01EC51FF4FA591B491611109C09FB728
:1054F000F8948881209582238883EC912E230BC019
:10550000623061F49FB7F8943881822F80958323AD
:105510008883EC912E2B2C939FBF06C08FB7F894F5
:10552000E8812E2B28838FBFDF91CF9108953FB75D
:10553000F8948091730390917403A0917503B091D6
:10554000760326B5A89B05C02F3F19F00196A11D33
:10555000B11D3FBFBA2FA92F982F8827820F911D09
:10556000A11DB11DBC01CD0142E0660F771F881F50
:10557000991F4A95D1F708951F920F920FB60F9277
:1055800011242F933F938F939F93AF93BF93809159
:105590006F0390917003A0917103B09172033091E9
:1055A0006E0323E0230F2D3720F40196A11DB11DBA
:1055B00005C026E8230F0296A11DB11D20936E039E
:1055C00080936F0390937003A0937103B093720361
:1055D0008091730390917403A0917503B091760349
:1055E0000196A11DB11D8093730390937403A09342
:1055F0007503B0937603BF91AF919F918F913F91C7
:105600002F910F900FBE0F901F9018951F920F9221
:105610000FB60F9211242F933F934F935F936F9385
:105620007F938F939F93AF93BF93EF93FF9380915B
:10563000B900887F883221F170F48031F1F030F4C4
:10564000882309F472C08830C1F073C08831C1F07A
:10565000803251F16EC0803409F44EC028F480339A
:1056600019F1883321F165C08035D1F1883509F40D
:105670004FC0883409F05DC05AC080916D0311C0DD
:1056800090916C0380916B03981708F050C0E091E3
:105690006C0381E08E0F80936C03F0E0E55BFC4FC0
:1056A00080818093BB002EC080934A0340C08093CA
:1056B0004A0385EC8093BC008091490380934803A2
:1056C0001092490380914803833019F40E94CC243E
:1056D00030C080914803813061F50E94DC2429C0EC
:1056E000E0916C0381E08E0F80936C038091BB008E
:1056F000F0E0E55BFC4F808390916C0380916B033D
:10570000981710F485EC01C085E88093BC0011C0A7
:10571000E0916C0381E08E0F80936C038091BB005D
:10572000F0E0E55BFC4F808302C010924A030E94C8
:10573000ED24FF91EF91BF91AF919F918F917F9158
:105740006F915F914F913F912F910F900FBE0F90EE
:105750001F90189578941F920F920FB60F921124F4
:105760002F933F934F935F936F937F938F939F9369
:10577000AF93BF93EF93FF9310926E00E0917E037F
:10578000F0917F030995F89480917D03882311F0AF
:1057900016BCA99A80916E00826080936E00FF9182
:1057A000EF91BF91AF919F918F917F916F915F9199
:1057B0004F913F912F910F900FBE0F901F90189512
:1057C0001F920F920FB60F9211242F933F934F9376
:1057D0005F936F937F938F939F93AF93BF93EF9359
:1057E000FF9380910501882341F080917A008064C5
:1057F00080937A001092050111C0E091040180911C
:10580000780090917900EE0FFF0BE05DFC4F9183E3
:1058100080830E94072581E080930501FF91EF912D
:10582000BF91AF919F918F917F916F915F914F91B8
:105830003F912F910F900FBE0F901F9018951F92C0
:105840000F920FB60F9211242F933F938F939F9334
:10585000AF93BF93EF93FF9380910F06E82FF0E093
:10586000EE0FFF1FE15FFB4F208131818F5F80933F
:105870000F06811119C09091110681E0892780934C
:1058800011068091130690911406A0911506B0910F
:1058900016060196A11DB11D809313069093140660
:1058A000A0931506B0931606C901880F892F881F8B
:1058B000990B9195809388002F7720938A00FF9110
:1058C000EF91BF91AF919F918F913F912F910F9049
:1058D0000FBE0F901F901895FC0144815581668181
:1058E000778180819181A281B381840F951FA61F4A
:1058F000B71F80839183A283B3839D01317000849D
:10590000F185E02DE20FF31F849108950E94D336B4
:105910001F920F920FB60F9211248F939F93809135
:10592000E1009091E100937F9093E10083FF0FC02D
:105930001092E90091E09093EB001092EC0092E35A
:105940009093ED001092B00398E09093F00082FFE6
:1059500020C093E09093E9009091F200992319F010
:105960009AE39093E80090917B03992339F090910A
:105970007B03915090937B03992389F19091AF031E
:10598000992339F09091AF0391509093AF039923ED
:1059900041F184FF10C08091E2008E7E816080938F
:1059A000E2008091E1008F7E8093E10080917C0392
:1059B0008E7E806111C080FF16C08091E2008E7ED5
:1059C00080618093E2008091E1008E7E8093E1000F
:1059D00080917C038E7E816080937C0304C05D9AFD
:1059E000CDCF289AD6CF9F918F910F900FBE0F9059
:1059F0001F9018951F920F920FB60F921124CF92FD
:105A0000DF92EF92FF920F931F932F933F934F9349
:105A10005F936F937F938F939F93AF93BF93EF9316
:105A2000FF93CF93DF93CDB7DEB76C97DEBFCDBFCB
:105A30001092E9008091E80083FFEDC168E0CE019B
:105A400045960E94FC2682EF8093E8008D8987FFAF
:105A500005C09091E80090FFFCCF03C09EEF9093AB
:105A6000E800982F907609F0C6C09E892F89188D7E
:105A700091110CC0803829F480918B038093F10040
:105A800002C01092F1001092F10048C1422F50E084
:105A9000512B913051F4811141C14130510509F030
:105AA0003DC180918B038D7F0BC0933061F48111D8
:105AB00035C14130510509F031C180918B038260BD
:105AC00080938B032BC1953041F48091E80080FFD7
:105AD000FCCF20682093E30021C1963009F05FC01D
