:100000000C941C250C9444250C9444250C944425F4
:100010000C9444250C9444250C9444250C944425BC
:100020000C9444250C9444250C94D62B0C94482C09
:100030000C9444250C9444250C9444250C9444259C
:100040000C9444250C9444250C9444250C9444258C
:100050000C9444250C94E02A0C9444250C94F22929
:100060000C9444250C9444250C9444250C9444256C
:100070000C9444250C94162B0C9444250C94442584
:100080000C9444250C9444250C9444250C9444254C
:100090000C943C2A0C9444250C94552B0C94442528
:1000A0000C9444250C9444250C944425F225F52504
:1000B000E425E825EE25162616261626F925FD2523
:1000C000012607260B261626112607060504010021
:1000D000080A0B0C0D0900000000240027002A006C
:1000E0002D00300000000000250028002B002E000D
:1000F0003100000000002300260029002C002F0002
:1001000004040404040304050202020204030202BC
:10011000020206060606060604040202020404049D
:1001200008020110408040102040804080080204F6
:10013000018040201002011080102040402000006B
:10014000000200090F0000030401000C0000000081
:1001500000000000000000000000000000080B008C
:10016000020202010009040000010202000005244D
:1001700000100105240101010424020605240600E3
:10018000010705810310004009040100020A000074
:10019000000705020240000007058302400000043A
:1001A00003090412010002EF0201404123368000DE
:1001B000010102030141726475696E6F204C4C436A
:1001C0000041726475696E6F204C656F6E61726478
:1001D0006F000100000200000300040005000000A1
:1001E00000000000FF00FF00FF00000000FF00FF14
:1001F00000FF00FF00FF00FF000000FF0000000004
:1002000000000000000000000000000000000000EE
:1002100000000000000000000000000000000000DE
:1002200000000000000000000000000000000000CE
:1002300000000000000000000000000000000000BE
:1002400000000000000000000000000000000000AE
:100250000000000000000000000001010101010198
:10026000010101010101010101010101010101017E
:100270000101010102020202020202010101010068
:10028000FEFAF1E3DBDBDEE2E5E8EAEDEFF2F4F9BA
:10029000FF0407080807060505050504040404040F
:1002A000030100FDF9F1E5DDDBDCDFE2E5E8EAEC86
:1002B000EEF0F2F3F6FD0710171C1F20202121237A
:1002C0001F140CFDECDDCCC2C0C0C2C6CACDD0D755
:1002D000DFE7ECF0F2F3F4F5F7FBFF03060808089C
:1002E0000808060506090D10131618191A1B1C1C00
:1002F0001D1E201C120B04FBF1EADFD6D2D1D1D691
:10030000DADDDDD9D2CDCCCBCCD1D4D7DADCDCDD93
:10031000E2ECF8030B1216191B1C1D1D1E1E1E1EDF
:1003200020211D150F0B03F9F2EEE9E5E4E5E5E503
:10033000E5E6E7E9EAE8E7EBF3FE08121A202427EE
:10034000282A2E2E2922190AFDF1E8DFD9D6D5D484
:10035000D3D3D9DFE5E8EAECF0F7FE05090D10127A
:1003600013141515161717181919191A1D1E1C170D
:10037000110C090601FDFAF7F5F4F5F8FD02040782
:100380000A0D1013140F07FBEDE3DCD8D5D5DAE026
:10039000E3E4E5E9F0F6FC0000FEFCFBF9F5F2F021
:1003A000EEECEAE9EAEBEBEBEAEAECEFF4F8FBFD62
:1003B0000001010001010100FFFFFF000104070A25
:1003C0000C0D0E10121315140F0802FCF7F2EFEECD
:1003D000EFEEECEBEDF2FA030B11171B1F22262AAE
:1003E0002E3134373A3D3E3D3C3933291D1102F55B
:1003F000E9DED5CDC6C2C2C4C4C3C0C0C3CAD3DD42
:10040000E7EFF4F9FC0004090D0D0B0803FEF7F209
:10041000F0EFF0EFEDECEDEFF3F7FBFE0001020182
:1004200001020202010101020304030100000102B2
:100430000305070A0B0D0E101216191B1E2122228E
:10044000201E1C19181615151617161007FBF0E5B7
:10045000DDDADADCDFE1E3E6EAEEF2F6FAFE0206E6
:100460000A0E121518191815110E0B0702FDF9F6D0
:10047000F3F1EFEEEEEDEDEDEEEFF1F2F1F0EEED8A
:10048000EDF0F5FC030A1014191E2326272624215B
:100490001B120A02FCF6EFE8E2DEDEE1E7ECF2F620
:1004A000F8FBFDFF03070B0F1215161716130E0AA4
:1004B0000602FEF9F5F3F1F0F0F1F3F3F2F1F0F0EA
:1004C000F0F2F4F8FD03080B0C0E101317191B1AA9
:1004D00018140E0702010103050607090D12181E64
:1004E0002327292A27221B130A00F7EFE9E5E1DF7A
:1004F000DDDCDBDBDCDDE0E3E5E7E9ECF0F4F8FD97
:10050000010407090C0F13171A1C1E212427282782
:100510002420190F03F8EEE7E4E2E0DEDDDDDEE1A2
:10052000E4E8ECEFF2F5F8FBFE0205080B0D0E0F08
:100530000F0F11141617171615120F0904FEFAF8EB
:10054000F6F5F4F1EFEDEDEEF2F7FD02080F151BF5
:100550001F222424211C15100C0908070503010083
:100560000002040608090807060403020203040641
:1005700006050300FDF8F3EEE9E5E4E5E7EBEFF34C
:10058000F7F9FAFBFDFE0104080D11151615120E00
:100590000A080607070601F9F1EAE5E3E3E4E5E7FF
:1005A000E8EAEDF1F6FAFE0103040405040404058B
:1005B0000505040302020304040404040504030201
:1005C00001020306090C0E0F111315181B1E22271A
:1005D0002C32373A3D3F403F3930261B110A03FB8E
:1005E000F2E7DBD1CAC6C5C6C8CBCED1D4D7DADDD7
:1005F000E0E3E7EAEDF0F3F6F8FAFCFE00010203AF
:1006000003030404040405050403020101020406B3
:10061000080A0C0D0E1013161818140E0700FBF81C
:10062000F5F3F1F0F1F3F7FC030910151A1D202280
:10063000242525231F19130E0904FFF8F2EBE5E129
:10064000DFDFE1E5E8EDF1F5F8FAFBFCFE01050A74
:100650000F13181C1F21222324252420191005FB09
:10066000F3EDE9E5E1DEDBDBDDE0E4E7EAECEEEF2C
:10067000F0F0F2F4F6F9FD000306090B0C0E10126F
:100680001415161616130F0A06040200FEFCFBFAD8
:10069000FAFAFCFE02060A0E14191E21221E160B7F
:1006A00000F7F1EDEAE7E3E0DDDBDBDDE0E4E9EED6
:1006B000F3F8FBFE0103040404030303030405062B
:1006C00007090A0A0A0A0B0C0D101316191B1C1D28
:1006D0001E20212426292A28241E17100A0501FC81
:1006E000F6EEE6DFD9D4D0CCC9C8C9CDD4DCE4EC71
:1006F000F3FA0005090D1013151616171616141027
:100700000B0601FCF8F6F5F4F3F2F1F1F1F1F1F179
:10071000F1F1F3F6F9FCFF01030406090C11161AB6
:100720001D1D1A15100D0B0A0A090601FCF8F4F23A
:10073000F0F0F1F1F2F1F1F0EFEFEFF1F4F8FC008D
:1007400004070A0C0D0F1011111111121315181AAC
:100750001B1B191714110E0C0B0A0A090A0B0D109A
:100760001212100A02F8EFE7E1DCD8D5D2D1D1D3CA
:10077000D6DAE0E7EEF4FA00060B10141718171497
:100780000F0A04FFFCF9F7F5F4F2F0EDEBEBECF0F7
:10079000F4F8FBFDFEFEFEFF010305070809090949
:1007A0000B0D10141616130E090400FDFAF6F2EFE5
:1007B000EEEEF0F3F7FB00060B10141618191A1CD6
:1007C0001E20212221201D1A17151414141515148A
:1007D000110D06FDF4EBE4DFDCDCDCDDDEDEDEDE6D
:1007E000DEE0E4E9EFF5FAFDFEFDFBFAF9F8F7F5D6
:1007F000F3F1F0EFEFF1F3F7FAFCFE00020304046B
:1008000004040303030303030304050607060401AA
:10081000FFFEFF0104070A0C0E0E0F101215181D23
:1008200021262A2D30302E2A231A0F03F9F0E9E170
:10083000DBD4CFCBC9CACDD2D8E0E8F0F7FE0409AB
:100840000D1013151617171717161513110D0A0586
:1008500001FCF9F6F6F6F6F6F5F4F2F0F0F0F0F148
:10086000F2F3F3F3F4F6FAFF060C121515120F0C5F
:100870000907050505040403020100FFFEFF00014E
:10088000010101000000010203030200FEFBFAF96E
:10089000F8F8F7F6F5F4F3F2F2F1F1F1F1F2F3F51D
:1008A000F7FBFE0103040607090B0E101111100ED1
:1008B0000C0A08060300FCF9F7F6F7F9FE02070C2C
:1008C0001114181B1E2123252523201A130C04FDA7
:1008D000F8F4F0ECE7E3DFDCDBDBDDDFE2E5E8EBBF
:1008E000EFF3F7FD02080C1114181B1E20201E1A2E
:1008F000140D06FFFAF5F0ECE7E2DEDBDADADCDF16
:10090000E4EAF0F6FBFE010304040303030304041A
:100910000506060707070707090C0F131617171414
:100920000F0A0501FFFDFBF9F6F3F1F0F2F6FC0208
:10093000080C0E0E0D0B0908060503020101030643
:100940000A0D1113151514131211100F0E0D0B08AB
:1009500003FDF7F2EEEBE9E7E5E3E1DFDEDEDEE003
:10096000E3E6E9EDF0F4F8FC0004080B0F13181DA2
:100970002123221E19130C0600FAF4EEE8E3DEDB55
:10098000DADADDE1E6EBF1F6FAFE0103040505062D
:100990000606060606050505040302010001020419
:1009A0000607080706050506090D1114181A1C1D6F
:1009B0001F21222322211E1A16120F0D0A070400DE
:1009C000FDFAF8F6F4F1EFEDECEBECECECEBEAE72A
:1009D000E5E2E0DEDCDCDDDFE2E6EAEDF0F3F6F9AD
:1009E000FCFF0104050605040303040405040302D7
:1009F000020305080C0F1111110F0C09060401FE6A
:100A0000FAF6F3F1F0F1F3F7FBFF03060A0D101409
:100A1000171B1F232525221E18120C0600FBF6F0BB
:100A2000EBE6E2DFDEDEDEDFE1E3E7ECF1F7FD023D
:100A300006090B0F13171C2124262624201C161030
:100A40000902FAF3EEE9E6E4E4E4E5E7E9EBEDEFC9
:100A5000F0F0F1F1F2F3F4F5F6F8F9FCFE00010123
:100A600001010203060A1015191A1A181512100EA0
:100A70000D0D0C0B0A09090806050301FFFCFAF825
:100A8000F6F3F1EEEAE6E2DFDEDDDFE1E4E8EDF2E7
:100A9000F7FBFF0103050708080705030100000035
:100AA0000102020304050708090A0A0A0A090A0CD6
:100AB0000E1113141516171A1E22272A2B29251E6C
:100AC000160E06FEF7F0E9E3DDD7D3CFCDCECFD3B8
:100AD000D8DEE5ECF4FB02080D1012110F0C09062C
:100AE000040201FFFCF8F5F2F1F0F0F1F1F1F1F19F
:100AF000F1F2F5F8FBFE0002030406080A0C0E0FE3
:100B0000100F0F0D0B080502FEFBF9F8F9FBFE01B3
:100B1000040709090907040200FEFDFBF9F7F5F4D3
:100B2000F3F4F5F6F8FAFBFCFE0104080D121518B3
:100B30001A1A1B1C1D1E1F1E1C1A18151412110F29
:100B40000D0A0601FDF7F2ECE7E2DDD8D3CFCCCBFE
:100B5000CCCED3D9E0E7EEF5FAFE0104070A0D107A
:100B6000121315151513110E0A0602FFFDFBFAF8F4
:100B7000F6F3F1EFEEEEF0F1F3F5F7F8FAFD01051B
:100B8000090D10121312110E0C09060300FDFAF8DC
:100B9000F6F5F4F4F5F6F9FBFF03080D13171B1D2A
:100BA0001D1A17120E0B0A09080706050403020393
:100BB0000507090B0B0B0A0907050301FEFBF8F6F5
:100BC000F4F2F0EFEDEBEAE8E7E6E6E6E7E7E7E781
:100BD000E7E8E8E9EBEEF1F4F8FCFE0102030405B6
:100BE000060707080707060504030200FFFEFDFECF
:100BF0000003050808080706050507090C0F101172
:100C000012121314171A1C1F20201E1A150F07008A
:100C1000F7EFE7E0DAD4D1D0D1D3D8DDE2E8EEF4D3
:100C2000F9FE03070A0D0F111214161718181715DD
:100C3000110D0A0604030100FEFCFBF9F7F5F4F2BE
:100C4000F0EEEEEEF0F3F6F9FCFE00010202020215
:100C50000200FFFCFBF9F8F8F9FCFF03080C0F1287
:100C6000141618181817140F0903FDF8F3F0EDEA1D
:100C7000E8E6E5E4E5E6E9EBEEF0F1F2F4F5F8FBA1
:100C8000FE00020304040507090B0D0F100F0E0CE4
:100C90000A07050301FFFDFBF9F7F6F6F6F7F9FC85
:100CA000FF0206090D101316181A1C1C1D1D1C1A14
:100CB00017140F0A0602FFFDFCFAF7F3EFEAE6E36A
:100CC000E2E2E4E7EAEEF2F5FAFE0206090C0D0EA6
:100CD0000D0C0A080400FAF5EFE9E4E1DFDEE0E2DA
:100CE000E6E9EDF1F4F8FBFF030608090908070639
:100CF0000504040504030200FFFEFF0002040709C7
:100D00000C0E11121312100E0B0806050505050531
:100D1000040301FFFDFBF9F8F7F7F6F6F6F6F6F82F
:100D2000FBFF03090F151A1E212323211D19140F80
:100D30000A0602FEFAF6F1EBE6E1DEDDDDDDDEDFDE
:100D4000E0E1E2E4E7EBEFF3F7FAFCFDFF01040773
:100D50000B0F13171A1B1C1C1916110C0701FBF59E
:100D6000F0EDEAE8E7E6E6E6E7E9ECEFF3F7FBFFAC
:100D70000103040404040404040302020304060738
:100D80000809080707060708090A0B0B0D0E0F11C3
:100D900013151617161513110E0C09070400FDF98B
:100DA000F6F2F1F0F1F4F8FCFF020507090A0B0A6C
:100DB000080602FDF9F4F0ECE8E4E1DDDBDADADD67
:100DC000E1E5EAEFF3F7F9FCFE0103040506060688
:100DD000060608090B0D0F10100F0E0B0906040272
:100DE000FFFDFBF8F5F4F3F3F5F7FAFE02070B0F3E
:100DF00012131312100E0C0B0B0C0D0D0C0A070323
:100E000000FDFAF8F6F3F1F0EEEEEDEEEFEFF0F1B3
:100E1000F1F2F4F7FAFF03080D12161A1D1E1F1E39
:100E20001C18130E0701FBF6F3F2F1F1F0F0F0F0ED
:100E3000F0F0F1F3F4F5F6F6F6F6F5F5F5F5F5F56F
:100E4000F5F6F8FBFE000203030405080B0F141867
:100E50001B1D1D1D1C1B19171512100D0A0601FB69
:100E6000F6F0EBE6E2DEDAD8D6D6D7DADDE2E6EB6C
:100E7000F0F6FB0005080B0C0C0B0A0A090909081F
:100E80000602FFFCFAFAFBFE010306070808070743
:100E90000706070708090B0D101316191B1D1E1E48
:100EA0001E1E1C1B1916120D0700F9F3EEE9E6E4ED
:100EB000E3E2E2E3E5E7EAECEFF1F3F5F6F7F9FA5E
:100EC000FCFCFCFBF9F8F6F5F5F4F4F4F3F4F4F6B5
:100ED000F7F9FBFDFFFFFFFEFEFE000104070A0D10
:100EE0000F10100F0E0C0A080502FEFAF5F2F0EFD3
:100EF000F0F2F5F9FD01060A0E11131313110E0C91
:100F000009060300FDFAF7F4F2F1F2F3F5F6F9FB46
:100F1000FE02060B10161B1E212222211F1D1A186D
:100F20001513110F0C0804FFF9F3ECE5DED8D3D04C
:100F3000CECFD0D2D6D9DEE3E8EEF4FAFE02040535
:100F400005050608090B0B0B0B0B0A0B0B0C0D0D03
:100F50000C0B09070402FFFCF9F6F3F1EFEFF0F2D6
:100F6000F5F8FCFF0204060708090A0B0B0A070440
:100F700000FCF9F7F6F7F9FBFE010407090B0D0E6B
:100F80000F0F0F0E0E0D0C0A0703FFFBF9F7F7F812
:100F9000FAFCFDFEFF010305080B0D0F1010100FEA
:100FA0000E0D0D0C0B0A090603FFFAF5F0EAE6E157
:100FB000DDD9D6D5D5D6D9DCDFE3E8EDF2F7FD03F0
:100FC000080B0D0E0D0C0B0B0A0908070504020097
:100FD000FFFFFEFEFFFF01020407090B0D0E0F0FBE
:100FE0000F0F0E0E0D0C0C0B0B0B0B0C0C0B0B0A3E
:100FF000080501FDF8F2EEEBE9E8E8E9EAECEEF0CD
:10100000F2F4F5F6F7F7F8FAFCFF0306080A0B0C02
:101010000D0E1011121312100E0B09070504030117
:10102000FFFDFAF8F5F4F3F3F4F5F6F8F9FAFBFC42
:10103000FCFDFEFEFDFBF8F6F3F1F1F1F3F6FAFF2D
:10104000040A1015191C1E1E1C1A1815110E09036E
:10105000FDF6EFE9E4E0DEDDDDDDDFE1E4E8ECF123
:10106000F4F8FBFD00020406080A0C0E1011111121
:1010700011100E0C0A0703FFFBF7F5F4F3F3F3F47A
:10108000F5F6F7F9FD01060B0F12131414141414DE
:1010900014131211100F0F0E0E0E0D0C0A08070676
:1010A000040301FFFDF9F5F1EEEBE8E8E8EAEDF005
:1010B000F2F5F7F8F9FAFAF9F8F6F3EFECEAE8E8FE
:1010C000E8EAECEFF3F7FBFE010203030304050675
:1010D0000809090806040100FFFFFF0001010100E3
:1010E000FFFFFF0001030507090B0D0E0F10111183
:1010F00012111111100F0F0D0B0702FCF6EFEAE7AA
:10110000E5E5E8EBF0F6FC030A11171C1F21211F8F
:101110001D1A17130F0A0500FBF6F1ECE8E5E1DFF5
:10112000DEDEDFE1E3E6E9ECEEF0F1F3F5F7FAFC01
:10113000FF020508090B0B0C0D0E0E0F0F0E0C0A0B
:1011400008050200FDFBF8F7F6F6F7F8F9FAFAF9E8
:10115000F7F6F5F5F6F7F8F9F9FAFAFAFBFDFF01FB
:101160000304060708090B0C0E0F111111100E0CC9
:101170000A080808090A0B0B0B0A08060401FFFC01
:10118000F8F5F3F2F1F1F2F3F4F6F9FC0004090CCE
:101190000F121314141413110F0B0601FBF5F0ECCE
:1011A000E8E4E2DFDEDDDDDEE1E3E7EAEEF2F6FAD7
:1011B000FD00030507090B0C0D0E0E0F1112121284
:1011C000100C0702FCF7F4F2F1F2F4F7FAFD010556
:1011D000080B0E0F0F0F0E0D0C0A080502FFFCFA8C
:1011E000F8F7F6F6F7F8F8FAFBFDFE00020305053E
:1011F000050402FFFDFAF8F7F7F8FAFCFE00030613
:101200000A0C0F1011100F0C0A0603FFFCF9F8F876
:10121000F9FCFE000100FFFCF9F7F6F5F5F5F5F431
:10122000F3F2F1F1F1F2F3F5F7F9FBFE0103060930
:101230000B0D0F1011121213141516171716141286
:10124000100D0A0601FBF4EDE6DFDAD7D5D4D5D6CA
:10125000D9DCE1E6ECF2F8FD02060A0D0F101110E0
:101260000E0C0A07050302010100FFFDFCFCFDFE58
:10127000FF010203040505050606080A0C0E1113FA
:10128000151718191919191714110E0A0705020153
:10129000FFFEFDFDFDFEFEFFFEFCF9F5F1EEECEAC2
:1012A000E9E8E7E6E5E4E3E3E4E5E7E9ECEFF2F5B6
:1012B000F7FAFDFF01030507070807060505040403
:1012C0000405060708090A0B0B0B09070400FDF9C2
:1012D000F6F3F0EFEEEEF0F4F8FD0205080B0D0E5C
:1012E0000F1012121212100E0C0A080502FFFBF862
:1012F000F5F4F3F4F6F9FD0004080B0D10121416C2
:1013000017181918171513100D0B0703FEF9F3EC36
:10131000E6E1DDD9D7D6D6D7DADDE1E6EBEFF3F7B4
:10132000FAFD010306070807050302010001020395
:101330000405060708090A0B0C0C0D0D0C0A08051C
:1013400002FFFCF9F8F7F7F7F8FAFBFCFEFEFEFEE9
:10135000FDFCFCFCFCFDFDFDFEFE000205080B0D86
:101360000F0F0E0D0C0A0908070502FFFBF8F4F237
:10137000F0EFEFF0F3F6F9FD000407090B0C0D0D8B
:101380000D0D0E0E0F11111213121211100F0D0B65
:101390000803FEF7EFE8E1DAD5D1CFCFD1D4DAE018
:1013A000E6ECF1F6FAFE0206090C0E0E0E0D0B0A23
:1013B0000908070604030100FFFF000205070A0CE5
:1013C0000D0E0D0C0B0A090908080807070605048D
:1013D0000200FEFCF9F7F5F3F2F1F1F1F1F1F3F6A9
:1013E000FAFE02050809090806040200FDFBF9F8E7
:1013F000F7F7F8F9FBFE00030507090A0B0C0D0EC1
:101400000E0E0E0D0C0A08050300FEFBFAF8F8F8A4
:10141000F9F9FAFAFAF9F7F5F3F2F2F2F2F2F3F473
:10142000F6F8FBFF0206080B0C0E0F111213141333
:10143000110E0A0601FDFAF7F4F1EFEDEBEAE9E926
:10144000E9EAECEDEEF0F1F3F5F7FAFE0105080B31
:101450000D0E0F10111212110F0D090501FCF8F4F9
:10146000F0EEEDEEF1F4F7FAFDFF010305080B0EC7
:10147000111315151413110F0D0B09080808090A8B
:101480000B0D0F1112131312100D0A0702FEFAF5BD
:10149000F1EDEAE7E6E4E4E4E4E3E3E3E3E4E5E7EB
:1014A000E8E9EAEBEDEFF2F6FAFF03070A0B0C0DA1
:1014B0000C0B0A080705030202010100FFFEFDFCF8
:1014C000FBFAFAFBFDFF010204050505050404040F
:1014D0000507080A0C0E1113151617171614110D0F
:1014E0000904FFF9F4F0EDECECEFF2F6FAFE020578
:1014F000090C0F1215161513100B0602FDFAF7F55D
:10150000F3F1F0EEECEBEAEAEBECEDEEEFF0F0F1FC
:10151000F2F3F5F7F9FBFE000305080A0C0C0C0BBF
:1015200009060401FFFDFBF9F9F9FBFD00020507BF
:1015300008090909090807050300FDFAF6F3F0EEAA
:10154000EDEDEDEFF2F6FAFF03080C0F1113131394
:10155000121211100F0E0C0A080605030200FFFDFF
:10156000FBF9F7F5F3F2F1F1F0F0F0F2F4F8FC002A
:1015700004080A0C0E0F10121213131211100E0B86
:1015800009060401FEFAF6F2EEEBE8E6E5E5E6E62A
:10159000E7E8E8E9EAECEFF2F6FAFE03070A0D10D5
:1015A0001212121211100E0C090501FDF9F7F6F7CF
:1015B000F9FCFF02040607070808090908060401E8
:1015C000FEFBF8F5F3F1F0EFEFF0F1F3F5F8FCFFC7
:1015D0000306090B0D0F1011100F0E0B0805030168
:1015E00000000101010100FFFEFEFDFCFCFBFAFB17
:1015F000FBFDFF01030506070809090A090807049E
:1016000001FEFAF6F3F0EDECEAEAEAEBEDF0F3F7BF
:10161000FC0004080A0C0C0C0C0B0A0A0A0A0A0A41
:101620000A0B0B0B0A09080705040200FEFBF6F281
:10163000EDE8E5E3E3E4E5E7EAECEEF1F4F7FBFFE0
:101640000306090B0B0B0B0908060503020100003A
:10165000FFFF00010202020202010100000001027C
:101660000406090C0F121517181818161513100D6B
:101670000A07040200000102040607080909080716
:10168000060400FCF6F1EBE5E0DBD8D6D4D4D5D6E1
:10169000D9DCE0E6EBF1F7FC010407090B0D0E0EB7
:1016A0000E0E0D0B0A0909090A0B0B0B0B09080595
:1016B00002FFFBF7F3F0EEEDEEF0F3F6F9FCFE00BF
:1016C000020406080A0B0D0D0D0D0C0B0A09090981
:1016D00009090909080807070606050403020100AD
:1016E00000FF000102030507090A0B0B0B0A08079C
:1016F000050402FFFCF8F2EDE8E5E3E2E2E4E6E8E7
:10170000E9EBEDEFF2F4F7F9FBFDFF010202020154
:1017100000FFFDFCFBFAFBFCFE010306080A0B0CB4
:101720000C0C0C0C0C0D0D0D0C0B0A090806040119
:10173000FEFBF9F7F5F4F2F1F0F0F1F2F5F8FCFF49
:10174000020507090A0C0E1011110F0D090500FB07
:10175000F7F3F0EEECEBEBEBECEEF1F4F8FD020658
:101760000A0D1011121212110F0E0D0D0E0F101284
:10177000131312110F0D0A0703FEF8F2ECE6E2DF75
:10178000DEDDDDDEDFE1E2E5E8ECF0F4F8FCFF02AF
:1017900004050505050505050506070708090A0BE3
:1017A0000B0C0B0B0B0A0A09090806040200FEFDCC
:1017B000FDFCFDFDFDFDFDFDFDFCFAF8F5F1EEEC97
:1017C000ECEDF0F3F8FC0004080B0E1012131313E9
:1017D000110F0C080400FCF9F6F3F1F0EFF0F3F64A
:1017E000FAFF03070A0C0D0D0D0D0D0D0C0C0B0B64
:1017F0000A0907050301FFFCFAF8F6F5F4F2F0EE2A
:10180000ECEBEBECEEF1F5F8FCFF020407080A0A3A
:101810000B0A0908060301FEFCFAF9F8F7F7F8F9D4
:10182000FAFBFDFEFF000000FFFDFBF9F7F4F2F10B
:10183000F1F2F4F8FC0105090B0C0C0C0C0B0A0975
:10184000070401FEFBF9F7F6F6F6F6F7F8FAFBFEE9
:1018500000020407080A0B0B0B0B0B0B0B0B0B0AFC
:101860000A0A0A0A0B0D0E10111112121110100E95
:101870000D0A080401FDFAF6F3EFECEAE7E6E4E30B
:10188000E2E0DEDCDAD9DADCE0E4EAF0F5FAFE02E6
:1018900005080B0E1012131312100E0B080401FF93
:1018A000FCFAF8F7F6F6F6F7F8FAFBFDFF0002038C
:1018B0000506060606050505060708090B0C0D0EAC
:1018C0000F11121212110F0C08050300FFFEFDFD8F
:1018D000FDFDFDFEFEFEFEFFFF00000000FFFFFE1F
:1018E000FDFCFAF9F8F8F8F8F9FBFCFDFEFEFDFC4A
:1018F000FAF8F6F5F3F1F0EFF0F1F3F5F8FBFE008E
:10190000010304050606060401FEFAF8F6F6F6F7EA
:10191000F9FAFCFF0104070B0E1113141513110E35
:101920000A0501FDF9F5F1EFEDECEDEFF2F6FAFE47
:101930000205080A0B0C0D0C0C0B0A0A0908070615
:10194000040301FFFDFCFBFAF8F6F3F0EEECECED1E
:10195000F0F3F7FBFF0306090C0F1113141515150F
:101960001412100D0B08050200FEFCFBFAFAFAFA3D
:10197000F9F8F7F5F4F3F1F1EFEEECEBEAEAEBED61
:10198000F0F4F8FCFF0306090B0D0F0F0F0D0B0809
:10199000060403020101020203040505060504030F
:1019A00001FEFCF9F7F5F3F2F2F2F1F1F1F1F2F3E5
:1019B000F4F7F9FCFF02040608090A0B0C0C0D0EE3
:1019C000101112131211100E0C0A08060401FDF971
:1019D000F4F1EEEDEDEFF1F5F8FBFE0204070A0D70
:1019E0000F111212110F0B0703FEFAF5F2EFECEBD9
:1019F000EBECEDEFF1F4F7F9FCFF01040607080743
:101A000007050403020201010000000000010101BA
:101A10000100FEFDFCFCFCFCFCFCFCFBFBFAF9F805
:101A2000F7F7F7F7F8F9FAFBFCFDFDFDFDFCFCFB11
:101A3000FBFBFCFDFF010406070808080807060574
:101A400004020100FF00000203040607090C0E1146
:101A50001416161614110D0A0706050405050607C7
:101A6000080809090808060502FFFBF7F3EFEBE891
:101A7000E4E1DEDCDAD9D9DADDE0E5EAEFF3F8FC1F
:101A80000003050607080A0B0D0F101111100F0EA9
:101A90000D0C0C0A090602FEF9F5F1EEEDECEDEE87
:101AA000F1F3F7FBFE0205080A0B0B0B0A08070609
:101AB0000504030303030405070A0C0E1011121298
:101AC000121211100E0B0803FFFBF8F6F5F5F5F6F0
:101AD000F8FAFCFE000202020200FFFDFCFBFBFA2A
:101AE000F9F8F7F5F4F3F2F2F3F4F5F6F7F8F8F79E
:101AF000F7F6F6F5F5F5F5F6F6F7F9FAFCFEFF015F
:101B000002030506070808080808090A0C0E0F1149
:101B100012121111100F0E0D0B0804FFFAF4F0ED64
:101B2000EBEBEDEFF2F5F8FBFE0002040607080808
:101B30000808060502FFFCF9F5F2F0EEEDEEF0F212
:101B4000F4F7FAFCFF020407090B0D0E0F10111237
:101B50001213121211100F0F0F0F0E0D0B080400AD
:101B6000FCF8F5F2F0EFEEEEEEEEEFF0F1F2F2F25D
:101B7000F1F1F0F0F0F1F2F4F5F7F9FBFDFE0002FF
:101B800005070A0C0E101213141413120F0C09057A
:101B900002FFFCFAF7F6F4F3F3F3F5F6F8FAFBFCC0
:101BA000FBFAF9F7F6F6F5F5F6F7F8FAFDFF020697
:101BB000090D10121415151412100D0A070401FF57
:101BC000FCFAF7F5F4F3F3F4F6F9FCFF0204060768
:101BD00008090A0B0C0D0E0E0E0D0C0B0A09070559
:101BE0000300FCF8F4F0EDEBEAEAEAECEDF0F3F6D2
:101BF000F9FBFE0002030404030200FFFCFAF8F6FE
:101C0000F4F2F2F3F6F9FC0004080A0D0E0E0E0DC4
:101C10000C0A070502FFFDFAF8F6F5F5F5F6F8FBF4
:101C2000FE0001020201FFFEFCFCFCFCFCFDFEFFCD
:101C3000FF0001020303040505040403020202017C
:101C4000010202030406080A0C0D0F1011121314EE
:101C5000141413110E0B07040200FEFCFAF9F7F638
:101C6000F5F4F4F4F3F3F1EFECE8E4E1DEDDDDDECE
:101C7000E0E3E7ECF1F6FB0004080B0D0F10100F8A
:101C80000E0D0C0907040200FEFCFBFAF9F8F8F847
:101C9000F8F9FAFBFDFEFF00010204040505050545
:101CA000050506080A0C0D0E0E0E0D0B0A08080796
:101CB0000707080808080909090807050300FDFACD
:101CC000F7F4F2F1EFEFEEEEEFF0F2F4F7FBFE01D6
:101CD000040608090A0908060401FEFCF9F8F6F5ED
:101CE000F4F3F2F2F2F3F5F7F9FBFDFEFEFDFCFB77
:101CF000FAF9F8F8F8F8F9FAFCFE00020406080B05
:101D00000D0E10111111100E0C0A0806040200FE2F
:101D1000FCFAF9F8F8F9FAFBFDFEFEFEFDFCFCFC0E
:101D2000FCFDFEFEFF00000102030303030201FEAF
:101D3000FCF9F6F4F3F2F1F1F2F4F6F9FD02060A19
:101D40000E11131414141311100E0B09060301FFC6
:101D5000FDFCFBFAFAFAFBFCFDFDFEFEFEFDFDFCC0
:101D6000FBF9F8F5F3F0EEEDEDEEF1F4F8FC00031D
:101D70000405050404030304040506080809090A08
:101D8000090907060402FFFCF9F6F3F0EDEBEAEAB5
:101D9000EBECEFF1F4F7FAFCFE000203050607078F
:101DA0000708080808090A0A0B0B0C0D0E0F101182
:101DB0001111100E0B0702FDF8F4F0EEEDEDEFF14E
:101DC000F4F7FBFF0205080A0B0D0E0E0E0D0C09B1
:101DD000070400FDFBF8F7F5F4F4F4F5F6F7F8F96D
:101DE000F9F8F8F7F7F7F8F9FAFBFBFBFBFBFCFC5B
:101DF000FDFE000001010000FFFEFEFEFFFF0000EF
:101E00000102040507080A0B0B09070401FEFBF891
:101E1000F5F3F1F0EFEFEFF0F1F2F4F7F9FD000474
:101E2000070A0C0D0D0D0C0A09070504020100003C
:101E300001020305080A0C0D0E0E0E0D0C0B0B0A09
:101E40000A0A090909090808070605040200FEFC38
:101E5000FAF7F4F2EFEDECEBECECEDEEEEEEEDED8F
:101E6000ECECEDEEEFF1F4F6F8FAFCFE0001030401
:101E70000506080A0C0E10121312100E0A0601FDB8
:101E8000F9F5F3F1EFEFEFF0F2F5F8FBFE000204E5
:101E900005060707070706050403020202020304FA
:101EA00006080B0E101213131211100E0C0B09075B
:101EB0000401FDF9F5F3F1F1F2F4F6F9FBFCFDFD97
:101EC000FDFDFDFDFDFDFDFEFF0001020202020120
:101ED00000FEFDFBF9F7F5F3F1EFEDEBEAEAEBECD1
:101EE000EEF1F3F6F9FD00030507080908080706F7
:101EF000050505050607090B0D0F12131515151419
:101F000013110E0B0703FFFBF7F4F2F0EFEFF0F203
:101F1000F3F4F6F7F8F9F9FAFAFAFAFAFAFAFBFB37
:101F2000FBFCFCFBFBFBFCFDFEFF000102020304CB
:101F300005060708090A0B0B0C0C0D0F10111213E4
:101F400012100E0A0602FEFBF8F5F4F3F2F2F3F4B7
:101F5000F6F8FAFBFDFDFEFEFDFBF9F7F5F3F1F0F7
:101F6000F0F0F1F3F5F7F9FCFF0206090C0E101181
:101F70001111100F0E0B090502FEFAF7F4F3F2F23D
:101F8000F3F5F6F8F9F9FAFAF9F9F8F7F7F7F8F9D5
:101F9000FBFDFF010305060708090A0A0B0B0B0AE4
:101FA00009070605040302020202020202020201FC
:101FB00000FFFFFEFEFEFEFFFF0001020305070912
:101FC0000B0D0F101111100E0B080401FDFAF6F3A2
:101FD000F1EEEDECEBECECEEEFF1F3F4F6F7F8F8F4
:101FE000F8F8F8F8F8F8F8F8F8F9F9FAFBFDFF0254
:101FF00005080B0D0E0F0F0F0F0E0E0D0C0A080625
:102000000401FFFDFCFBFAFAF9F8F7F6F5F4F3F337
:10201000F3F3F4F6F8FBFE010306070809090909C2
:1020200009080706040301FFFEFEFEFF0002050784
:102030000A0D1012141515151413110E0B080400B7
:10204000FCF8F5F3F2F2F3F5F6F8FAFBFBFBFBF91B
:10205000F8F6F3F1EEECEAEAEAEBEDF0F2F5F8FA75
:10206000FCFE000103040405050505050505040340
:10207000020101010101010100FFFEFDFCFCFBFB6F
:10208000FBFCFCFDFEFF010305080A0C0E0F100F00
:102090000E0D0C0A080705040403030404050606D4
:1020A00007070707060402FFFCF9F6F3F1F0F0EF6B
:1020B000F0F1F2F4F6F9FD000306090B0C0C0C0C20
:1020C0000B09070402FFFCFAF8F7F6F6F6F5F5F54A
:1020D000F4F3F3F2F2F2F2F3F3F4F5F7F8FAFCFEAC
:1020E0000002030404050608090A0B0B0B0B0B0A7C
:1020F00009090808090A0B0C0D0E0D0C0A0704014A
:10210000FDFBF8F5F3F1EEEDEBEBEBEDEFF3F7FBA9
:10211000FF030608090908060401FFFDFBFAF9F9A7
:10212000FAFBFCFDFF0002040607090A0B0B0B0B70
:102130000A0A090806040201FFFEFDFDFEFEFF007B
:1021400000FFFFFEFEFDFCFCFCFBFBFBFBFBFBFBC7
:10215000FBFBFCFCFDFEFEFFFFFFFFFEFDFCFBFBAF
:10216000FCFDFF01030506070707050402FFFDFB51
:10217000F8F6F4F3F1F0EFEEEEEEEFF1F3F6F9FC32
:10218000FF010405070809090909080605040303F6
:1021900004050608090A0B0B0B0B0A0909080705B9
:1021A000040200FEFCFBF9F9F8F9F9FBFCFE01035F
:1021B00004050607070707070606050404030303CB
:1021C00002020100FFFDFBF9F6F4F1EFEDEBEAE9A5
:1021D000E9EAEBEEF1F5F9FC000305060605040358
:1021E0000100FFFEFEFF0001020405060708090BBF
:1021F0000C0D0D0D0C090603FFFAF6F2EFEDEBEAFC
:10220000EBECEFF1F4F7FAFD000204060708080909
:10221000080807070606060708090A0B0B0B0C0B34
:102220000B0A09080706050405050607080908073B
:10223000060401FFFCFAF8F6F5F4F3F2F2F1F0EF20
:10224000EFF0F1F2F5F7FAFCFDFEFEFEFDFCFBFA05
:10225000F9F8F7F6F6F6F6F7F9FBFE010406090BB6
:102260000C0D0D0C0B08060300FEFCFAF9F8F8F74C
:10227000F7F7F7F9FAFBFDFEFF0000010102030387
:10228000040405050606070809090A0B0C0C0C0BCB
:102290000A0806040200FEFDFDFDFEFF0002020327
:1022A00003020100FFFEFDFCFBFAF9F9F9FAFCFD5F
:1022B000FF0001020304050504040301FFFDFAF712
:1022C000F4F1EDEAE8E6E6E7E9ECEFF3F6F9FCFF16
:1022D0000103040506060606050504040506080AAA
:1022E0000C0E1012131414141312100F0D0B0907F7
:1022F000050200FDFAF6F3F0EEECEBEAEAEAEBECAD
:10230000EEF0F2F4F5F7F8FAFBFDFE000204060722
:102310000809090909080705040201000000000175
:102320000305070A0C0E0F1011100F0D0A0703FF0B
:10233000FCFAF8F6F6F5F5F5F5F6F7F9FAFCFDFE18
:10234000FF00000000FFFEFCFBF9F8F7F7F7F8FAD2
:10235000FBFDFE0002030405060605040200FEFD67
:10236000FCFBFBFCFDFEFF000000FFFFFEFCFBFA98
:10237000F8F7F6F5F5F6F7F9FAFCFE0002040506A3
:1023800007070706060504030200FFFDFCFCFCFD31
:10239000FF0205080A0C0D0E0D0C0A08060301FFCA
:1023A000FEFDFCFDFEFF010406090C0E0F111110CD
:1023B0000F0D0A070400FDFBF8F6F3F1EEEBE9E779
:1023C000E6E6E6E7E9EAECEEF1F2F4F6F7F8F8F91A
:1023D000FBFCFEFF01030507090A0B0C0C0C0B0AA2
:1023E0000908070606060708090A0B0A0A08060470
:1023F00001FEFCF9F6F3F1EFEDEDEDEEF0F2F4F79E
:10240000FAFE01040608090A0A0A0A0A0A09080764
:1024100005040202020203040608090B0C0D0D0D4F
:102420000C0B09070401FEFCFAF9F8F9F9FAFBFCB8
:10243000FDFDFEFDFDFCFAF9F8F7F6F7F7F8F8F800
:10244000F9F8F8F8F8F8F8F8F8F8F8F8F8F8F8F80B
:10245000F9F9F9FAFBFCFE0002040607080808086F
:10246000070605040200FDFBFAF9F8F8F9FBFD0088
:102470000205080B0D0F1111100F0D0A08060403B9
:102480000100FFFDFCFAF9F9F9F9FAFBFDFF010380
:10249000040504030200FEFCFBFAFAFBFCFEFF014C
:1024A000030405050606060505040302010000FFF6
:1024B000FFFEFEFDFCFBFAF9F7F6F4F3F1F0EFEEA8
:1024C000EEEEEFF0F2F3F6F8FBFE01030506070867
:1024D00009090A0B0B0B0A09080707070708090B6C
:1024E0000D0F101111100E0A0601FCF6F2EEEAE8CB
:1024F000E8E8E9EBEDF0F4F7FAFD0003050606065F
:1025000005040302020101010101010101010101B0
:10251000020202020303030202020202030405068E
:102520000607070605050403030201FFFEFCFAF88F
:10253000F7F6F6F7F9FBFF0205080A0C0C0C0B097D
:10254000060300FDFAF8F7F5F4F3F3F3F3F4F5F707
:10255000F8FAFBFDFEFF00000000FFFEFDFBF9F8AE
:10256000F7F7F7F8F9FAFBFDFEFF0000010202039E
:102570000303030303030303040405050607070815
:102580000807070604030202020203030404050508
:1025900005050404030303030304040405040403FE
:1025A0000302030304050607080807060402FEFBEE
:1025B000F6F2EEEAE7E5E3E3E5E6E9ECEFF2F6F959
:1025C000FCFF0204060707070605040302010101D8
:1025D00001010202030404050506070808080807AC
:1025E000060402FFFDFBF9F7F6F6F5F5F5F5F6F74B
:1025F000F8F9FBFCFDFDFEFFFF00020406080A0DD2
:102600000F111314141412110E0C0907050301FF06
:10261000FEFCFCFBFBFCFDFEFFFF0000000000FFDA
:10262000FEFDFCFAF8F7F5F4F3F3F4F4F6F7F9FB32
:10263000FDFF01030404040201FFFCFAF9F7F6F6BA
:10264000F6F6F7F9FBFDFF02040506060505030291
:102650000100FFFFFFFEFFFFFEFEFEFDFDFDFDFE94
:10266000FEFFFF0000FFFFFFFF0001030507090A4F
:102670000B0C0C0B0A08060300FDFAF8F6F5F5F54D
:10268000F7F9FCFF0306090C0E1011100F0D0B08D3
:10269000060301FFFDFBFAF9F9FAFBFCFDFF00015F
:1026A0000102020100FFFDFBF8F6F3F1EFEEEEEDA3
:1026B000EEEFF0F1F3F5F6F8F9FBFCFCFDFEFEFFA2
:1026C00000020305070A0C0E10121314141413123F
:1026D000100F0D0B090705040200FFFDFCFAF9F7C6
:1026E000F6F4F3F2F1F0F0F0F0EFEFEFEFF0F2F4D8
:1026F000F6F9FCFF01040607090A0B0C0C0B0A098A
:102700000705030100FFFFFFFF00020406080A0C93
:102710000E0E0E0E0C0A08060301FFFDFCFBFAFA72
:10272000F9F8F8F7F7F7F7F9FAFCFDFF00010202F4
:1027300003030303030303020201FFFEFCFAF8F69E
:10274000F5F4F3F3F3F4F5F6F8FAFDFF01040608E7
:102750000A0B0B0A09070502FFFDFAF8F6F4F3F37A
:10276000F4F5F7F9FBFDFF0102040405050403027B
:1027700001FFFEFDFCFCFCFCFDFE00020406080A55
:102780000C0D0E0E0D0C0A09080707070708090AA9
:102790000A0B0C0D0D0E0E0D0D0C0A080502FFFBA9
:1027A000F7F4F1EEECEAE9E8E8E7E8E9EAECEDEE67
:1027B000EFF0F0F0F1F2F4F6F9FCFF010406080A7C
:1027C0000B0C0C0C0C0B09080604030100000001A3
:1027D000020406090B0D0E0E0E0C0A070300FCF88E
:1027E000F5F2F0EEEEEEEEF0F1F3F6F8FBFE01049A
:1027F00006080A0A0B0B0B0A0A0A0A0A0A0A09093E
:102800000908070604030100FEFDFCFCFCFCFDFEBC
:10281000FF00010203050607070807060401FFFC85
:10282000F8F6F3F2F1F1F2F4F6F8FBFDFEFF00002A
:10283000FFFEFDFCFBFAF8F7F5F4F4F4F5F6F8FA10
:10284000FCFE000204060708090908070504020146
:1028500000FFFFFF0001010204050607090A0B0B38
:102860000C0C0B0A080502FFFCFAF8F6F5F4F4F379
:10287000F4F4F5F7F8FAFCFDFF000203040506087E
:10288000090A0B0B0B0B0B0B0A09080705030200C7
:10289000FFFEFDFCFCFCFCFDFDFEFFFF000000FF59
:1028A000FEFDFBF9F7F5F2F1EFEEEDEDEDEDEEF0FB
:1028B000F2F4F7FAFE0105080B0C0E0E0E0D0C0BD0
:1028C0000B0A0A0A0A0A090908080706050403028E
:1028D00000FFFDFBFAF8F7F6F5F5F5F5F6F7F8FA6F
:1028E000FBFCFEFF00000000FFFEFDFDFCFCFDFE0A
:1028F000FF000202030303030303020202010100BB
:10290000FFFEFEFEFF000203050708090A0B0B0A83
:102910000A08060401FFFDFAF9F7F6F6F7F8FAFCE3
:10292000FF03060A0D0F1011100E0C0804FFFBF632
:10293000F2EFEDEBEAEAEAECEDF0F2F5F7FAFCFD86
:10294000FFFF000001010102020202020202010176
:102950000100FFFEFDFCFBFAF9F9F9FAFBFCFE00B1
:102960000204060708090A0A090807050301FFFD12
:10297000FBFAFAFAFBFDFF010305080A0C0E101121
:102980001111100E0C0A08060403030304040404C6
:10299000040301FFFDFAF8F5F2EFEDEBEAE9E8E9EF
:1029A000EAEBEDEFF1F4F6F9FBFCFE0001020303A4
:1029B00003020201010101010202020202020201FC
:1029C00001010101010101010101010101020202F4
:1029D000020202010100FFFEFCFAF8F7F6F5F5F637
:1029E000F7F9FAFDFF0205080B0E1113151617165D
:1029F00015120F0B0703FFFBF8F6F4F3F2F3F3F5F0
:102A0000F7F9FBFD000203040505040303020100BE
:102A1000FEFDFBFAF8F7F7F7F7F8F8F9FAFBFCFD1B
:102A2000FDFDFDFDFDFEFEFEFFFF000000000000BD
:102A3000000000FFFFFEFDFBFAF9F9F9F9FAFBFCD3
:102A4000FEFF010204050606060605040201FFFE5C
:102A5000FEFEFEFF00010203040404040301FFFD67
:102A6000FBFAF8F6F5F4F4F4F5F7F8FBFE010408C8
:102A70000B0E101214141413110F0C0A0805030185
:102A8000FFFEFCFBFAFAFAFBFCFCFDFDFDFCFBFA89
:102A9000F8F6F5F4F3F2F2F3F3F4F5F5F6F7F7F7E9
:102AA000F7F6F5F5F5F5F6F7F9FCFE0104080B0E5F
:102AB000111416171819181715120E090400FCF82E
:102AC000F6F4F3F3F3F4F5F6F8F9FBFCFDFEFEFE85
:102AD000FDFCFAF9F8F7F6F6F6F6F7F8F9FBFDFF64
:102AE00000020304040404040302010101010102C1
:102AF00003040506070809090A0A0A090807050464
:102B0000020100FFFFFFFFFFFFFFFFFEFEFDFDFCD8
:102B1000FBFBFAFAFAFAFBFCFE00020405060606C5
:102B200006050301FFFCFAF7F4F1F0EEEDEDEEEF30
:102B3000F1F4F7FAFD010407090C0D0E0F0E0C0A53
:102B4000070401FFFCFAF8F7F5F4F3F2F2F3F4F6F8
:102B5000F8FBFDFF000101010000FFFFFFFFFFFF89
:102B6000FFFFFF0000000001010102030406070946
:102B70000B0C0E101214161718181817161514121D
:102B80000F0C0803FFFBF7F3F0EDEBE9E8E7E7E8EC
:102B9000E8EAEBEDEFF1F2F3F4F4F4F4F4F4F4F426
:102BA000F5F6F8FAFCFF02040708090A0909080605
:102BB0000503020100000000010203040507090AE1
:102BC0000B0C0C0B0A070502FFFDFBF9F7F6F5F4F9
:102BD000F4F4F5F6F8F9FBFDFF0001020305060722
:102BE00008090A0A0A0A0908070605030200FEFC8A
:102BF000FBF9F7F6F6F6F7F9FBFD0003070A0C0EF2
:102C0000101111110F0D090500FBF7F3F0EEEDECBB
:102C1000ECEDEFF1F3F5F8FBFD0001020303020117
:102C2000FFFDFCFAF9F8F8F8F8F9FAFBFCFDFEFFF5
:102C3000FF000001020202030304050607080A0B55
:102C40000C0D0D0E0D0D0C0A08060300FDFAF7F52C
:102C5000F4F3F2F2F1F2F2F3F4F6F7F8FAFBFCFC1B
:102C6000FDFDFDFEFF0001030507090B0E10121309
:102C7000141312110E0B080501FFFDFCFBFBFBFCFE
:102C8000FCFDFEFEFEFFFF0000FFFEFDFBF8F6F47C
:102C9000F2F0EFEEEEEEEEEFF0F1F3F5F7FAFD0005
:102CA0000306080A0B0C0D0E0E0E0E0D0C0B090878
:102CB000060402FFFDFCFAF9F7F7F6F6F6F7F8F965
:102CC000FBFD00020406080909090908060402FFC1
:102CD000FCFAF8F6F5F4F4F4F5F6F7F8FAFCFEFF72
:102CE00001030404050504040302020100000000BE
:102CF000000102030405070808090908080705047C
:102D0000030100FFFEFEFEFF0002030507090A0A99
:102D10000908060300FEFBF9F7F5F3F2F0EFEFEE1A
:102D2000EFF0F1F3F4F6F8F9FAFBFCFDFEFFFF001B
:102D300001020304050607070706050301FFFCFA65
:102D4000F7F6F5F4F5F6F7F9FCFE01030608090BB2
:102D50000C0C0B09070401FEFBF9F7F6F5F5F6F785
:102D6000FAFCFF03070A0E11141617181918171684
:102D700014110F0C0907050301FFFCFAF8F5F3F035
:102D8000EEECEBE9E9E9EAEBEDEFF2F5F8FBFDFF3C
:102D900001020303020100FFFDFCFBFBFAFAFBFB4F
:102DA000FCFCFDFEFF000203040404040302010016
:102DB000FFFEFEFDFEFEFEFF000102030405050608
:102DC0000605040301FFFDFCFBFAFBFBFDFF01030D
:102DD00006090B0E101111110F0D0A0602FFFCFA65
:102DE000F8F6F5F4F4F3F4F4F5F6F8FAFCFF010361
:102DF000040607080808080807060605030200FE7F
:102E0000FCFAF8F6F4F3F2F2F2F2F3F5F7F9FBFE5E
:102E1000000305080A0B0C0D0C0B080602FFFCF959
:102E2000F6F4F3F2F2F3F4F5F7F9FCFF0104060807
:102E30000A0B0C0C0C0B0A0907050301FFFDFCFB38
:102E4000FAF9F9F9F9F8F8F7F7F6F6F5F6F6F7F909
:102E5000FAFCFEFF0103040607090B0C0D0E0E0E13
:102E60000D0C0C0B0A0A09080706050404030202EC
:102E700002010100FFFEFCFBF9F8F6F5F3F3F2F2B4
:102E8000F2F3F3F4F5F6F7F8F9F9F9F9F8F8F7F7DA
:102E9000F7F8FAFCFF0206090D1013161819191796
:102EA00015120E090500FCF8F5F2F0EEEDEDEEEF6F
:102EB000F1F4F6F9FCFE0103040506060605040319
:102EC000020100FFFEFDFDFCFCFBFBFAFAF9F9F93B
:102ED000F9F9FAFAFBFDFE00020407090C0E0F10C7
:102EE000100F0D0B080502FFFEFCFCFCFCFDFE00B4
:102EF0000102040506070707060504030100FEFD9D
:102F0000FBFAFAF9F9FAFAFBFBFCFCFDFDFDFDFC0E
:102F1000FBFAF9F7F6F6F6F6F7F8F9FBFDFF010311
:102F20000507080A0A0A0A0807050301FFFDFBFA5C
:102F3000F9F8F7F7F6F6F6F7F7F8F8F9FAFBFCFD0B
:102F4000FDFEFEFEFEFEFEFFFF000001010101018D
:102F500000FFFEFEFEFEFE000204070B0E12161A14
:102F60001D2022232423211E1A150F0A04FFFAF51F
:102F7000F0EDE9E7E5E4E4E4E6E8EAECEEF1F3F5A8
:102F8000F6F8F9F9FAFAFAFAFAFAFAFAFAFBFCFDA3
:102F9000FEFFFF0001010101010101010102030423
:102FA000050606070809090A09090706040200FEC2
:102FB000FDFCFBFBFCFCFDFEFEFF00010102020329
:102FC000030303030303020201010000FFFFFFFEEE
:102FD000FEFEFEFEFEFDFDFDFCFBFBFAFAFAFAFB2F
:102FE000FCFE000205080B0E101214151514110E2C
:102FF0000B0702FEFAF6F2EFECEBEAEAEBECEEF08E
:10300000F2F4F7FAFCFE00020304040404030201D4
:103010000100FFFFFEFEFDFDFCFCFBFBFAFBFBFCE1
:10302000FE000205070A0C0F111314151514120FD8
:103030000C0703FEF9F5F2EFECEBEAE9EAEBEDEF52
:10304000F2F5F7FAFDFF00010202010000FFFEFEAB
:10305000FF0001020406080A0C0D0E0F0F0F0E0DE3
:103060000C0B090807060605050504040403030202
:1030700000FFFDFAF8F5F3F1EFEEEDEDEDEEEFF018
:10308000F2F4F6F8F9FBFDFF01030406070809094D
:10309000090908080707060504030201FFFDFBF9FB
:1030A000F7F5F3F3F3F3F4F6F8FAFD0003060A0D6F
:1030B0001012141414120F0C080400FCF8F5F2F0AE
:1030C000EFEEEEEFF0F1F3F5F7F9FBFDFF00020391
:1030D00004050505050404030302020202020304B9
:1030E0000405050606060707080809090A0B0B0B65
:1030F0000B0B0B0A0907050301FEFBF8F5F3F1EFD3
:10310000EEEEEEEEF0F1F4F6F8FAFCFEFF00000051
:103110000000FFFEFDFCFCFCFCFDFEFFFF000102C9
:10312000020303020100FFFEFDFBFAF9F9F9F9FAC7
:10313000FBFCFE0002040507070807060503020062
:10314000FEFCFBF9F8F6F6F6F6F7F9FBFE010508CA
:103150000C0F1214161717181717161413110F0D3A
:103160000A080502FFFBF8F4F1EEECEAE9E9EAEB04
:10317000ECEEF0F3F5F8FCFF020406070807050380
:1031800000FEFBF8F6F4F3F3F3F3F5F6F8F9FBFEC3
:10319000000203050607070706040200FFFDFCFB0B
:1031A000FBFBFBFCFDFEFF01020304050506060711
:1031B00007080809090A0B0B0C0C0C0C0C0B09086E
:1031C0000502FFFCF9F6F3F1EFEEEEEFF0F2F4F7A3
:1031D000F9FBFDFF010203040505060707070808C0
:1031E0000809080808070605040200FEFBF8F5F2C6
:1031F000F0EFEEEEEEF0F2F4F7FAFE0104080B0D3C
:103200000E0F0F0E0C0A070401FEFBF8F6F4F3F3A1
:10321000F3F4F6F8FBFE010306080A0B0C0C0B0A8C
:10322000090806050301FFFDFBF9F7F6F4F3F1F1D8
:10323000F0F0F0F1F2F4F6F8FAFDFF020406080AE5
:103240000B0C0C0C0B0A09070604020100FFFFFF20
:10325000000102040507090A0C0D0E0E0E0D0B09E4
:103260000602FFFBF8F5F3F1F0F0EFF0F0F1F2F306
:10327000F3F4F5F6F7F8F9FAFCFDFF01020406088D
:103280000A0C0E10111111100E0C090603FFFCF9A7
:10329000F6F4F2F1F0F0F0F1F2F3F5F6F8FAFCFEE4
:1032A000FF010204050607070808080808070706C3
:1032B000050301FFFCFAF7F5F3F2F2F2F3F4F6F886
:1032C000FAFD000306090B0D0E0F0F0E0D0B08057E
:1032D0000200FDFBFAFAFBFCFD00020407090B0DDE
:1032E0000E0F0F0E0D0B080502FFFCF9F6F4F2F1BC
:1032F000F0F0EFEFF0F0F1F2F3F5F6F8FAFCFE0083
:103300000203050708090A0B0B0B0A0A0907060442
:103310000200FEFBF9F7F6F5F4F4F4F5F6F7F8FA27
:10332000FBFDFEFFFFFFFEFEFDFCFBFAFAF9F9FADA
:10333000FBFCFDFEFF01010202010100FFFFFFFF98
:1033400000010305080B0E111417191B1D1E1E1E6C
:103350001C1A1714100B0602FDF9F5F2F0EDECEB58
:10336000EAEBEBECEDEFF0F1F3F4F5F6F6F7F8F845
:10337000F9FAFBFBFCFCFDFDFDFDFCFBFBFAF9F99A
:10338000F9F9FAFBFCFE00020507090B0D0E0E0E03
:103390000D0C0A080502FFFCFAF7F5F4F4F5F6F84F
:1033A000FAFD000307090C0E10111211100E0B0884
:1033B0000502FFFCF9F7F6F4F3F2F2F2F2F2F2F39F
:1033C000F4F5F7F8FAFCFE0001030507090B0D0FF1
:1033D00010121314141312100E0B080401FDFAF747
:1033E000F4F2F0EFEEEDEEEEEFF0F2F3F5F6F7F8C3
:1033F000F9FAFBFCFDFEFF010204050607070707BB
:1034000006040201FFFEFDFDFDFE00020406080A9F
:103410000C0D0F101010100F0D0A0703FFFAF6F233
:10342000EEEBE9E8E8E8E9EBEDF0F3F6F9FCFE0194
:1034300003040505050403020100FFFFFF0000016E
:1034400001020203030304040507080A0B0D0F1110
:10345000121314151413110F0C090502FEFAF6F2DB
:10346000EFECE9E8E7E7E7E9EBEEF1F4F8FCFF025F
:1034700005070809090807060504020100FFFEFD0B
:10348000FCFCFCFCFCFBFBFBFBFAFAF9F9F8F8F896
:10349000F9FAFBFDFF0204070A0C0E0F10111110C0
:1034A0000E0C0A070401FEFBF8F6F4F3F2F1F1F258
:1034B000F3F4F5F7F8F9FAFBFBFCFCFDFDFEFF0069
:1034C00001030405050606060605050505060708A9
:1034D000090A0C0D0E10111212131212100E0B0805
:1034E0000400FCF7F2EDE9E6E4E2E2E3E4E7EAED0A
:1034F000F1F5F9FE0105080A0C0D0D0C0A0806038A
:1035000001FFFEFDFCFCFCFCFCFBFBFAF9F8F8F803
:10351000F8F8F9FAFBFDFE000102030405050606B2
:10352000050505040301FFFEFCFAF8F7F7F6F7F7C7
:10353000F8FAFBFD00020406080A0B0C0D0D0D0D38
:103540000D0D0C0C0C0C0B0B0B0B0B0A0A080705D2
:103550000200FDFAF7F5F3F2F1F1F2F3F4F6F8FAFE
:10356000FCFDFF000102020101FFFDFBF9F6F4F290
:10357000F1F0F0F1F2F3F5F7FAFCFE0002040506B3
:103580000606050504020100FFFEFDFCFCFBFBFB3B
:10359000FBFBFCFDFE00020406080A0D0F111315CB
:1035A000161718171613110D0904FFFAF6F1EDEAB4
:1035B000E7E6E5E6E7E8EBEEF1F5F8FC00030608E0
:1035C0000A0B0B0B0B0A0909080807070707070670
:1035D00005040301FFFDFCFAF8F7F5F5F4F4F4F443
:1035E000F5F6F7F9FBFDFF000204050607070606DE
:1035F0000403020100FFFFFFFFFFFF0001020304BD
:103600000506070707060504030100FEFDFCFBFA9B
:10361000FAFAF9F9F8F7F6F5F4F3F3F3F3F4F5F64B
:10362000F8FAFCFF020407090A0C0D0D0D0C0B093A
:10363000070502FFFCF9F7F6F5F5F6F7F9FCFF02CE
:1036400006090C0F111213141312100E0B070400AD
:10365000FDFBF8F6F4F3F2F1F0F0F0F0F1F2F4F52E
:10366000F7FAFCFF010406090A0C0D0E0E0D0C0BF7
:1036700009070401FDFAF7F5F3F2F1F1F2F3F4F5BD
:10368000F7F8FAFBFDFEFF0000000000000000005C
:1036900000010202030405060606060505040201F0
:1036A000FFFEFCFBF9F8F8F8F8F9FAFCFDFF000260
:1036B0000304050606060504020100FFFEFEFEFFE8
:1036C0000001030507090B0D0E0F0F0F0F0E0D0A5A
:1036D000080502FFFCFAF7F5F3F1EFEEEDECECEC88
:1036E000ECEDEEF0F2F4F7FAFD0003070A0D0F110E
:1036F0001213141312100E0B080400FDF9F6F3F167
:10370000F0EFEFEFF0F1F3F6F8FAFDFF000202023E
:10371000020100FFFDFCFBFBFAFAFAFBFBFBFCFDE0
:10372000FDFEFFFF000102020304050607080A0B65
:103730000C0D0E0E0F0F0F0F0E0D0C0A08070503D0
:1037400002010000FFFFFFFEFEFDFDFCFBFBFAFA9D
:10375000F9F8F8F7F6F5F4F4F4F4F4F5F6F7F8F907
:10376000FAFAFBFBFBFBFBFAFAFBFBFBFBFCFDFEA7
:103770000001030506080A0B0C0C0C0B0A070502D6
:10378000FFFCF9F7F5F4F4F5F6F7FAFCFF0205088B
:103790000A0C0E10101111100E0C09060300FDFA90
:1037A000F8F5F3F2F1F0EFEFEFF0F1F2F3F5F7F9EE
:1037B000FCFE010407090C0D0F101112121211105A
:1037C0000E0B080502FFFDFAF8F7F6F6F6F6F6F727
:1037D000F8F8F9F9F9F9F9F8F8F7F7F6F6F6F7F86D
:1037E000F9FAFCFEFF01020405070809090A0A09A3
:1037F000090908080808080808080808080706054D
:10380000030100FDFBF9F7F5F3F2F1F0F0F0F1F24E
:10381000F3F5F6F8FAFCFDFF0001020202020201D4
:1038200001010101000000FFFFFEFDFDFCFCFCFCAE
:10383000FCFDFE00010305080A0C0F1113141616F7
:10384000161614120F0B0702FEF9F6F2F0EEEDED6C
:10385000EDEEEFF1F3F6F8FBFD00020405050605B9
:1038600004030100FEFDFCFBFAF9F9F8F8F8F8F999
:10387000F9FAFBFBFCFDFEFF000001020303040557
:1038800005060607070707070604030100FEFDFCFF
:10389000FCFCFDFDFEFEFFFFFFFFFFFEFEFDFCFC4E
:1038A000FBFAF9F9F8F8F8F8F9FAFBFCFDFE00016B
:1038B00002040506070808090A0A0B0C0D0D0E0E76
:1038C0000F0F0F0E0E0C0B09070502FEFBF8F4F1AB
:1038D000EEECEAE9E8E8E9EBEDF0F2F5F9FCFF01DE
:1038E000040608090A0A0A0A0A0908070605030164
:1038F00000FEFCFBFAF9F8F7F7F7F7F7F8F9FAFB2F
:10390000FDFF00020304050607070606050301FF85
:10391000FDFBFAF8F8F7F7F8F9FAFCFE00010305E9
:1039200007080909090807060503020000FFFFFF51
:10393000FF00000102030405050607070707060646
:10394000050403020100FFFFFFFEFEFEFEFDFCFC7E
:10395000FAF9F8F6F5F4F3F3F3F3F4F5F6F7F9FA08
:10396000FCFDFEFF00000101010101010101010058
:103970000000000000FFFFFFFFFEFEFEFEFEFFFF57
:10398000000102040507080A0C0D0E0F1010100F9D
:103990000D0B090602FEFAF7F3F1EFEDEDECEDEE9B
:1039A000F0F2F4F6F8FBFDFF010305060607070732
:1039B0000707070707060605040302010000FFFECC
:1039C000FEFDFDFCFCFCFCFCFCFCFDFDFDFDFEFE2B
:1039D000FEFEFEFEFEFEFDFDFDFCFCFCFCFDFEFF12
:1039E0000103040608090A0B0B0B0B0A090806045D
:1039F00002FFFDFBFAF8F7F7F6F6F6F6F6F7F7F83A
:103A0000F8F9F9FAFAFBFCFCFDFEFF0001020303E2
:103A1000040506070707070605040200FEFCFAF97D
:103A2000F8F7F7F7F7F8F9FBFCFE000204060809BF
:103A30000A0B0B0C0C0B0B0A0A090706040201FF08
:103A4000FDFCFBFAF9F8F8F8F8F8F9FAFBFCFEFFD0
:103A5000010204050506060605040301FFFDFBF946
:103A6000F7F5F4F4F4F4F5F7F8FAFCFDFF000203BF
:103A70000303030303020100FFFEFEFDFDFDFDFD48
:103A8000FDFEFEFFFF000102020303030303030325
:103A90000302020101010100000000FFFFFEFDFC26
:103AA000FCFBFBFBFBFBFCFDFF0002040507090A16
:103AB0000B0C0D0D0C0B0A0907050301FFFEFCFBA7
:103AC000FAF9F8F7F6F5F5F4F4F3F3F3F4F4F5F6A0
:103AD000F8F9FBFDFF01030507090B0C0D0E0E0D98
:103AE0000C0B08060301FEFCFAF8F7F6F6F6F6F6FC
:103AF000F7F8F9FAFBFCFDFEFFFFFFFFFFFEFEFEFD
:103B0000FEFEFEFEFEFEFEFEFEFEFEFFFFFF0000CE
:103B10000102030405050607080808080807060649
:103B20000504030100FFFEFDFCFBFBFCFDFEFF01A5
:103B30000204050607080807070605030100FEFC46
:103B4000FAF9F8F7F6F5F5F5F5F5F6F6F7F8F9FA06
:103B5000FAFBFCFDFDFEFFFF00010102030304046C
:103B600005050505050504030200FFFEFDFCFCFC40
:103B7000FCFCFCFDFEFF0001020304050506060631
:103B800005050504040302020100FFFDFCFBFAF930
:103B9000F9F8F8F7F7F7F8F8F9FAFBFCFEFF01037C
:103BA000040607090A0A0A0A0A090706040201FFAD
:103BB000FEFDFCFCFCFCFCFDFDFDFEFEFFFFFFFF2F
:103BC000FEFDFCFBFAF9F8F8F8F8F9F9FAFBFCFD50
:103BD000FEFF0001030405060708090A0B0B0C0B86
:103BE0000B0A09080705040200FEFDFBFAF8F7F6C8
:103BF000F6F5F5F6F7F8F9FAFBFCFDFEFEFF00001E
:103C0000000000000000000000000000FFFFFFFFB8
:103C1000FFFFFFFFFEFEFEFEFEFEFEFEFEFEFF00BD
:103C20000001020304050506070708080909090839
:103C30000807060504030100FFFEFDFDFCFCFBFB7D
:103C4000FBFBFBFBFCFCFCFDFDFDFEFEFEFEFEFEA9
:103C5000FDFDFDFCFCFCFCFCFCFCFCFCFDFDFEFF9A
:103C6000FF0000010102020202020202010100FF44
:103C7000FFFEFEFDFDFDFDFDFDFEFEFF000001025D
:103C8000020303040404030302010100FFFEFDFC20
:103C9000FCFBFBFBFBFBFCFCFDFDFEFF000103044A
:103CA00005060708080909090908070706050402A7
:103CB0000100FFFEFDFCFBFBFAFAF9F9F9F8F8F850
:103CC000F8F8F9F9F9FAFBFBFCFDFEFF000102022E
:103CD000030404050505050505040303020100FFAF
:103CE000FEFEFDFCFCFCFBFBFBFBFCFCFCFCFDFD11
:103CF000FDFEFEFEFFFFFFFF0000000000000000D1
:103D00000000000101010202020303030303030296
:103D100002010100FFFFFEFDFDFDFCFCFDFDFEFEBE
:103D2000FF0001020304050506070707070706064B
:103D30000504030100FFFEFCFBFAF9F8F8F7F7F7BA
:103D4000F7F8F8F9F9FAFBFCFCFDFEFFFF000000B4
:103D50000000000000000000000000000000000063
:103D60000101010101010101010101010101010143
:103D70000101010101010101010101010101000035
:103D800000FFFFFEFEFDFDFCFCFCFCFBFBFCFCFC65
:103D9000FCFDFDFEFEFF0000010102020303030320
:103DA000030303030202020101000000FFFFFFFF03
:103DB000FFFFFFFEFEFEFEFDFDFCFCFCFBFBFBFB34
:103DC000FBFBFCFCFDFDFEFF0000010203040506F9
:103DD00007070708070706060504030100FFFEFDA5
:103DE000FCFBFAF9F9F9F9F9F9F9FAFAFBFCFCFD2F
:103DF000FEFEFF000001010101010101010000FFC1
:103E0000FFFFFFFEFEFEFEFEFEFEFEFEFEFEFEFECF
:103E1000FEFEFFFFFFFF000000010102020303049A
:103E20000404050505050505050504040303020151
:103E30000100FFFFFEFEFDFDFCFCFCFCFCFCFCFCAD
:103E4000FCFCFCFCFCFCFCFDFDFDFDFDFDFDFEFEA7
:103E5000FEFEFEFFFFFF0000000101010102020162
:103E60000101010000FFFFFEFEFDFDFDFDFDFDFE69
:103E7000FEFEFFFF00010102020203030302020231
:103E8000010000FFFFFEFEFDFDFDFDFDFDFDFDFE51
:103E9000FEFF0000010203030405050505050505F5
:103EA00004040302020100FFFFFEFDFDFDFCFCFC1B
:103EB000FCFCFBFBFBFBFBFCFCFCFCFDFDFDFEFE40
:103EC000FEFFFF00000001010101020202020202E6
:103ED0000202020101010000FFFFFFFEFEFEFDFDE8
:103EE000FDFDFDFDFDFDFDFDFEFEFEFEFFFFFF00F5
:103EF00000000001010101010101010101010101B5
:103F00000101010101000000FFFFFFFEFEFDFDFDBC
:103F1000FDFDFDFEFEFFFF0000010102030304049E
:103F2000040505050504040303020100FFFEFDFD71
:103F3000FCFBFBFAFAFAFAFAFAFBFBFCFCFDFDFECD
:103F4000FEFFFF0000000000000000000000000075
:103F50000000000000000001010101010101010158
:103F60000101010100000000000000FFFFFFFFFF52
:103F7000FFFFFFFFFF000000000000FFFFFFFFFF4B
:103F8000FFFEFEFEFEFEFEFEFEFEFFFFFFFFFF0049
:103F90000000000001010101010101010101010115
:103FA00001000000000000FFFFFFFFFFFEFEFEFE1D
:103FB000FEFEFDFDFDFDFDFDFEFEFEFEFFFF000021
:103FC00000010102020303030304040303030202CA
:103FD000010100FFFFFEFEFDFDFCFCFCFCFCFCFC07
:103FE000FCFDFDFDFEFEFFFFFF00000001010101E1
:103FF0000100000000FFFFFFFFFFFEFEFEFEFEFFD0
:10400000FFFFFFFFFFFFFFFFFFFFFF0000000000BB
:104010000000010101010102020202030303030384
:104020000303030202020101000000FFFFFEFEFE87
:10403000FDFDFDFDFDFDFDFDFDFDFDFDFDFEFEFEAD
:10404000FEFFFFFFFFFFFFFFFF000000000000007A
:1040500000000000000000000000FFFFFFFFFFFE67
:10406000FEFEFEFEFEFEFFFFFFFF0000000001015E
:104070000101010101010100000000FFFFFFFFFF3E
:10408000FFFEFEFFFFFFFFFF000000000101010136
:1040900002020202020201010101000000FFFFFF13
:1040A000FFFEFEFEFEFEFEFEFEFEFEFEFEFEFEFE2F
:1040B000FEFFFFFFFFFFFFFFFFFFFFFFFF0000000E
:1040C00000000000000001010101000000000000EC
:1040D0000000FFFFFFFFFFFEFEFEFEFEFEFEFEFFF6
:1040E000FFFFFFFFFF0000000000000000000000D5
:1040F0000000000000000000000000FFFFFFFFFFC5
:10410000FFFFFFFFFFFFFFFFFFFFFFFFFFFF0000BD
:104110000000010101010101010201010101010190
:10412000000000FFFFFFFEFEFEFEFEFEFEFEFEFEA6
:10413000FEFEFEFEFFFFFFFFFFFFFF00000000008E
:10414000000000000000000000000000000000006F
:1041500000000000000000000000000000FFFFFF62
:10416000FFFFFFFFFFFFFFFFFFFFFFFF000000005B
:10417000000000000000000000FFFFFFFFFFFFFF46
:10418000FFFFFFFFFFFFFFFFFFFF00000000000039
:104190000000000000000000000000000000FFFF21
:1041A000FFFFFFFFFFFFFFFFFFFFFFFFFFFFFFFF1F
:1041B000FFFFFFFF00000000000000000000000003
:1041C00000000000000000000000FFFFFFFFFFFFF5
:1041D000FFFFFFFFFFFFFFFFFFFFFFFFFFFFFF00EE
:1041E0000000000000000000000000FFFFFFFFFFD4
:1041F000FFFFFFFFFFFFFFFFFFFFFFFFFFFFFFFFCF
:1042000000FF0000000000000000000000000000AF
:10421000000000000000000000000000000000009E
:104220000000FFFFFFFFFFFFFFFFFFFFFFFFFFFF9C
:10423000FFFFFFFFFF008080808080808080808083
:10424000808080808080808080808080808080806E
:10425000808080808080808080808080808080815D
:10426000818181818181818181818181818181813E
:10427000828282828282828282828282828383831B
:1042800083838383838383838484848484848484F6
:1042900084848585858585858585858686868686CB
:1042A000868686878787878787878888888888889B
:1042B00088888989898989898A8A8A8A8A8A8A8B67
:1042C0008B8B8B8B8B8C8C8C8C8C8C8D8D8D8D8D2E
:1042D0008E8E8E8E8E8E8F8F8F8F8F9090909090EF
:1042E00091919191919292929292939393939394AC
:1042F0009494949495959595969696969697979767
:10430000979898989898999999999A9A9A9A9B9B1C
:104310009B9B9C9C9C9C9D9D9D9D9E9E9E9E9F9FCD
:104320009F9FA0A0A0A0A1A1A1A1A2A2A2A3A3A37C
:10433000A3A4A4A4A4A5A5A5A6A6A6A6A7A7A7A826
:10434000A8A8A8A9A9A9AAAAAAAAABABABACACACCD
:10435000ACADADADAEAEAEAFAFAFB0B0B0B0B1B171
:10436000B1B2B2B2B3B3B3B4B4B4B5B5B5B5B6B611
:10437000B6B7B7B7B8B8B8B9B9B9BABABABBBBBBB0
:10438000BCBCBCBDBDBDBEBEBEBFBFBFC0C0C0C14A
:10439000C1C1C2C2C2C3C3C4C4C4C5C5C5C6C6C6E2
:1043A000C7C7C7C8C8C8C9C9C9CACACBCBCBCCCC78
:1043B000CCCDCDCDCECECFCFCFD0D0D0D1D1D1D20C
:1043C000D2D3D3D3D4D4D4D5D5D5D6D6D7D7D7D89E
:1043D000D8D8D9D9DADADADBDBDBDCDCDDDDDDDE2F
:1043E000DEDEDFDFE0E0E0E1E1E2E2E2E3E3E3E4BE
:1043F000E4E5E5E5E6E6E7E7E7E8E8E8E9E9EAEA4B
:10440000EAEBEBECECECEDEDEDEEEEEFEFEFF0F0D8
:10441000F1F1F1F2F2F3F3F3F4F4F5F5F5F6F6F663
:10442000F7F7F8F8F8F9F9FAFAFAFBFBFCFCFCFDEF
:10443000FDFEFEFEFFFF000000010101020203037A
:104440000304040505050606070707080809090906
:104450000A0A0A0B0B0C0C0C0D0D0E0E0E0F0F1092
:10446000101011111212121313131414151515161E
:104470001617171718181819191A1A1A1B1B1C1CAB
:104480001C1D1D1D1E1E1F1F1F202020212122223A
:1044900022232324242425252526262727272828C8
:1044A0002829292A2A2A2B2B2B2C2C2C2D2D2E2E59
:1044B0002E2F2F2F303030313132323233333334EC
:1044C0003434353536363637373738383839393980
:1044D0003A3A3A3B3B3B3C3C3D3D3D3E3E3E3F3F16
:1044E0003F404040414141424242434343444444AF
:1044F0004545454646464747474848484949494A49
:104500004A4A4A4B4B4B4C4C4C4D4D4D4E4E4E4FE8
:104510004F4F4F5050505151515252525353535389
:10452000545454555555555656565757575758582D
:1045300058595959595A5A5A5B5B5B5B5C5C5C5CD5
:104540005D5D5D5E5E5E5E5F5F5F5F60606060617F
:10455000616161626262626363636364646464652F
:1045600065656566666666676767676768686868E1
:10457000696969696A6A6A6A6A6B6B6B6B6B6C6C96
:104580006C6C6C6D6D6D6D6E6E6E6E6E6E6F6F6F52
:104590006F6F707070707071717171717172727211
:1045A00072727373737373737474747474747575D3
:1045B000757575757576767676767676777777779C
:1045C0007777777878787878787879797979797968
:1045D00079797A7A7A7A7A7A7A7A7A7B7B7B7B7B38
:1045E0007B7B7B7B7B7C7C7C7C7C7C7C7C7C7C7C10
:1045F0007D7D7D7D7D7D7D7D7D7D7D7D7D7E7E7EE8
:104600007E7E7E7E7E7E7E7E7E7E7E7E7E7E7F7FC8
:104610007F7F7F7F7F7F7F7F7F7F7F7F7F7F7F7FAA
:104620007F7F7F7F7F7F7F7F7F7F7F7F7F7F7F7F9A
:104630007F7F7F7F7F7F7F7F7F7F7F7F7F7F7F7F8A
:104640007F7F7F7F7F7F7F7F7F7F7F7F7F7F7F7F7A
:104650007F7F7F7F7F7F7F7F7F7F7F7F7F7F7F7F6A
:104660007E7E7E7E7E7E7E7E7E7E7E7E7E7E7E7E6A
:104670007D7D7D7D7D7D7D7D7D7D7D7D7D7C7C7C6D
:104680007C7C7C7C7C7C7C7C7B7B7B7B7B7B7B7B72
:104690007B7B7A7A7A7A7A7A7A7A7A79797979797D
:1046A000797979787878787878787777777777778D
:1046B00077777676767676767575757575757574A1
:1046C00074747474747373737373737272727272BA
:1046D00071717171717170707070706F6F6F6F6FD9
:1046E0006E6E6E6E6E6D6D6D6D6D6C6C6C6C6C6BFC
:1046F0006B6B6B6B6A6A6A6A6A6969696968686820
:10470000686767676767666666666565656564644A
:104710006464636363636262626261616161606079
:1047200060605F5F5F5F5E5E5E5E5D5D5D5C5C5CAA
:104730005C5B5B5B5B5A5A5A5959595958585857E0
:104740005757575656565555555554545453535319
:10475000535252525151515050504F4F4F4F4E4E55
:104760004E4D4D4D4C4C4C4B4B4B4A4A4A4A494995
:1047700049484848474747464646454545444444D6
:104780004343434242424141414040403F3F3F3E1C
:104790003E3E3D3D3D3C3C3C3B3B3A3A3A39393963
:1047A00038383837373736363635353434343333AE
:1047B0003332323231313030302F2F2F2E2E2E2DFA
:1047C0002D2C2C2C2B2B2B2A2A2A29292828282748
:1047D0002727262625252524242423232222222296
:1047E000212120201F1F1F1E1E1D1D1D1C1C1C1BE8
:1047F0001B1A1A1A1919181818171717161615153B
:1048000015141413131312121211111010100F0F8C
:104810000E0E0E0D0D0C0C0C0B0B0A0A0A090909E1
:104820000808070707060605050504040303030235
:1048300002010101000000FFFFFEFEFEFDFDFCFC89
:10484000FCFBFBFAFAFAF9F9F8F8F8F7F7F6F6F6DE
:10485000F5F5F5F4F4F3F3F3F2F2F1F1F1F0F0EF32
:10486000EFEFEEEEEEEDEDECECECEBEBEAEAEAE985
:10487000E9E8E8E8E7E7E7E6E6E5E5E5E4E4E3E3D9
:10488000E3E2E2E2E1E1E0E0E0DFDFDEDEDEDDDD2B
:10489000DDDCDCDBDBDBDADADAD9D9D8D8D8D7D77C
:1048A000D7D6D6D5D5D5D4D4D4D3D3D3D2D2D1D1CB
:1048B000D1D0D0D0CFCFCFCECECDCDCDCCCCCCCB18
:1048C000CBCBCACAC9C9C9C8C8C8C7C7C7C6C6C664
:1048D000C5C5C5C4C4C4C3C3C2C2C2C1C1C1C0C0AE
:1048E000C0BFBFBFBEBEBEBDBDBDBCBCBCBBBBBBF5
:1048F000BABABAB9B9B9B8B8B8B7B7B7B6B6B6B53B
:10490000B5B5B5B4B4B4B3B3B3B2B2B2B1B1B1B07A
:10491000B0B0B0AFAFAFAEAEAEADADADACACACACB9
:10492000ABABABAAAAAAAAA9A9A9A8A8A8A8A7A7F5
:10493000A7A6A6A6A6A5A5A5A4A4A4A4A3A3A3A32D
:10494000A2A2A2A1A1A1A1A0A0A0A09F9F9F9F9E63
:104950009E9E9E9D9D9D9D9C9C9C9C9B9B9B9B9A93
:104960009A9A9A99999999989898989897979797C1
:1049700096969696969595959594949494949393EB
:10498000939393929292929291919191919090900F
:1049900090908F8F8F8F8F8E8E8E8E8E8E8D8D8D31
:1049A0008D8D8C8C8C8C8C8C8B8B8B8B8B8B8A8A4F
:1049B0008A8A8A8A8A898989898989898888888866
:1049C000888888878787878787878686868686867A
:1049D000868685858585858585858584848484848A
:1049E0008484848484838383838383838383838392
:1049F000828282828282828282828282828181819A
:104A00008181818181818181818181818181808098
:104A10008080808080808080808080808080808096
:104A20008080808080808080808080808080808086
:104A30008080808080800B3311241FBECFEFDAE0AE
:104A4000DEBFCDBF11E0A0E0B1E0EEEDFAE602C0BE
:104A500005900D92A832B107D9F724E0A8E2B1E0A1
:104A600001C01D92AF35B207E1F715E2CCE1D5E206
:104A700004C02197FE010E944735CB31D107C9F709
:104A80000E94842F0C946D350C94000040917F019E
:104A90005091800120917D0130917E014217530792
:104AA000B4F49091E8009570E1F39091E80092FDE4
:104AB00019C08093F10080917F019091800101964F
:104AC0008F739927892B19F48EEF8093E8008091DA
:104AD0007F019091800101969093800180937F01E6
:104AE00081E0089580E00895CF92DF92EF92FF92E7
:104AF0000F931F93CF93DF936C017A018B01C0E07A
:104B0000D0E0CE15DF0589F0D8016D918D01D60179
:104B1000ED91FC910190F081E02DC6010995892B62
:104B200011F47E0102C02196ECCFC701DF91CF9135
:104B30001F910F91FF90EF90DF90CF900895CF934A
:104B4000DF931F92CDB7DEB76983DC01ED91FC9155
:104B50000280F381E02D41E050E0BE016F5F7F4FA6
:104B600009950F90DF91CF91089583E08093E9003C
:104B70008091F200882319F08AE38093E800089579
:104B8000FC018485958597FD0BC09FB7F89482E062
:104B90008093E9008091F2009FBF90E00196089514
:104BA0009FB7F89482E08093E9008091F2009FBF64
:104BB00090E0089590E0FC013197EF30F105B0F5F9
:104BC000EA5AFF4F0C944735809180008F7703C0DD
:104BD000809180008F7D8093800008958091800077
:104BE000877FF9CF84B58F7702C084B58F7D84BD70
:104BF0000895809190008F7707C0809190008F7DFD
:104C000003C080919000877F8093900008958091E9
:104C1000C0008F7703C08091C0008F7D8093C0005B
:104C200008958091C200877F8093C2000895CF933A
:104C3000DF93282F30E0F901E25CFE4F8491F90107
:104C4000E15EFE4FD491F901E050FF4FC491CC23B7
:104C500091F081110E94DA25EC2FF0E0EE0FFF1F9A
:104C6000EE50FF4FA591B491EC91ED2381E090E0DF
:104C700021F480E002C080E090E0DF91CF910895C0
:104C800084E080934F018FEF809350011092720166
:104C9000109271011092730185EE8093BC0008950B
:104CA00082E080934F018FEF809350011092720148
:104CB0008093710181E08093730185EE8093BC0045
:104CC000089585ED8093BC008091BC0084FDFCCFED
:104CD00080914F0180934E0110924F0180914E01BF
:104CE000833011F40C94402680914E01813011F4F0
:104CF0000C9450260895CF93DF931F92CDB7DEB763
:104D000080911302909114028F3F4FEF940761F04E
:104D1000FC01E95FFD4F40814983019790931402A4
:104D200080931302898101C08FEF809300018091ED
:104D300000018F3FD1F08091000190917B0083FBB7
:104D4000222720F930E045E0220F331F4A95E1F792
:104D50009F7D292B20937B008770806480937C004B
:104D600080917A00806480937A000F90DF91CF91D8
:104D7000089508957F928F929F92AF92BF92CF92A3
:104D8000DF92EF92FF920F931F93CF93DF936C010B
:104D90005B017A0180910D01882309F466C080913E
:104DA000B601882309F461C08091820180FF05C0AB
:104DB0008091E00082608093E000E70110E00AEF5C
:104DC00083E0982E90E4792E2AE3822E209709F42E
:104DD00043C08FB7F8949092E9009091E80095FF56
:104DE00006C09091F200272D291B922F01C090E060
:104DF0008FBF911105C00150C1F10E942C2FE6CF49
:104E0000292F30E0C217D3070CF49C2F8FB7F894EA
:104E10009092E9002091E80025FF1CC0292F30E086
:104E2000C21BD30BF501915020F041914093F1004A
:104E3000FACFA20EB31E112319F08092E80009C028
:104E40009091E80095FD06C08092E80011E020975F
:104E500009F010E08FBFBACF1111BBCF5D9884E687
:104E6000809381011E141F0444F081E090E0F6015C
:104E70009383828380E090E001C0C701DF91CF91EE
:104E80001F910F91FF90EF90DF90CF90BF90AF9068
:104E90009F908F907F900895CF93DF931F92CDB70F
:104EA000DEB7FC018485958597FD05C02FEF3FEFA8
:104EB000358724870BC0CE0101960E94462F0197AB
:104EC00019F4898190E002C08FEF9FEF0F90DF917E
:104ED000CF9108950F931F93CF93DF931F92CDB778
:104EE000DEB78C01FC018485958597FF0EC0CE014D
:104EF00001960E94462F019719F4298130E002C0E3
:104F00002FEF3FEFF80135872487F80184859585D9
:104F10000F90DF91CF911F910F910895CF92DF9263
:104F2000EF92FF920F931F93CF93DF931F92CDB712
:104F3000DEB7182F062FE42E862F880F8E5F9983F9
:104F40000E94462583E00E944625F12EC12E9981BC
:104F5000D92E8C2D8F19801798F4F601E7FE02C028
:104F6000849101C080810E944625182F80E00E9414
:104F700046258123FFEFCF1ADF0A8111EACF01C056
:104F800081E00F90DF91CF911F910F91FF90EF90F3
:104F9000DF90CF900895DF92EF92FF920F931F93CF
:104FA000CF93DF93D82E8A017B01E40EF51EEB012F
:104FB000CE15DF0571F0D7FE03C0FE01849101C05C
:104FC00088810E94462521968111F2CF8FEF9FEFB5
:104FD00001C0C801DF91CF911F910F91FF90EF9019
:104FE000DF900895615030F02091F100FC012083A2
:104FF0000196F8CF289884E68093B50108951F9311
:10500000CF93DF93282F30E0F901E25CFE4F8491CB
:10501000F901E15EFE4FD491F901E050FF4FC491D8
:10502000CC23C9F0162F81110E94DA25EC2FF0E075
:10503000EE0FFF1FEC51FF4FA591B4918FB7F8947D
:10504000111105C09C91ED2FE095E92302C0EC9170
:10505000ED2BEC938FBFDF91CF911F910895E091DD
:105060003401F0913501DF01AC59BF4FAA0FBB1FCE
:105070002FE738E446E050E00E945A33DC01CB01D0
:105080003EE0B695A795979587953A95D1F7809389
:105090008C0190938D01A0938E01B0938F01CF016D
:1050A00065E070E00E9433356E5C60938A0170E0C9
:1050B000762F662780E090E00E94CD330E94A634D0
:1050C0000E949E3360938B0186E00E941726892BF5
:1050D00021F461E08DE00E94FF2787E00E941726FF
:1050E000892B21F460E08DE00E94FF27ECECF0E0DA
:1050F000E49180911302909114028B3091054CF44D
:1051000001969093140280931302DC01A95FBD4FB6
:10511000EC93F0E0EE0FFF1FEA5CFE4F808191817F
:105120009093330180933201EBECF0E0E4918091B5
:105130001302909114028B3091054CF401969093D8
:10514000140280931302DC01A95FBD4FEC93F0E0E1
:10515000EE0FFF1FEA5CFE4F808191819093350135
:105160008093340190933101809330011092290192
:105170001092280182E00E941726892B21F5809148
:105180002F01811122C00E94FC2E8091320190914A
:1051900033016CE271E00E9433356F5F7F4F072E61
:1051A000000C880B990B0E94CF3325E83BEE43ECB3
:1051B0005EE30E9433340E940A2F1092270481E09C
:1051C00080932F0102C010922F0181E090E0909314
:1051D00029018093280183E00E941726892B21F55D
:1051E00080912E01811122C00E94FC2E80913201FB
:1051F0009091330168EC70E00E9433356F5F7F4F10
:10520000072E000C880B990B0E94CF332DE33AE058
:1052100049EE5EE30E9433340E940A2F1092270465
:1052200081E080932E0102C010922E0182E090E076
:10523000909329018093280184E00E941726892BEE
:1052400021F580912D01811122C00E94FC2E8091B8
:105250003201909133016CE271E00E9433356F5F4F
:105260007F4F072E000C880B990B0E94CF3326E648
:1052700036E64EEA5EE30E9433340E940A2F109213
:10528000270481E080932D0102C010922D0183E05C
:1052900090E0909329018093280185E00E941726D1
:1052A000892B21F580912C01811122C00E94FC2EB6
:1052B00080913201909133016CE271E00E943335AC
:1052C0006F5F7F4F072E000C880B990B0E94CF3326
:1052D0002DEC3CEC42E05FE30E9433340E940A2F45
:1052E0001092270481E080932C0102C010922C01BF
:1052F00080912A0190912B01009749F0019790939A
:105300002B0180932A01892B11F48BEF8EB98091A8
:1053100000018F3F29F40E947B2681E080930101E8
:105320000895CF93DF9390E0FC01E15EFE4F24915E
:10533000FC01E050FF4F8491882361F190E0880FD9
:10534000991FFC01EA52FF4FC591D491FC01EC5129
:10535000FF4FA591B491611109C09FB7F89488815E
:10536000209582238883EC912E230BC0623061F458
:105370009FB7F8943881822F809583238883EC919E
:105380002E2B2C939FBF06C08FB7F894E8812E2B4D
:1053900028838FBFDF91CF9108953FB7F894809114
:1053A000790190917A01A0917B01B0917C0126B5A1
:1053B000A89B05C02F3F19F00196A11DB11D3FBF4D
:1053C000BA2FA92F982F8827820F911DA11DB11DDB
:1053D000BC01CD0142E0660F771F881F991F4A95D7
:1053E000D1F708951F920F920FB60F9211242F93A9
:1053F0003F938F939F93AF93BF938091750190914B
:105400007601A0917701B09178013091740123E089
:10541000230F2D3720F40196A11DB11D05C026E8EC
:10542000230F0296A11DB11D209374018093750175
:1054300090937601A0937701B093780180917901E0
:1054400090917A01A0917B01B0917C010196A11D00
:10545000B11D8093790190937A01A0937B01B09361
:105460007C01BF91AF919F918F913F912F910F90B0
:105470000FBE0F901F9018951F920F920FB60F92AC
:1054800011242F933F934F935F936F937F938F9349
:105490009F93AF93BF93EF93FF938091B900887F61
:1054A000883221F170F48031F1F030F4882309F46E
:1054B00072C08830C1F073C08831C1F0803251F1C0
:1054C0006EC0803409F44EC028F4803319F188335B
:1054D00021F165C08035D1F1883509F44FC0883499
:1054E00009F05DC05AC08091730111C090917201A2
:1054F00080917101981708F050C0E091720181E02D
:105500008E0F80937201F0E0EF5AFE4F80818093FE
:10551000BB002EC08093500140C08093500185ECA9
:105520008093BC0080914F0180934E0110924F01F7
:1055300080914E01833019F40E94402630C0809142
:105540004E01813061F50E94502629C0E091720120
:1055500081E08E0F809372018091BB00F0E0EF5AE2
:10556000FE4F80839091720180917101981710F421
:1055700085EC01C085E88093BC0011C0E091720108
:1055800081E08E0F809372018091BB00F0E0EF5AB2
:10559000FE4F808302C0109250010E946126FF914D
:1055A000EF91BF91AF919F918F917F916F915F919B
:1055B0004F913F912F910F900FBE0F901F90189514
:1055C00078941F920F920FB60F9211242F933F934E
:1055D0004F935F936F937F938F939F93AF93BF93FB
:1055E000EF93FF9310926E00E0918401F09185019A
:1055F0000995F89480918301882311F016BCA99A2B
:1056000080916E00826080936E00FF91EF91BF9158
:10561000AF919F918F917F916F915F914F913F914A
:105620002F910F900FBE0F901F9018951F920F9201
:105630000FB60F9211242F933F934F935F936F9365
:105640007F938F939F93AF93BF93EF93FF9380913B
:105650000101882341F080917A00806480937A0070
:105660001092010111C0E0910001809178009091A9
:105670007900EE0FFF0BEA5CFE4F918380830E945E
:105680007B2681E080930101FF91EF91BF91AF9163
:105690009F918F917F916F915F914F913F912F914A
:1056A0000F900FBE0F901F9018951F920F920FB67C
:1056B0000F9211242F933F938F939F93AF93BF9398
:1056C000EF93FF9380911504E82FF0E0EE0FFF1F9A
:1056D000EB5EFD4F208131818F5F80931504811136
:1056E00019C09091170481E0892780931704809155
:1056F000190490911A04A0911B04B0911C04019606
:10570000A11DB11D8093190490931A04A0931B044A
:10571000B0931C04C901880F892F881F990B91959C
:10572000809388002F7720938A00FF91EF91BF919B
:10573000AF919F918F913F912F910F900FBE0F903E
:105740001F9018950E9468350F931F93CF93DF9396
:105750001F92CDB7DEB782E0898342E450E06DE569
:1057600071E080E80E94CB270E94702FDC01129626
:105770000D911C9113970115110569F0D801ED9158
:10578000FC910280F381E02DBE016F5F7F4FC80165
:10579000099597FF07C089810F90DF91CF911F91E5
:1057A0000F910895F80100851185E5CF1F920F92A2
:1057B0000FB60F9211248F939F938091E1009091E7
:1057C000E100937F9093E10083FF0FC01092E90006
:1057D00091E09093EB001092EC0092E39093ED0037
:1057E0001092B60198E09093F00082FF20C093E001
:1057F0009093E9009091F200992319F09AE3909325
:10580000E80090918101992339F0909181019150A4
:1058100090938101992389F19091B501992339F0F1
:105820009091B50191509093B501992341F184FF76
:1058300010C08091E2008E7E81608093E2008091B2
:10584000E1008F7E8093E100809182018E7E8061F5
:1058500011C080FF16C08091E2008E7E806180932F
:10586000E2008091E1008E7E8093E10080918201D0
:105870008E7E81608093820104C05D9ACDCF289A8C
:10588000D6CF9F918F910F900FBE0F901F901895BC
:105890001F920F920FB60F921124CF92DF92EF92C8
:1058A000FF920F931F932F933F934F935F936F93A9
:1058B0007F938F939F93AF93BF93EF93FF93CF9378
:1058C000DF93CDB7DEB76C97DEBFCDBF1092E90096
:1058D0008091E80083FFEDC168E0CE0145960E940B
:1058E000F22782EF8093E8008D8987FF05C09091B1
:1058F000E80090FFFCCF03C09EEF9093E800982F44
:10590000907609F0C6C09E892F89188D91110CC020
:10591000803829F4809191018093F10002C01092A7
:10592000F1001092F10048C1422F50E0512B91300C
:1059300051F4811141C14130510509F03DC18091BF
:1059400091018D7F0BC0933061F4811135C14130DD
:10595000510509F031C180919101826080939101DC
:105960002BC1953041F48091E80080FFFCCF206886
:105970002093E30021C1963009F05FC0EB8CFC8CD2
:105980001092E9001092800110927F01123091F57F
:1059900010927E0110927D010E94A42B99E0BE011D
:1059A0006F5F7F4FDB01E92F1D92EA95E9F799833D
:1059B0001A8391E09E8390EA98879AEF99872091C5
:1059C0007F0130918001275F3F4F3C832B838D8384
:1059D0001092E9001092800110927F01F0927E01F6
:1059E000E0927D0149E050E080E00E94CB270E94D8
:1059F000A42BE2C0F0927E01E0927D010E94702F04
:105A0000DC011296ED90FC901397E114F10409F477
:105A1000C0C0D701ED91FC910480F581E02DBE015D
:105A20006B5E7F4FC7010995009719F00CF0C4C059
:105A3000C7C0F701E084F184E8CF973009F4C0C013
:105A4000983021F481E08093F100B6C0993009F0DC
:105A5000B3C0837009F0B4C0EFE0F1E081E021E071
:105A600036E39081992361F08093E9002093EB0065
:105A700091919093EC003093ED008F5F873089F720
:105A80008EE78093EA001092EA008F898093B60136
:105A900093C08B8D9C8D1092E90010928001109222
:105AA0007F0190937E0180937D01898D811156C085
:105AB0008E899D89913A59F4813209F081C047E07D
:105AC00050E066E071E080E00E94CB2775C0913223
:105AD00009F076C0833289F4888D90E0982F88276A
